:020000040804EE
:1000000000000824254A0508714A050801A90408CA
:1000100007A904080DA9040813A90408000000009A
:100020000000000000000000000000005933040838
:10003000714A050800000000F33304080334040883
:10004000714A0508714A0508714A0508714A050890
:10005000714A0508714A0508714A0508714A050880
:10006000714A0508714A0508714A0508714A050870
:10007000714A0508714A0508714A0508714A050860
:10008000714A0508714A0508714A0508E9560508CC
:10009000F9560508F556050805570508714A05087B
:1000A000714A0508714A0508714A0508714A050830
:1000B000714A0508714A0508714A0508714A050820
:1000C000714A0508714A0508714A0508714A050810
:1000D000714A0508714A0508714A0508714A050800
:1000E000714A0508714A050800000000714A0508B8
:1000F000714A0508714A0508714A0508714A0508E0
:10010000714A050829470508714A0508714A05081A
:10011000714A0508714A0508714A0508714A0508BF
:10012000714A0508714A0508714A0508714A0508AF
:10013000714A05088B610408714A0508714A05086F
:10014000714A0508714A050800000000000000001F
:10015000714A0508714A0508714A0508714A05087F
:10016000714A0508714A0508714A0508714A05086F
:10017000714A0508714A0508714A05080000000027
:10018000714A0508714A0508714A0508714A05084F
:10019000714A0508714A0508714A0508714A05083F
:1001A000714A0508714A0508714A0508714A05082F
:1001B000714A0508714A0508714A0508714A05081F
:1001C000714A0508714A0508714A0508714A05080F
:1001D000714A0508714A0508714A0508714A0508FF
:1001E000714A0508714A0508714A0508714A0508EF
:1001F000714A0508714A0508714A0508714A0508DF
:10020000714A0508714A0508714A0508714A0508CE
:10021000714A0508714A0508714A0508714A0508BE
:10022000714A0508714A0508714A0508714A0508AE
:10023000714A0508214A0508714A0508714A0508EE
:10024000714A0508714A0508714A0508714A05088E
:10025000714A0508714A0508714A0508714A05087E
:10026000714A0508714A0508714A0508714A05086E
:10027000714A0508714A0508714A0508714A05085E
:10028000714A0508714A0508714A05080000000016
:10029000714A0508714A050810B5054C237833B931
:1002A000044B13B10448AFF300800123237010BD49
:1002B0004018002400000000A450060808B5034BB5
:1002C0001BB103490348AFF3008008BD00000000E4
:1002D00044180024A4500608154B002B08BF134BEC
:1002E0009D46A3F5803A00218B460F461348144AD9
:1002F000121A1BF095FB0F4B002B00D098470E4BAA
:10030000002B00D098470020002104000D000D486C
:10031000002802D00C480BF0ADF91AF085FE200041
:10032000290005F02DFA0BF0B9FB00BF0000080012
:100330000000082400000000DD56040840180024D6
:10034000E8FD002475B60408000000007FB577487A
:1003500000F0EAF90A220146754802F0ECFC754902
:10036000734802F087FC714800F0EAF90A2201465E
:10037000684602F075FD694603A802F092FD6E49D9
:1003800003A802F0D7FD0146694802F081FC03A8EA
:1003900002F0EAFC684602F0E7FC6849644802F0B3
:1003A00069FC624800F0F7F90A220146684602F04B
:1003B00045FD694603A802F074FD614903A802F0F7
:1003C000B9FD01465A4802F063FC03A802F0CCFCD8
:1003D000684602F0C9FC5B49554802F04BFC5348A3
:1003E00000F0F4F90A220146684602F039FD694638
:1003F00003A802F056FD544903A802F09BFD0146F4
:100400004B4802F045FC03A802F0AEFC684602F03F
:10041000ABFC4E49464802F02DFC444800F0FDF983
:100420000A220146684602F01BFD694603A802F055
:1004300038FD474903A802F07DFD01463C4802F023
:1004400027FC03A802F090FC684602F08DFC4149AD
:10045000374802F00FFC354800F092F90A220146B5
:1004600003A802F0EBFC03A9314802F011FC03A839
:1004700002F07AFC38492E4802F0FCFB2B4800F0D1
:10048000C1F90A220146684602F0EAFC694603A85F
:1004900002F007FD314903A802F04CFD0146244853
:1004A00002F0F6FB03A802F05FFC684602F05CFC79
:1004B0002B491F4802F0DEFB1C4800F092F90A228B
:1004C0000146684602F0CCFC694603A802F0E9FC4C
:1004D000224903A802F02EFD0146154802F0D8FB80
:1004E00003A802F041FC684602F03EFC104802F00E
:1004F000C9FB4FF47A7002F0F5FD07B05DF804FB1C
:1005000003A802F031FCFFE7684606E0F8E7FBE7E6
:10051000F6E7F9E7F4E7F7E703A802F025FC18F09F
:1005200087F9EDE7F0E7EBE7EEE700BF5C180024A2
:1005300050250024900C06089C0C06089F0C060809
:10054000AB0C0608AE0C0608BD0C0608BF0C06086E
:10055000D60C0608DA0C0608EA0C0608CE200608B7
:10056000FB0C060808B5044800F07AF90348BDE81A
:10057000084000F071B800BF601800245C18002427
:1005800030B50F4C85B04FF4E1310D4800F01AFF43
:10059000204600F001FF0028FAD06D46094C28469D
:1005A00000F05EF995E80F0084E80F00204600F0A7
:1005B000AFF9204600F0DCF9034B186005B030BD00
:1005C00050250024601800245C18002470B50368CE
:1005D00004460D463621DB6A9847236829462046A3
:1005E0001B689847236820465B6B98472368022264
:1005F0003621DB6B20469847236820465B69984785
:100600002368054620465B699847236806462046CE
:100610005B6B984745EA062080B270BD70B50368F1
:1006200004460E463621DB6A154698472368314654
:1006300020461B6898472368290A20461B6898476C
:100640002368E9B220461B689847236820465B6B05
:10065000BDE8704018470000014B0360704700BFC1
:10066000D01A002438B5002104460068FFF7AEFF19
:1006700083074ED52749284802F014FBBA21206889
:10068000FFF7A4FF9022054660212068FFF7C6FF10
:100690000022BA212068FFF7C1FF002260212068F4
:1006A000FFF7BCFF1D491C4802F0FCFA4FF416424C
:1006B0003A212068FFF7B2FF4FF4C8721821206872
:1006C000FFF7ACFF40F286221E212068FFF7A6FF4D
:1006D0001349114802F0E6FA4FF40042DB2120688A
:1006E000FFF79CFF2A46BA212068FFF797FF24688E
:1006F00000212046FFF76AFF4FF6FD7200210240FD
:100700002046FFF78BFF07490348BDE8384002F059
:10071000C9BA38BD0D0D0608502500241F0D060866
:100720003A0D0608580D060808B500210068FFF7C5
:100730004DFF80F00800C0F3C00008BD00000000BD
:1007400013B50446FFF7F0FF90B119212068FFF7B9
:100750003DFF07EE900A9FED086BB8EEE77B27EEB2
:10076000067BFCEEC77BCDED017A019802B010BD8F
:100770000190FAE7AFF30080000000000000B43FF2
:1007800010B50446FFF7D0FF20B116212068FFF70F
:100790001DFF001210BD13B50446FFF7C5FF98B149
:1007A0000A212068FFF712FFB4EE046B00B207EED7
:1007B000900AB8EEE77B27EE067BFDEEC77BCDED1A
:1007C000017A019802B010BD0190FAE710B5044615
:1007D000FFF7AAFF20B10E212068FFF7F7FE0012F5
:1007E00010BD10B50446FFF79FFF50B111212068DE
:1007F000FFF7ECFE41F2F95358434EF6602390FBAD
:10080000F3F010BD10B50446FFF78EFF18B120219C
:100810002068FFF7DBFE002010BD13B50446FFF78C
:1008200083FF70B105212068FFF7D0FE07EE100AA4
:10083000BAEEEF7BFCEEC77BCDED017A019802B0FA
:1008400010BD0190FAE70160704701607047704782
:10085000704710B5044610210BF090F9204610BDEA
:1008600038B5044624480378BFF35B8FDB0712D406
:100870000AF00EFF78B108222049214800F0B2F8B2
:100880001F4D204B1C482B600AF024FF1E4A2846AF
:100890001E490AF0EDFE0C200BF03CF91849054604
:1008A00000F069F8E56004200BF034F9E1680546D2
:1008B000FFF7C9FF656004200BF02CF9E1680546DD
:1008C000FFF7C3FFA56004200BF024F90546FFF7EE
:1008D000C3FE0DE008480BF005F917F0A9FF0C2145
:1008E00028460BF04BF9F8E70421F9E7FCE7FBE7B2
:1008F0002560204638BD00BF70180024D01A00249F
:1009000074180024680D0608000000244F0804082D
:1009100010B586B00446144903A802F070FAE068E6
:1009200000F032F801460A22684602F087FA69466A
:1009300003A802F0F3FA01460C4802F0A9F9684650
:1009400002F012FA03A802F00FFA2068FFF78AFEFD
:1009500006B010BD684602F007FA03A802F004FAD8
:1009600017F066FFF9E700BF740D06085025002454
:1009700003681868704710B5044600F02DF800238E
:100980002046A36010BD000010B50446806810B179
:10099000034902F087F92046BDE8104000F01EB878
:1009A000920D060810B5074C08220749204600F0B2
:1009B00019F8064B2046064A23600649BDE8104058
:1009C0000AF056BE84180024D01A0024680D0608C8
:1009D000000000244F08040801607047006800F020
:1009E0000BB8000010B502720022024CC260C0E9D0
:1009F000004110BDA80D060810B504464068036804
:100A0000DB6998476068054903689B6A98472368D3
:100A100020469B68BDE81040184700BFA086010033
:100A20000020704770470368C9B21B681847490027
:100A30000023C161C0F82C327047036801211B6B91
:100A4000184710B403689C6B0123A4465DF8044B5F
:100A50006047D0F82C32B3F5807F1FBF5A1CC0F816
:100A60002C22C01880F82C1114BF012000207047E0
:100A7000D0F8280170477047C0F830127047C0F8AE
:100A800034127047D0F82831A3B1D0F828318BB197
:100A9000D0F82431D0F824210344013293F82030D7
:100AA000D2B2C0F82421D0F82821013AC0F8282178
:100AB000184670474FF0FF307047D0F828312BB1FF
:100AC000D0F82431184490F8200070474FF0FF30E0
:100AD000704738B5036804465B6A9847FC200BF002
:100AE00019F8B4F91A20B4F91810054606F05EFAA0
:100AF000656138BDFC2128460BF040F817F098FEE0
:100B00000B6803604B6843608B688360704738B53F
:100B1000D0F82C321446054600F596701A44184455
:100B2000B2F5807F88BFC3F5807422461AF07AFE42
:100B3000D5F82C3220462344C5F82C3238BD38B5C0
:100B4000044640690D4608B106F04FF9206920B10E
:100B50002946BDE8384006F07FBA38BD07B581F0B8
:100B6000010100F596720091D0F82C32C1694069FC
:100B700006F04EF9002814BF0220002003B05DF8F3
:100B800004FB10B50446406920B10368DB68984750
:100B90000023636123699BB1D4F838020BF046FB54
:100BA000D4F838020BF0CFFBD4F8380210B1036848
:100BB0005B6898479C2120690AF0E0FF00232361CD
:100BC00010BD70B5C2B083F001030446154602AEF5
:100BD0000093490013464069324606F038F9C8B917
:100BE000A84218D0D4F82831B3F5807F10D0D4F8BB
:100BF0002031325C234483F82020D4F820310133A3
:100C0000DBB2C4F82031D4F828310133C4F82831DC
:100C10000130E5E70025284642B070BD10B4D0E9A8
:100C2000013401686210E4075DF8044B01EB020037
:100C300044BF8A58D358184730B50446BDB0002584
:100C4000206906F012FA0328FAD8DFE800F04A0219
:100C50001212D4F8343203B19847D4F82C22002A67
:100C6000EED004F59671206906F003FAC4F82C5210
:100C7000E6E7C4F82051F022C4F824516946C4F8CC
:100C80002851206906F0F3F9002282421DDAD4F8D7
:100C90002831B3F5807F18D0D4F82831B3F5807FA0
:100CA00011D0D4F820311DF80210234483F820100D
:100CB000D4F820310133DBB2C4F82031D4F8283124
:100CC0000133C4F828310132DFE7D4F82831002B92
:100CD000B6DDD4F83032002BB2D0D4F828019847D2
:100CE000AEE702F00FFAABE7C3680BB19B68184799
:100CF00070470000F0B50368054687B00E465B6A92
:100D000098479C200AF006FFB5F91A20B5F918108B
:100D1000044606F087F9710020462C6106F09EF922
:100D2000BC200AF0F7FE214B002100F140060446EA
:100D30000360016130460BF063F904F15407384653
:100D40000BF0FCF81A4B4FF4006218212046009378
:100D500000230BF0EFF9174B02A9C5F838422046E3
:100D60000593154B02950393002304930BF0EEF9C2
:100D700010E038460BF022F930460BF06AF9201DDE
:100D8000FFF7B2FFBC2120460AF0F8FE17F050FD35
:100D9000F2E7F4E702A8FFF7A7FF07B0F0BD9C2138
:100DA000F1E702A8FFF7A0FFF0E700BF682B0608F5
:100DB000C00D0608B40D0608390C040838B5002526
:100DC0004FF47A7304460183428329464FF48072BC
:100DD000C0E901530A4BC0E90455036020301AF002
:100DE0001FFEC4F82051C4F82C522046C4F82451E8
:100DF000C4F83052C4F82851C4F8345238BD00BF8A
:100E0000D40D060810B50B2002F034F904460C206E
:100E100002F030F9214602460748FFF7CFFF1622BD
:100E200017210648FFF7CAFF7B227C210448BDE852
:100E30001040FFF7C3BF00BF94180024D01A00244D
:100E40000C1D0024002070470020704730B5A1F130
:100E50001004002500F00F02CD7302390009D3B24F
:100E6000092ACCBF373330330B748C42F2D130BDFA
:100E70002DE9FF470024061D05468A4690469946FF
:100E8000009423464FF0FF32B1213046CDE90144B2
:100E900006F054FA29682846DDE90C23CDE9002341
:100EA00042464F694B465146B847009423464FF09F
:100EB000FF32C1213046CDE9014406F03FFA204619
:100EC00004B0BDE8F0872DE9D04F9B4603689246F9
:100ED00004469B6ADDE90889984702460B4650465E
:100EE000594618F047F8134302D00020BDE8D08FD0
:100EF000236820469B6A984702460B46404649466F
:100F000018F038F81343F0D11AEB0806236820468E
:100F10004BEB09079B6B9847B94208BFB0422CBF07
:100F200001200020E2E701682DE9F04114461D464A
:100F3000096B0646884702460B462046294618F0AC
:100F400019F8134302D00020BDE8F081DDE9062343
:100F50003046A71845EB030817F1FF323368196BC9
:100F600048F1FF33884702460B463846414618F0A1
:100F700001F81343E7D1336830469B6B98474145EE
:100F800008BFB8422CBF01200020DDE72DE9D04F7B
:100F90009B460368924604465B6ADDE908899847E8
:100FA00002460B465046594617F0E4FF134302D061
:100FB0000020BDE8D08F236820465B6A9847024630
:100FC0000B464046494617F0D5FF1343F0D11AEBC4
:100FD0000806236820464BEB09079B6B9847B942EC
:100FE00008BFB0422CBF01200020E2E7074B10B53C
:100FF00004460360806A08B109F05EF9236913B101
:101000009B68201D9847204610BD00BFDC190608CC
:1010100010B50446FFF7EAFFFC2120460AF0AEFDBA
:10102000204610BDC220704700B5C3B0162217215C
:1010300003A805F0BBFF4FF4A17302AA1021ADF87D
:101040000830002303A80093022305F0E1FE03A863
:10105000FFF7CCFF43B05DF804FB03A8FFF7C6FF22
:1010600017F0E6FB244830B5037887B0BFF35B8FF9
:1010700013F001041CD10AF00BFBC8B11F4B662210
:101080003B211F48CDE903435A23CDE901323D23DB
:101090003C22009357230CF0E7FA194C194B1648E1
:1010A00023600AF017FB184A204618490AF0E0FAB4
:1010B00013480CF08DFC164D1A22002329461048C7
:1010C000CDE9002300230022FFF7D2FE2B7804464F
:1010D000B52B04D10F4B01221D600F4B1A7008482D
:1010E0000CF058FBB4FA84F0400907B030BD024858
:1010F0000AF0F8FC17F09CFB6C1F0024005A6202F7
:10110000781F00242C0E0608000000244D1204084D
:101110008021002404000024701F00241D4B0121A5
:101120001D4AA62070B51A6002F068F80121A620B9
:1011300002F0E4F8FFF778FF184B43F2D2021A608E
:10114000FFF790FF164B1B7833B1164B1B689A883C
:1011500040F209439A421BD8134B9B6D03F4604342
:10116000B3F5004F14D001F09FFF104D044601F07D
:10117000ADFF064601F0AAFF801BA842FAD901F094
:1011800093FF001B642803D0BDE8704015F0B0BB8E
:1011900070BD00BF481F00240040005800400052AE
:1011A000701F002404000024004402589F860100A0
:1011B00010B504460DF07EF82146FFF747FE0DF00E
:1011C0007FF804F11001FFF741FE0DF07FF804F104
:1011D0002001FFF73BFE302010BD000008B54DF6A2
:1011E00059720021074812F027F8BFF34F8F0649C4
:1011F000064BCA6802F4E0621343CB60BFF34F8F23
:1012000000BFFDE7481F002400ED00E00400FA05E0
:1012100038B5074B0546044645F8BC3B0CF0BAFA16
:1012200028460AF0CBFE201D06F0C8F8204638BD3F
:101230009837060810B50446FFF7EAFF4FF402712D
:1012400020460AF09BFC204610BD0000034B10B561
:1012500004460360FFF7DCFF204610BD2C0E060895
:1012600010B50446FFF7F2FF4FF4027120460AF072
:1012700085FC204610BD70B590F8383105461446FF
:10128000F3B90368DB69984704F4706304F00F0254
:10129000B3F5407F04F0F0030CBF07210821302B89
:1012A0000CBF02230123012A08D0901E4242424172
:1012B000A869BDE87040006806F07BB90222F7E734
:1012C00070BD10B590F8383104462BB9A369186881
:1012D00006F0B2F90028F9D010BD38B590F83851B1
:1012E0000446A5B983695BB1186848B10368DB6837
:1012F0009847A36904211D60A0690AF03FFCA5611D
:101300000023C4F82831C4F82C31C4F8303138BD7A
:1013100013B590F8383104466BBBA369186806F022
:101320005FF940B309F0C4FDA36901220DF1070183
:10133000186803685B699847D4F83031B3F5807F4B
:1013400016D0D4F83031B3F5807F11D0D4F82831DD
:101350009DF80720234483F82820D4F8283101334E
:10136000DBB2C4F82831D4F830310133C4F830315D
:1013700009F0B4FDD1E702B010BD10B4D0E90134DA
:1013800001686210E4075DF8044B01EB020044BF02
:101390008A58D3581847000008B590F838313BB147
:1013A000012001F09FFE0648BDE8084001F01ABB8D
:1013B00082691AB11368003318BF0123184608BDAB
:1013C000202C00247FB590F8383104460E46002BBF
:1013D00036D1856925B904200AF09CFBA06105601F
:1013E000A369186828BB8C200AF094FB3346B4F933
:1013F00022200546B4F9201006F0B6FBA3691D6053
:10140000B4F92420531C06D0A0690321B4F9263076
:10141000006806F0B9FBA369186888B10E4B00227A
:101420006946009403930D4B0292019306F03BF939
:1014300003E0314606F0AAF8E2E76846FFF754FCFD
:1014400004B070BD8C2128460AF098FB17F0F0F923
:101450006846FFF749FCF9E77C0E060811130408FB
:1014600070B504460D4601F0BDFA30B12368294637
:1014700020461B6CBDE87040184770BDA0F5986011
:10148000EEE7000013B590F8383104468DF80710E8
:101490002BB1C9B20B48FFF7E3FF02B010BDA3693F
:1014A000186806F0C9F80028F9D0A36901220DF1E7
:1014B0000701186803681B699847013018BF0120AD
:1014C000EBE700BF202C00242DE9F04107468846B9
:1014D000164601F087FA80B10024A6420ED9351BCA
:1014E00008EB04013846B5F5007F28BF4FF40075BE
:1014F0002A462C4400F018FFEFE704462046BDE8DA
:10150000F081A0F59860DFE770B590F838310546B6
:101510000E4614462BB10F48FFF7D6FF044620466F
:1015200070BDAB69186806F087F80028F9D0AB6980
:1015300001211868D0F8883088301B6B9847AB6958
:1015400022463146186803681B699847013008BF76
:101550000024E4E7202C002430B50446C3B001F099
:1015600099F90546D4F8D835C3F58073984203DD60
:10157000D4F8D855C5F580752A4601AB02A9204696
:1015800000F0C9FF019902AB00226D1A1D44D4F886
:10159000D835B3F5807F19D08A4217D0D4F8D83522
:1015A000B3F5807F10D0D4F8D035A85C234483F8FD
:1015B000D004D4F8D0350133DBB2C4F8D035D4F838
:1015C000D8350133C4F8D8350132E0E743B030BD37
:1015D00038B5044600F026FB2046FFF7BDFFD4F8DF
:1015E000D855204600F026FB284638BDA0F5986067
:1015F000EEE7000010B590F8383104462BB10648EC
:10160000FFF7E6FF0446204610BD09F051FCD4F870
:10161000304109F063FCF6E7202C002438B504467D
:1016200000F000FB2046FFF797FFD4F8D8354BB108
:10163000D4F8D435234493F8D054204600F0FAFA75
:10164000284638BD4FF0FF35F7E7A0F59860E5E78D
:1016500010B590F8383104462BB10B48FFF7DEFF88
:101660000446204610BD09F023FCD4F830313BB1CC
:10167000D4F82C01044494F8284009F02FFCF0E73A
:101680004FF0FF34F9E700BF202C002438B50446A2
:1016900000F0C8FA2046FFF75FFFD4F8D835A3B1B1
:1016A000D4F8D435234493F8D054D4F8D435013346
:1016B000DBB2C4F8D435D4F8D835013BC4F8D835FA
:1016C000204600F0B7FA284638BD4FF0FF35F7E75F
:1016D000A0F59860DAE7000010B590F838310446BC
:1016E0002BB11148FFF7D2FF0446204610BD09F088
:1016F000DFFBD4F830319BB1D4F82C31234493F87C
:101700002800D4F82C310133DBB2C4F82C31D4F8E2
:101710003031013BC4F83031044609F0DFFBE4E727
:101720004FF0FF34F9E700BF202C002408B54FF438
:10173000807200211AF074F90022C0F80021C0F86C
:101740000421C0F8082108BD2DE9F84300242D4DDF
:101750004FF47A782C4F202605F128002F60EC6199
:10176000C5E90148C5E90564FFF7E0FF01230E2044
:1017700085F8383101F07EFC244D81460D2001F0C2
:1017800079FCA5F820904FF6FF79688405F12800D0
:101790002F60EC61A5F82490A5F82690C5E90148D2
:1017A000C5E90564FFF7C2FF85F838410F23184DDE
:1017B0002B84562305F128002F606B845823EC619D
:1017C000AB845923C5E90148EB84C5E90564FFF7FB
:1017D000ADFF85F8384198230E4D2B84992305F1F0
:1017E00028002F60EC616B84A5F82490A5F8269062
:1017F000C5E90148C5E90564FFF798FF85F8384158
:10180000BDE8F88350250024900E06089C21002492
:10181000D822002414240024002070477047704709
:1018200010B5D0F88C452CB1236820465B689847EA
:10183000A468F8E710BD38B50D46D0F88C4534B132
:101840002368204629469B689847A468F7E738BD77
:1018500000487047500F0608054B10B5044603605A
:1018600007F08BFC204607F0A1FC204610BD00BF0E
:10187000D00E060810B50446FFF7EEFF4FF4B26134
:1018800020460AF07BF9204610BDF7B50023054637
:101890000E46D0F88C45A4B1236831460DF1030201
:1018A0002046DF6801ABB8479DF8031003460429C2
:1018B00005D0019A284606F0BDFE03B0F0BDA4682D
:1018C000E9E7019A9DF80310F4E770B505460E4666
:1018D00022B10021BDE8704006F0B8BCD0F88C45BC
:1018E0005CB123680022314620461B69984710B13D
:1018F00001212846EEE7A468F2E72146F9E770B532
:101900000E460546D0F88C4500213CB1236831468F
:1019100020465B699847A4680146F6E72846BDE87B
:10192000704006F087BDF8B505460E461746D0F85C
:101930008C453CB1236820463A4631469B6998471E
:10194000A468F6E728460121BDE8F84006F0D0BDBE
:1019500070B5002186B0044607F068F800234FF404
:101960008975A188EF26ADF806302389ADF80450BB
:1019700002258DF810301B0AE2888DF8113040F2F4
:1019800001238DF80750ADF8123040F203138DF8A3
:1019900009500125ADF8143004F10A038DF80860F0
:1019A00005AE8DF80A501C468DF80C1001AD090AE1
:1019B0008DF80E20120A8DF80B008DF80D108DF8A1
:1019C0000F202A46083303CAB24243F8080C43F8F2
:1019D000041C1546F5D1128820461A8006B070BD49
:1019E000F8B5002406460D46274630461AF008FD95
:1019F000A04207D9335D05F8143005EB44030134E8
:101A00005F70F2E7400000F0FE00F8BD38B5044614
:101A1000D0F88C5535B12B6828461B6A984710B909
:101A2000AD68F7E7284640F2023304F24A51A4F8C1
:101A30004835FFF7D5FF94F84835184484F8480531
:101A400004F5A96038BD000040F2023300F20A51EB
:101A500010B50446A0F808350548FFF7C1FF94F813
:101A60000835184484F8080504F5A16010BD00BFCE
:101A7000BC0E060840F2023310B50446A0F8C83484
:101A800000F2CA40FFF794FB94F8C834184484F875
:101A9000C80404F5996010BD2DE9FF4100231D4ADB
:101AA000044600F54E788DF80A30092590F88835FF
:101AB0000192FA228DF8083001238DF80C208DF860
:101AC0000930C0238DF80B3001AB03CBC4F83803C9
:101AD000C8F8041088F80820D4F88C658EB13368F3
:101AE000002130461B689847478805F54E7300F182
:101AF0000901093FE0183A463D4419F093FEB668E3
:101B0000ECE784F83A5340462D1284F83B5304B076
:101B1000BDE8F0810902FFFF73B504460D46164685
:101B200013F052FD4FF4807301462A46204600937D
:101B3000334606F041FF024B2046236002B070BDE1
:101B4000D00E060810B5D0F88C350446A3B9C0F8FD
:101B50008C1594F8883508464A790B7194F88835C5
:101B6000134484F888350B685B6A984723891844C6
:101B70002081012010BD13469A68002AFBD199608C
:101B8000E7E71FB5044606F011FF0146684606F078
:101B9000B7F84021684606F025F9D4F88C4534B1F1
:101BA000236869462046DB699847A468F7E76846DA
:101BB00006F0ADF804B010BD684606F0A8F816F0BF
:101BC00037FE10B50446FFF7DCFF2046BDE81040A5
:101BD00006F05DBE0F4808B50378BFF35B8FDB07E7
:101BE00011D409F055FD70B140F25B2242F241314F
:101BF0000948FFF791FF074809F06CFD074A0849BB
:101C0000054809F035FD044808BD024809F06AFF9F
:101C100016F00EFE8C2600249026002400000024DE
:101C20005918040810B5FFF7D5FF0368BDE8104048
:101C30005B6F184710B5FFF7CDFF0368BDE8104094
:101C40009B6F184710B5FFF7C5FF0368BDE810404C
:101C5000DB6F184706F0DAB906F0EEB906F0C6B940
:101C6000704770477047436A93F878007047D0F820
:101C7000A40470470120704700487047B010060860
:101C80002DE9F04794B004460F464B22002101A8ED
:101C900019F0C6FE2679D4F8A434751C94F80E9079
:101CA000002B94F80C80EDB294F80DE014BF0520E1
:101CB0000020002F40F0938040F2092309218DF885
:101CC0001D0042F20540ADF804304FF481738DF8E9
:101CD00015100121ADF808308023ADF81E0010204A
:101CE0008DF80B3032234FF0040A24278DF80C3086
:101CF00008234FF0030C4B228DF80D300B238DF889
:101D000019101D348DF80E3040F202238DF81C108E
:101D1000ADF8103002238DF8210005208DF8221037
:101D20008DF825108DF8271006218DF806208DF8E6
:101D30000F608DF812308DF817608DF81A308DF81D
:101D40001B308DF823008DF826C08DF82A308DF8D1
:101D50002B108DF82C008DF816A08DF824708DF8BE
:101D600028A08DF829708DF82D708DF82E10072180
:101D70008DF82F6041F202068DF831108DF8411078
:101D800040F207518DF83050ADF8366040F2094608
:101D90008DF83A5040F602258DF832008DF8420059
:101DA0002046ADF848100DEB0A018DF833908DF800
:101DB00034C0ADF83860ADF83C508DF843808DF8F4
:101DC00044308DF846308DF84AE08DF84B308DF870
:101DD0004D3019F027FD204614B0BDE8F0870020F3
:101DE000FAE700000A4B10B504460360FFF7F2FE65
:101DF00007F0C3F904F5247006F08EF804F17C00B6
:101E000006F08AF804F1700006F086F8204610BD4E
:101E10007010060810B50446FFF7E4FF4FF4956113
:101E2000204609F0ABFE204610BDFFF70BBF0000B7
:101E3000034B10B50446036005F0EAFE204610BDD2
:101E4000980F060810B50446FFF7F2FF2821204638
:101E500009F094FE204610BD034B10B50446036004
:101E600005F0D6FE204610BD680F060810B50446E2
:101E7000FFF7F2FF3421204609F080FE204610BD16
:101E8000034B10B50446036005F0C2FE204610BDAA
:101E9000800F060810B50446FFF7F2FF38212046F0
:101EA00009F06CFE204610BD38B51E4B0D460446A9
:101EB0004FF400721968C0F80F1099889B79A0F848
:101EC000131002214375284605F082FF4FF400727B
:101ED00020730221284605F080FF4FF400726073E2
:101EE0000321284605F074FFA073284605F010FF73
:101EF00020B9AF220C490D4808F0E2FE04F185023A
:101F00000023C4F8882204F2992284F8783084F8F7
:101F10008430C4F88C3284F89832C4F89C24C4F815
:101F2000A03438BDB40F06084C1006085710060838
:101F30002DE9F34104460E461546FFF783FEF2886D
:101F400023799A4237D1002D35D17778012F2ED1C0
:101F5000F378202B27D13289072A24D104F10F08E6
:101F600004F116054046294619F02AFCD0B1D4F8F0
:101F70001630C4F80F30638B207CE17BA4F813305B
:101F800001EB0021E57C607C237F01EB00410095A3
:101F9000A07C2568637501EB0061237D2046627D8E
:101FA0006D6BA8473D46F378212B08BF01252846D5
:101FB00002B0BDE8F0810025F9E710B50446FFF74F
:101FC00041FEFFF707FE217B06F074FF04F1850355
:101FD00004F17C00C4F888320023C4F88C3284F801
:101FE000843005F04EFF94F884302BB923682046E6
:101FF000DB6BBDE81040184710BD000070B504460B
:10200000FFF720FED4F8A0542DB140F2DD120F49A5
:102010000F4808F055FE04F29923C4F89C34FFF7EA
:10202000D9FD617B06F0A4FE84F89852C4F8A004A0
:1020300004F5247005F025FF94F898322BB9236835
:1020400020469B6BBDE87040184770BD4C100608D9
:10205000C00F060810B4D0E9013401686210E4072B
:102060005DF8044B01EB020044BF8A58D35818476F
:1020700070B586B00546FFF7E5FD02ACFFF7AAFD97
:102080000023A97B00944FF400720593032306F00C
:1020900017FC2046214EFEF727FEFFF79BFD204A46
:1020A000297B022303920022009404924FF40072D1
:1020B0000596029506F004FC2046FEF715FEFFF794
:1020C00089FD184B697B4FF4007203930023009441
:1020D000049302230596029506F0F2FB0CE02046DD
:1020E000FEF702FE16F0A4FB2046FEF7FDFDF9E721
:1020F0002046FEF7F9FDF5E72046FEF7F5FDFFF770
:1021000069FD4FF40073D5F89C24697B06F0D2FD7D
:10211000012085F8980206B070BD00BFA80F060820
:10212000BB1F0408FD1F040802232DE9F041437181
:1021300000230446054683609046144B04F17C0658
:1021400045F8703B284605F08FFE304605F08CFEC2
:1021500004F52477384605F087FEC4F8A484FFF719
:1021600039FD2146FFF7EEFC0CE0384605F0D4FEC1
:10217000304605F0D1FE284605F0CEFE16F058FB9D
:10218000F6E7F8E72046BDE8F08100BF70100608CA
:1021900070B504460D46FFF755FD84F87850002DC4
:1021A0003ED194F8843033B1FFF714FD217B06F063
:1021B00059FC84F8845004F1850304F17C06002561
:1021C0003046C4F88832C4F88C5205F05AFE3046C6
:1021D00005F050FE28B94FF4A2721449144808F0D3
:1021E0006FFD94F8983233B1FFF7F4FC217B06F0D1
:1021F00039FC84F8985204F2992304F52475C4F844
:102200009C3400232846C4F8A03405F03AFE284642
:1022100005F030FE20B94FF4A77204490548DEE707
:1022200004F17000BDE8704005F02BBE4C100608AC
:10223000CE0F0608DF0F060810B50446FFF702FDB3
:1022400000212046BDE81040FFF7A2BF38B50D467B
:102250000446FFF7F7FC042D05D020460021BDE819
:102260003840FFF795BF38BDF8B5164604460D4611
:102270001F46FFF7E7FC0423EA88337023799A426C
:1022800025D16978012922D1EA78212A08D0222A89
:102290000BD0202A4FF000001BD13070163401E023
:1022A0000F34317007203C60F8BDAB88204613F036
:1022B000010308BF1946FFF76BFFAB8803F001036A
:1022C000E366AB8803F00203A366022333700020A9
:1022D000EAE703233370E7E710B58AB00446FFF757
:1022E000A1FC684605F088FC0D4B694604F17000BE
:1022F0000093099405F0DDFD2046FFF79BFC094B98
:10230000002168461A6805F0C1FC6846FFF790FD99
:102310000AB010BD6846FFF78BFD16F089FA00BFC2
:10232000980F0608BC0F060870B58EB004460E461E
:102330001546FFF777FC01A805F05EFC114B01A9DB
:1023400004F17C00019300230C958DF83430CDE925
:102350000A4605F0AEFD2046FFF76CFC0A4B002153
:1023600001A81A6805F092FC04E001A8FFF774FDCB
:1023700016F05EFA9DF8344001A8FFF76DFD204687
:102380000EB070BD680F0608BC0F060810B50446F5
:10239000FFF758FC94F884307BB9D4F88C3263B1E1
:1023A000FFF718FCD4F88C3204F18502217B06F08B
:1023B0001FFD10B1012384F8843010BD2DE9F843CE
:1023C0001E460446894690469DF82070FFF72AFC79
:1023D0000023336094F87830E3B194F88430CBB9BB
:1023E000D4F88C52C5F50075454528BF4546B8F16F
:1023F000000F05D02A464946D4F8880219F012FA8F
:10240000D4F88C322B44C4F88C32356017B1204696
:10241000FFF7BCFF2046BDE8F843FFF70BBCF0B563
:102420000446406A85B0012690F878502DB984F8AA
:1024300030503546284605B0F0BD04AB0027D4E93E
:102440000A1243F8047D0096FFF7B8FF0399E36A88
:10245000A26A5B1A0A44E362A26213B984F830608C
:10246000E8E7606A3D46FFF791FFE3E72DE9F043B7
:102470001C4691B0054689469046FFF7D3FB002CD9
:102480004FF0000602A806BF01AC01270027266016
:1024900005F0B2FB134B02A905F5247002938DF8E9
:1024A0003C708DF83D60CDE90B59CDE90D8405F008
:1024B00000FD2846FFF7BEFB0B4B314602A81A6809
:1024C00005F0E4FB04E002A8FFF7DAFC16F0B0F92F
:1024D0009DF83D4002A8FFF7D3FC204611B0BDE8AF
:1024E000F08300BF800F0608BC0F060810B5D0F8B7
:1024F000A034044673B990F898325BB9FFF76AFBD1
:102500004FF4007304F29922617B06F0D3FB0123A0
:1025100084F8983210BD70B504461E460023084664
:10252000336094F87830EBB194F89832D3B9D4F89A
:10253000A054D4F89C14954228BF15462A4619F099
:1025400071F93560D4F89C34D4F8A0242B44551B81
:10255000C4F89C34C4F8A05425B92046BDE87040A6
:10256000FFF7C4BF70BD37B50446406A90F8785095
:102570002DB984F835500125284603B030BD02AB93
:10258000002243F8042DD4E90A12FFF7C4FF019991
:10259000A26A0A44A262226B13680B441360019979
:1025A000E36A5B1A94F83410E36209B9126802B95D
:1025B0001BB9012384F83530DEE7606A0025FFF798
:1025C00095FFD9E76FF01500704700290CBF6FF039
:1025D000180000207047012070476FF01500704709
:1025E0006FF01500704711207047704770477047B3
:1025F00003689B6C1847A0F59860F9E7704770472F
:10260000704770470368184710B50446012000F072
:1026100069FD94F8780010BDA0F59860F4E700001B
:1026200038B54FF0FF320123FF210B4809F044FC7D
:102630000A4D00F039FD044695F878301BB10120B1
:1026400000F050FDF8E700F02FFD001BC728F6D979
:10265000BDE83840FEF7C2BD58320024202C0024CB
:1026600007B502AB012243F8041D1946FFF75CFED3
:1026700018B1019803B05DF804FB4FF0FF30F9E7A3
:10268000A0F59560FFF7ECBF07B5002302A9012272
:1026900001F8013DFFF7EAFE20B19DF8070003B005
:1026A0005DF804FB4FF0FF30F9E7A0F59560FFF708
:1026B000EBBF2DE9F8430446884617461E46089DA1
:1026C000FFF7C0FAD4F8F095B9F1000F04D02B460B
:1026D000324639464046C847C4F8E085C4F8E47538
:1026E000C4F8E865C4F8EC55BDE8F88370B5064653
:1026F0000025FFF7A7FA06F2F454D6F83436AB42B9
:1027000008D92046103454F8043C1BB11B6801352D
:102710009847F2E770BD0000B0F5966F03D1012134
:10272000014809F0ABBB70475832002410B4D0E91F
:10273000013401686210E4075DF8044B01EB02000C
:1027400044BF8A58D3581847114B03F1780270B52B
:1027500003600446C0F8A82400F2F45603F1D8023E
:1027600000F23465E833C0F8AC24C0F8C034AE429F
:1027700004D0103D2846FEF7B7FAF8E704F5956057
:1027800007F020FF2046FFF72DFB204670BD00BF5D
:10279000F0100608A0F59560FFF7D6BFA0F2AC4098
:1027A000FFF7D2BF10B50446FFF7CEFF4FF4C76165
:1027B000204609F0E3F9204610BDA0F2AC40FFF737
:1027C000F1BFA0F59560FFF7EDBF0000F7B51E461D
:1027D00004460F46154612F0F7FEBDF824300146B8
:1027E0002A4601932046BDF820300093334604F575
:1027F0009566FFF799FC0021304607F0B9FE4FF4CB
:102800007A73002504F59A60C4F8C8342946204B31
:10281000C4F8C45403F178022360C4F8A82403F177
:10282000D802E833C4F8AC244FF48072C4F8C03442
:1028300019F0F6F8C4F8D055C4F80056C4F8D455C9
:10284000C4F81056C4F8D855C4F82056C4F8305609
:10285000C4F83456C4F8F055BFB12046FFF73CFD2C
:1028600013E004F2346504F2F457BD4204D0103D85
:102870002846FEF739FAF8E7304607F0A3FE20466F
:10288000FFF7B0FA15F0D4FFF9E7204603B0F0BD2A
:10289000F010060838B50546FFF7C4F995F89832E8
:1028A0005BB9D5F8A044B4F5007F28BF4FF400749D
:1028B0002846FFF7BFF9204638BD0024F8E700009E
:1028C000F0B587B00446FFF7ADF93D4B2046C4F89C
:1028D000F035FFF7AFF93B4B2046029405933A4B96
:1028E000039300230493FFF79DF9D4F83456032D86
:1028F00003D92046FFF79EF915E004EB05166B1C83
:1029000006F2F456C4F834363046FEF7EDF9059B6E
:1029100004EB0515C5F80036002BEAD05B6802A968
:1029200030469847E5E702A8FEF7DEF9BC2009F03B
:10293000F1F8264B002100F14006054603600161D5
:10294000304609F05DFB05F15407384609F0F6FA08
:102950001F4B4FF48072182128460093002309F082
:10296000E9FB1C4B02A9C4F8DC55284605931A4B19
:1029700002930023CDE9033309F0E8FB10E0384669
:1029800009F01CFB304609F064FB281DFEF7ACF98A
:10299000BC21284609F0F2F815F04AFFF2E7F4E707
:1029A00002A8FEF7A1F92046FEF7D6FD07B0F0BD5C
:1029B00002A8FEF799F9EFE702A8FEF795F9EBE711
:1029C00019270408C810060859150408682B0608BA
:1029D000E0100608D410060821260408A0F5986027
:1029E000FFF76EBF90F878007047000037B50F4CC6
:1029F0000F4D204609F032FA2A460E49204608F0CB
:102A000037FE42F2120301220B4CCDE900320022C4
:102A10004FF4F85320461146FFF7D8FE2A460749DF
:102A2000204603B0BDE8304008F022BE58320024F2
:102A30000000002483BE0408202C00244927040839
:102A400008B517F09DFB2DE9F04F027D85B00546D6
:102A50000E46012A40F08E8000214FF0FF3B0446D5
:102A60000B465F4694F804C048B2BCF1000F73D126
:102A700094F805C0BCF1000F6ED1B7F1FF3F17BF4E
:102A80000133012338465BB2934201DD1A46834687
:102A90000131023408295DD1002402EB0B03A14669
:102AA0000293CB4502DC029B4B4558DC95F8058030
:102AB00095F804A04FEA281708F00F080AF00F0352
:102AC0005FEA2A1AFAB201926FD05FFA8AF1BAF17C
:102AD000090F30460393D4BF3031573100F0CEF8A0
:102AE000039B0444092B3046039394BF03F1300148
:102AF00003F1570100F0C2F80444BAF1000F02D10B
:102B0000039B03B94FB1092F019F3046D4BF303723
:102B10005737F9B200F0B2F80444B8F1090F304663
:102B200094BF08F1300108F1570100F0A7F8B9F19E
:102B3000070F044404D03A21304600F09FF80444C3
:102B400009F101090235B9F1080FAAD1204605B0F3
:102B5000BDE8F08F074685E74FF0FF3098E7CB459B
:102B6000EED1BBF1000FE6D13A21304600F086F8F5
:102B70000444E0E700F1100700F11309002417F8FE
:102B8000011B0A22304600F0EDF880462E21304627
:102B900000F074F8B94540440444F0D10A22E97CBD
:102BA000304600F0DFF80444D0E7002B9AD1A9E7C3
:102BB000054B102210B50446036001750021043056
:102BC00018F02EFF204610BD0C12060870B5074DF8
:102BD0008374056000259DF810300575456085609B
:102BE000C56001744274C37470BD00BF0C12060846
:102BF00007B501210648FFF7DBFF002305481A4609
:102C000019460093FFF7E2FF03B05DF804FB00BF35
:102C10006C320024843200242DE9F04106460D4632
:102C200001EB02080C464445A4EB050707D03368C6
:102C3000304614F8011B1B6898470028F3D138462A
:102C4000BDE8F08170B5044608460D4619F0D8FB82
:102C500023680246294620465B68BDE87040184755
:102C600009B1FFF7EFBF0846704703688A685B68E1
:102C70000968184708B5FFF7F3FF08BD03681B682C
:102C8000184700000149FFF7DDBF00BF364C0608BA
:102C900038B50546FFF7E9FF04462846FFF7F2FF7F
:102CA000204438BD38B50546FFF7DAFF044628460C
:102CB000FFF7E8FF204438BD70B58AB00D46002309
:102CC000012A98BF0A220AA901F8043DB5FBF2F4D3
:102CD00002FB14562546F3B2092E94BF3033373326
:102CE000DBB201F8013D002CF0D1FFF7B9FF0AB0CB
:102CF00070BD2DE9F04107460E4615462AB9036816
:102D0000C9B21B68BDE8F04118470A2A05D100295D
:102D100005DBBDE8F041FFF7CFBFD2B2F9E72D21C7
:102D2000FFF7ACFF04462A4671423846FFF7C4FF5E
:102D30002044BDE8F08138B50546FFF7DAFF0446C8
:102D40002846FFF79FFF204438BD10B42AB9036816
:102D5000C9B25DF8044B1B681847D2B25DF8044B4A
:102D6000FFF7AABFFFF7F1BF10B50446006808B12E
:102D700018F014FA204610BD10B50446006808B1DA
:102D800018F00CFA00232360C4E9013310BD38B5F4
:102D900004460D460068013118F0F8FE10B1C4E990
:102DA0000005012038BD036810B5044623B143680F
:102DB0008B4201D3012010BD2046FFF7E8FF002819
:102DC000F9D0A368002BF5D122681370F3E770B532
:102DD0000E46114604461546FFF7E5FF20B920468A
:102DE000FFF7CAFF204670BD2A463146A56020681D
:102DF00018F018FD2268A3680021D154F2E738B515
:102E0000002304460D468360C0E9003339B108460B
:102E100019F0F6FA294602462046FFF7D8FF204669
:102E200038BD38B505460C46084619F0E9FA214682
:102E300002462846BDE83840FFF7C9BF10B5002359
:102E40008AB00446084601A9A360C4E9003300F033
:102E5000B5F8204601A9FFF7E4FF20460AB010BDEF
:102E600010B500238AB00446084601A9A360C4E94E
:102E7000003300F0CDF8204601A9FFF7D2FF20462D
:102E80000AB010BD88420B4610B5044604D009684C
:102E900021B19A68FFF79BFF204610BDFFF76CFF3A
:102EA000FAE7002310B504468360C0E90033FFF75A
:102EB000E9FF204610BD2DE9F0410546174688463A
:102EC00019B900263046BDE8F0819AB184681444EF
:102ED0002146FFF768FF06460028F2D0AB683A4665
:102EE00028684146184418F09DFC2B680022AC600D
:102EF0001A55E7E70126E5E738B505460C460846CA
:102F000019F07EFA214602462846BDE83840FFF710
:102F1000D2BF09B1FFF7F0BF0846704710B58A6805
:102F200004460968FFF7C7FF10B92046FFF724FFE2
:102F3000204610BD10B5044621B92046FFF71CFFFE
:102F4000204610BDFFF7E5FF0028F6D0F8E7F0B502
:102F50008BB039B3931E222B2ED80A2A06D1002813
:102F600004DA4442012601AB1D460FE00446002668
:102F7000F9E7B4FBF2F002FB104704460133F8B264
:102F8000092F94BF3030573003F8010C002CF0D1DA
:102F9000AB42EED04EB12D204A1C0870AB4206D891
:102FA0000023137008460BB0F0BD0A46F6E713F88D
:102FB000010D02F8010BF1E70021F3E7FFF7C7BFAE
:102FC00070B58AB061B1931E222B1FD801AB1D468C
:102FD00048B9AB4207D00A46AB4212D8002313705F
:102FE00008460AB070BDB0FBF2F402FB140620469E
:102FF0000133F4B2092E94BF3034573403F8014C36
:10300000E6E713F8010D02F8010BE5E70021E7E719
:10301000FFF7D6BF10B500F067F80A4CFEF77EF850
:10302000FEF7D8FDFEF7CDFD4FF4E1310648FFF77E
:1030300047FCFDF7A5FAFDF789F9002CFBD0AFF3AB
:103040000080F8E700000000202C002470B5054641
:103050000024074EFDF7E6FFE3B2984206D9184672
:103060001B010134F35EAB42F4D170BDFF20FCE7DD
:103070000800002410B50446FDF7D4FF84423BBF8E
:103080002401024B4FF0FF30185F10BD08000024F0
:1030900010B5044604F015FC204610BD10B50446DA
:1030A00004F00FFC204610BD07B50749684604F040
:1030B00045FC4FF47A720023DDE9000115F00AFFA8
:1030C00003B05DF804FB00BFA032002407B504493B
:1030D000684604F033FC009803B05DF804FB00BFC1
:1030E000B832002408F0BCBF08B5044804F0F3FB74
:1030F0000348BDE8084004F0EEBB00BFB83200242E
:10310000A032002408F0BCBF38B50A4C0A4D204656
:1031100004F051FC2046094C2A46094908F0A8FA57
:10312000204604F053FC2A4620460649BDE83840B4
:1031300008F09EBAB832002400000024A032002417
:103140009D3004089130040870B504460D461646BB
:1031500000211C2218F064FC20463246294606F065
:103160003FFC204670BD00002DE9F04104460E46AC
:10317000FDF758FF84423CD21F4D2701EA19D06861
:1031800010B11C2108F0FAFC2046FFF773FF8046BF
:103190001C2008F0BFFC044600211C2218F040FC53
:1031A0004146204606F019FCEB19012EDC6010D0D8
:1031B00006D3022E12D0204603F0CFFD022103E0F9
:1031C000204603F0CAFD00212046BDE8F04103F08F
:1031D000D1BD2046BDE8F04103F0B2BD204603F06A
:1031E000BCFD0121F0E71C21204608F0C7FC15F0CA
:1031F0001FFBBDE8F08100BF0800002430B589B096
:1032000004460D46FFF722FFC0B2FF2804D029462E
:10321000FFF7AAFF09B030BD012D14D00AD3022D4B
:103220001CD00222214601A8FFF78EFF01A806F05C
:1032300073FBEFE70022214601A8FFF785FF01A8F5
:1032400006F06AFBE6E71C22002101A818F0E8FB63
:103250000022214601A806F0C5FBDBE7012221463A
:1032600001A8FFF771FF01A806F056FBD2E70000A6
:103270002DE9F34106460F46FDF7D4FE86422AD2D9
:103280001B4D4FEA061805EB0802D468ACB930466E
:10329000FFF7F0FE06461C2008F03CFC04461C220A
:1032A000002118F0BDFB0097002301223146204683
:1032B00006F0B1FB05EB0803DC600E4B0E491A4625
:1032C000D3F894008842FBD123683FB1A1680B601A
:1032D0004FF44073536102B0BDE8F081E1681B0414
:1032E000F5E71C21204608F049FC15F0A1FA00BFC3
:1032F00008000024006402580003008030B589B043
:1033000005460C46FFF7A2FEC0B2FF2804D02146B6
:10331000FFF7AEFF09B030BD1C22002101A818F054
:103320007FFB294601A806F073FB094B09491A46A1
:10333000D3F894008842FBD1019B2CB103990B6018
:103340004FF440735361E5E71B040499F7E700BFAE
:1033500000640258000300801EF0040F0CBFEFF35E
:103360000880EFF30980816911F8021C002932D12D
:1033700001B590E80F10E047BDE800508CE803006D
:10338000244B93E80600914208BF70471A6041B988
:103390001EF0100F10D1204B186820F001001860AB
:1033A0000AE02CE9F00F1EF0100F08BF2CED108A78
:1033B00081F822E0C1F838C0906B92F8221061F0D9
:1033C000FF0E1EF0100F08BFB0EC108AB0E8F00F2F
:1033D00080F309887047114A13689942FAD801B5F9
:1033E00052F821C00FC8E047BDE80050CCF80000FB
:1033F000704701B501F0D4FBBDE80140EFF3098C43
:10340000BEE701B501F090FBBDE80140EFF3098C88
:10341000B6E700003C0C002434EF00E0D8120608A8
:10342000014608B530B96FF0030000F01DFA6FF0E7
:10343000030008BD132001F0ABFF30B94FF0FF309F
:1034400000F012FA4FF0FF30F3E70020F1E7000040
:1034500008B5EFF305832BB9EFF3108313B9EFF33E
:10346000118333B16FF0050000F0FEF96FF0050035
:1034700008BDDFF808C000DFFAE700BF2134040808
:10348000EFF310832BB9EFF31180003818BF012040
:1034900070470120704710B520B10378F32B01D19C
:1034A000002906DA6FF0030102F05CFA6FF0030006
:1034B00010BD00F10C0353E8000F20EA010243E8BD
:1034C000002404B1F7E7F3E738B50546A0B18468F6
:1034D00002686CB114F0030302D1C1680F2926D829
:1034E00000246FF00801002002F03CFA204638BDAD
:1034F000C368002BF4D11546104BD3F8900078B177
:1035000000F087FC0446A0B10123F322A37000233E
:10351000656022700A4AC4E90233084B5A66E5E73F
:1035200001221021D3F8800000F0FAFBEAE71546EB
:10353000EBE76FF0040102F015FAD7E7280C00243E
:10354000AD350408930710B502F0010422D400F150
:103550000C0384B153E8000F00EA01028A4203D051
:10356000BFF32F8F002005E020EA010243E800248A
:1035700004B1EFE710BD53E8000F084203D1BFF3D9
:103580002F8F002005E020EA010243E8002404B167
:10359000F1E7EFE7C06801EA00031CB1994218BFE8
:1035A0000020E7E7002B08BF0020E3E7F8B5054659
:1035B000846804B9F8BD94F823202846616AA76896
:1035C000FFF7C0FF064638B1204601F062FC00223A
:1035D0003146204601F0F6FD3C46EAE7F8B50D46D7
:1035E00017461E46044620B10378F32B01D100296B
:1035F00007DA20466FF0030102F0B4F96FF0030020
:10360000F8BDFFF79FFF0028FAD186B1314643206D
:1036100001F0BEFE40B1074B20465E69314601F025
:103620001DFC756286F823706FF00100E8E76FF00B
:103630000200E5E7280C002470B5054610B10378B8
:10364000F32B07D028466FF0030102F08BF96FF0DF
:10365000030070BD836863B1284601F011FC0022AD
:103660006FF0020101F0AEFDA8680028F4D101F06E
:103670008FFCAB78002613F001032E700FD0094B9E
:103680002946D3F8904024B1204600F0DCFB3046B8
:10369000DFE7D3F8800000F078FB2046D9E7184632
:1036A000D7E700BF280C00242DE9F041064620B1E1
:1036B0000378F32B01D1002909DA6FF003056FF0CD
:1036C0000301304602F04EF92846BDE8F08100F1D2
:1036D0000C0353E8002F42EA010543E8005000B113
:1036E000F7E7B4681CB9204601F052FCECE794F807
:1036F00023203046616AD4F80880FFF723FF07468D
:1037000078B194F823309B0756BF656A054620EAD6
:103710000505204601F0BDFB00223946204601F098
:1037200051FD4446DEE70000024608B5EFF305838D
:1037300033B100206FF0050102F014F9002008BD3C
:10374000FFF79EFE0028F4D11046DFF808C000DF26
:10375000F5E700BFC9340408024638B5EFF3058326
:103760004BB192B96FF003046FF00301104602F001
:10377000F9F8204638BDFFF783FE0028F1D1104646
:10378000DFF82CC000DF0446F3E71378F32BE9D110
:103790000029E7DB02F10C0353E8000F40EA0104C3
:1037A00043E8004505B1F7E7104601F041FAE0E7CC
:1037B000A9360408024608B5EFF3058323B1104685
:1037C000BDE80840FFF767BEFFF75AFE0028F6D1B4
:1037D0001046DFF808C000DF08BD00BF97340408BA
:1037E00038B504461D46EFF3058343B18CB9204636
:1037F0006FF0030102F0B6F86FF0030038BDFFF779
:103800003FFE0028F2D120462B46DFF824C000DF1F
:10381000F4E72378F32BEAD1002DE8D10029E6DB89
:103820002046FFF78FFE002808BF6FF00200E5E793
:10383000DD350408024608B5EFF305833BB11046B9
:103840006FF0050102F08EF86FF0050008BDFFF77C
:1038500017FE0028F3D11046DFF804C000DFF5E7BB
:1038600039360408704770477047EFF310832BB95F
:10387000EFF31180003818BF012070470120704716
:10388000064BDA6A3AB1D0695B6C1BB11B6998428E
:1038900028BF184670474FF0FF30F5E7280C00248A
:1038A000014BD868704700BF280C002408B5094BAD
:1038B0001A7A022A08D0032A0AD04FF0FF3002F009
:1038C00045F84FF0FF3002E0032200201A7208BDD5
:1038D0000120FCE7280C002470B5464C237A012B0C
:1038E00000F0858033B14FF0FF3002F02FF84FF039
:1038F000FF3070BD404DEB68E3652B8AD5E90B6165
:10390000A4F85430AB683046236400F0F1F908B1F4
:10391000C4F88060D5E90561304600F0E9F908B9DE
:10392000D4F880606667D5E90761304600F0E0F9B9
:1039300008B9D4F88060A667D5E90961304600F07F
:10394000D7F908B9D4F88060E6676E6B3EB131688C
:103950003046D6E9022300F03BFAC4F88460AE6B2F
:103960003EB131683046D6E9022300F031FAC4F89E
:103970008860EE6B3EB131683046D6E9022300F034
:1039800027FAC4F88C602E6C3EB131683046D6E917
:10399000022300F01DFAC4F890606E6C3EB13168ED
:1039A0003046D6E9022300F013FAC4F89460AE6CF6
:1039B0003EB131683046D6E9022300F009FAC4F876
:1039C0009860EE6C3EB131683046D6E9022300F0D3
:1039D000FFF9C4F89C602D6D3DB129682846D5E9F2
:1039E000022300F0F5F9C4F8A0500123237200204F
:1039F0007FE700BF280C00246812060870B5254D2B
:103A00002B7A012B07D06FF006004FF0FF3401F046
:103A10009DFF204670BD01F01FFD10B94FF0FF3033
:103A2000F3E71D4AFF231D4E82F8223092F8223020
:103A3000D26863F0FF031A49C2F302227068DB43C5
:103A400014BFB3FA83F32023C3F12003934298BF3A
:103A5000531CFE2202FA03F30F4ADBB2D37701F0C4
:103A6000D1FF04460028D9D102F024F8286102F0E1
:103A70000DF80C4801F004FA01F082FA3368DB0714
:103A80004CBF0223032383F31488BFF36F8F0223F9
:103A90002B72BEE7280C002400ED00E06812060837
:103AA00003340408440C002408B50A4B1A7A023A7D
:103AB000012A02D840B1012809D04FF0FF3001F0AF
:103AC00045FF4FF0FF3001E002221A7208BD0322C9
:103AD000FBE700BF280C002410B50F4C237A022B03
:103AE00013D101F0DBFF01236372BFF34F8F0B4A49
:103AF0005168C90003D54FF000615160A3720423DF
:103B00002372BDE81040FFF7BBBE6FF0070001F065
:103B10001DFF002010BD00BF280C002400ED00E0B8
:103B200038B51E4C0546237A042B35D1FFF7A8FE85
:103B3000E26AA842034694BF00F1FF332B4612B15C
:103B4000D069C01AD061626C12B11069C01A1061DC
:103B5000E06803440544E360E368AB4213D1022309
:103B60000020237201F014FA00236372BFF34F8F19
:103B7000A27A22B1A3724FF08052094B5A60BDE87D
:103B8000384001F083BF0133E36001F0BFF9236DDA
:103B9000002BE1D09847DFE738BD00BF280C002498
:103BA00000ED00E0704738B504460D46FFF75AFEB9
:103BB00029462046BDE8384001F08ABE08B5FFF727
:103BC000F1FFEFF3058333B16FF0050001F0BEFEA6
:103BD0006FF0050008BDFFF748FE0028F4D1DFF8BC
:103BE00008C000DFF6E700BFD938040808B5EFF3D6
:103BF000058333B16FF0050001F0A8FE6FF00500FA
:103C000008BDFFF732FE0028F4D1DFF808C000DF5E
:103C1000F6E700BFFD39040808B5EFF3058333B1BB
:103C20006FF0050001F092FE6FF0050008BDFFF790
:103C30001CFE0028F4D1DFF808C000DFF6E700BF63
:103C4000AD380408024608B5EFF3058333B16FF0D1
:103C5000050001F07BFE6FF0050008BDFFF705FED3
:103C60000028F4D11046DFF808C000DFF5E700BFF8
:103C7000A93A040808B5EFF305832BB16FF00500EE
:103C800001F064FE002008BDFFF7EFFD0028F5D12C
:103C9000DFF804C000DFF6E7D93A0408024608B5A9
:103CA000EFF305832BB16FF00500BDE8084001F08C
:103CB0004DBEFFF7DAFD0028F5D11046DFF804C04D
:103CC00000DF08BD213B040808B5EFF3058313B1FD
:103CD000054BD86808BDFFF7C8FD0028F8D1DFF80C
:103CE0000CC000DFF6E700BF280C0024A138040850
:103CF00010B598B140EA010313F007030ED117295C
:103D00000AD90160083910220C18426084600B50F7
:103D100081684A60C3600123184610BD0023FBE799
:103D2000F0B580B399B132F003032CD10F3100F11B
:103D3000080521F007072B462D685C68E91A24F076
:103D40000304091B8F4204D929680029F3D10846CE
:103D5000F0BD46683A4304683E444660204450F84B
:103D6000041C08388E4288BF4660586818B903F1B1
:103D700008015A60EBE720F0030019181D504A6053
:103D800019600831E3E70021E1E730B590B1D9B11E
:103D9000A1F1080500F108040022AC420BD151F852
:103DA000043C23F0030443681B1B436042B941F801
:103DB000042C012030BD236822463BB11C46ECE7B1
:103DC00051F8083C1360F4E70846F3E71846F1E7BA
:103DD00030B5C0B189B1C2B1CBB100240160C360BC
:103DE0004361C0E9014202FB01F41D190561184657
:103DF000013904D1A21A99500121084630BD851815
:103E000005602846F4E70146F7E71146F5E719464D
:103E1000F3E7034610B5A8B100F1140252E8000F11
:103E200010B9BFF32F8F04E0016842E8001404B119
:103E3000F4E738B1043353E8002F511C43E8001471
:103E400004B1F8E710BD30B5F0B1C3688B421BD8A0
:103E500003698B4218D900F114031A680A60BFF392
:103E60005F8F53E8002F0C689442F6D143E80015A9
:103E700005B1F2E7043050E8003F5A1E40E8002147
:103E800001B1F8E7002030BD6FF00300FBE7EFF36E
:103E900010832BB9EFF31180003818BF0120704751
:103EA00001207047036B30B5E3B1CD780024DA7898
:103EB000AA420FD31A46C1E901248AB19160A4B184
:103EC0006160283050E8003F5A1C40E8002101B1F1
:103ED000F8E730BD5A681C46002AECD01346E6E7E6
:103EE000C162ECE7C1E90133C1620163E9E7D1E9ED
:103EF000013223B19A608A681AB153607047C26276
:103F0000F9E703637047F8B5877804468FB3C5684F
:103F10000027014605F10C062846FFF7E8FF277049
:103F20003046FFF790FFAB68002B48D03046FFF7D4
:103F300070FF0446002842D0284600F0A1FF064644
:103F40003A46394601F03EF9304601F00FF86A6A08
:103F50000646816804F10C0017F064FCF923A77091
:103F60002370F368E37021462846BDE8F840FFF768
:103F700099BF8568AB68002BF5D05B78832BF2D1B5
:103F8000284600F07DFF06463A46394601F01AF908
:103F9000304600F0EBFF06466A6A04F10C018068C7
:103FA00017F040FCF3680BB1E2781A700023214649
:103FB00005F10C002370BDE8F840FFF744BFF8BDE1
:103FC0002DE9F0410C4617469846054618B103788E
:103FD000FA2B00D141B928466FF0030101F0D8FC5B
:103FE0006FF00300BDE8F0818368C3B15B78832B79
:103FF00015D100F045FF06460122002101F0E2F84C
:10400000304600F0B3FF06466A6A2146806817F022
:1040100009FCF0680028E5D007700020E2E705F110
:104020000C00FFF7F6FE064670B121466A6A0C30B6
:10403000002417F0F7FBF923314628463370B4709B
:10404000F770FFF72FFFE8E7B8F1000F10D04146F7
:10405000932001F09DF940B1074B2846596900F0C3
:10406000FDFEEFF30983C3E902476FF00100B9E7F2
:104070006FF00200B6E700BF280C00242DE9F84FCE
:104080008846074638B131B1B0FA80F3B1FA81F110
:104090000B441F2B06DC6FF003010020002401F00D
:1040A00077FC70E008F1030626F003060C3606FBE9
:1040B00000F9F2B194683CB1A30702D1D368332B65
:1040C00005D86FF00801E8E7D368002BF9D1D2F8E2
:1040D00000A0D2E904533DB115F0030B01D199457D
:1040E00054D96FF00901D8E7002BFAD11CB19B46D7
:1040F0000CE092461546274BD3F8A000D8B1FFF745
:1041000088FE0446A0B14FF0010B35BB214B0022C5
:104110004946D86FFFF704FE0546C0B9BBF1000F52
:1041200006D01C4B2146D3F8A00058B1FFF78BFEF8
:104130006FF00401B1E701223421D3F88000FFF7CA
:10414000EFFDDEE7D3F88000FFF71FFEF0E74BF04E
:10415000020B4A46002117F063FCFA233246394627
:1041600004F10C002370002384F802B0A360C4F8AB
:1041700004A0C4E90983C4E90B332B46FFF728FEEA
:10418000044B054A1A672046BDE8F88F002CE4D19D
:10419000B1E700BF280C0024073F040800F1280302
:1041A00010B553E8002F12B9BFF32F8F04E0511E52
:1041B00043E8001404B1F4E70AB9002010BDC06A56
:1041C00001230028F9D0821CD2E84F1FC2E8443FE7
:1041D00004B1F9E711F0FF0FF0D08068F1E70000BB
:1041E0002DE9F0410F4615469846044618B103786C
:1041F000FA2B00D141B920466FF0030101F0C8FB52
:104200006FF00300BDE8F081FFF7C8FF0646002805
:104210003AD001462046FFF76AFE626A06F10C01B9
:10422000384617F0FFFA0DB1F3782B70002504F132
:104230000C07314638463570FFF705FEA3680BB909
:104240000020DFE73846FFF7E4FD06460028F7D0F8
:10425000204600F015FE07462946012200F0B2FF75
:10426000384600F083FE626A0746816806F10C005A
:1042700017F0D8FAF923B570314633702046FB6841
:10428000F370FFF70FFEDBE7B8F1000F10D04146E7
:10429000832001F07DF840B1074B2046596900F0BA
:1042A000DDFDEFF30983C3E902756FF00100A9E7B3
:1042B0006FF00200A6E700BF280C002408B5064BEB
:1042C00008219A6ED86EFFF7D9FE044BD864B0FA75
:1042D00080F04009404208BD68120608280C0024FE
:1042E0002DE9F04106460F4690461C46EFF3058344
:1042F0004BB196B930466FF0030101F049FB6FF006
:104300000300BDE8F081FFF7C2FD0028F1D130467F
:104310002346DFF848C000DFF3E73378FA2BE9D112
:10432000002FE7D0002CE5D106F10C00FFF771FD5E
:10433000054680B1726A39460C3017F073FAF923DA
:104340002846AC702B7085F80380C5E9017600F033
:104350006FFC2046D5E76FF00200D2E7C13F0408AA
:10436000F8B504460F4616461D46EFF3058343B1E4
:104370008CB920466FF0030101F00AFB6FF00300D7
:10438000F8BDFFF784FD0028F2D120462B46DFF868
:1043900044C000DFF4E72378FA2BEAD1002FE8D0FD
:1043A000002DE6D12046FFF7F9FE054670B100F179
:1043B0000C01626A384617F035FA0EB1EB783370AB
:1043C0002846EC6000F034FC0020D9E76FF00200D2
:1043D000D6E700BFE1410408EFF310832BB9EFF3F8
:1043E0001180003818BF012070470120704700007D
:1043F00070B5A8B38468D0E900566CB114F003031B
:1044000002D1C2681B2A1AD800246FF008010020CC
:1044100001F0AEFA204670BDC368002BF4D1124BF8
:10442000D3F8940030B901221C21D3F88000FFF7A3
:1044300077FC01E0FFF7EDFC044660B10123F522B3
:10444000A3700023E670227065602376C4E902330E
:10445000C4E90433DEE76FF0040101F089FAD9E71B
:1044600005460646DBE700BF280C0024284B70B544
:104470005D6904460E4635B96FF0070101F078FA20
:104480004FF0FF3070BD10B10378F52B07D02046F8
:104490006FF0030101F06CFA6FF00300F2E7037EA6
:1044A00053B9C0E90353EB6A436103B118610123B7
:1044B000EC6200202376E5E7C278D1070DD5C1680C
:1044C000A9420AD1FF2B06D16FF00F0101F050FA7B
:1044D0006FF00200D6E70133EBE7002EF8D0930728
:1044E0000AD5E06895F9203090F920209A4203DA45
:1044F00080F8203000F0D6FC3146532000F048FF11
:1045000018B12946204600F0A9FC6FF00100B9E778
:10451000280C00242E4B5A6970B5044632B96FF04E
:10452000070101F025FA4FF0FF3070BD10B103789C
:10453000F52B07D020466FF0030101F019FA6FF058
:104540000300F2E7037E33B96FF00E0101F010FAB9
:104550006FF00200E9E7C168914202D06FF00D01EF
:10456000F4E7013BDBB2037613BB43690BB101698E
:1045700019612169F1B14B6192F92130D56ADDB938
:1045800082F82030A36883B1204600F079FC06460B
:104590002A46294600F016FEF36AC4E90365636102
:1045A00003B11C610123F4622376002000F0F0FCCB
:1045B0000020BAE7D362DFE7E978890706D5A96862
:1045C00021B191F920108B42B8BF0B466D69D6E737
:1045D000280C002470B5044610B10378F52B07D0E1
:1045E00020466FF0030101F0C3F96FF0030070BDC6
:1045F000037EBBB16369C0680BB122691A6122698D
:1046000002B3536190F92120C36AEBB990F92030CD
:10461000934203D080F8202000F044FCA068F8B951
:1046200000F0B6FCA078002610F001002670DED065
:10463000134B2146D3F89450DDB12846FFF703FC15
:104640003046D4E7C362DDE7D978890706D5996893
:1046500021B191F920108A42B8BF0A465B69D4E7BC
:10466000204600F00DFC00226FF0020100F0AAFDD0
:10467000D4E7D3F88000FFF788FB2846B7E700BFF0
:10468000280C00242DE9F0410446002601270CB92E
:10469000BDE8F081E378D4F814801B0712D5A36835
:1046A00026767BB1204600F0EBFB00220546114642
:1046B00000F088FDEB6AC4E90356636103B11C6135
:1046C000EC6227764446E2E710B4C3789B071DD519
:1046D000C06890F92120C36ADC78A40709D59C68DA
:1046E0008C4208BF8C6824B194F92040A242B8BF24
:1046F00022465B69002BEFD190F92030934205D020
:1047000080F820205DF8044B00F0CCBB5DF8044B32
:1047100070470000024608B5EFF3058333B100206F
:104720006FF0050101F024F9002008BDFFF754FEE9
:104730000028F4D11046DFF808C000DFF5E700BF1D
:10474000F1430408024608B5EFF305833BB1104678
:104750006FF0050101F00CF96FF0050008BDFFF7DF
:104760003BFE0028F3D11046DFF804C000DFF5E778
:104770006D440408024608B5EFF305833BB11046CB
:104780006FF0050101F0F4F86FF0050008BDFFF7C8
:1047900023FE0028F3D11046DFF804C000DFF5E760
:1047A00015450408024608B5EFF305833BB11046F2
:1047B0006FF0050101F0DCF86FF0050008BDFFF7B0
:1047C0000BFE0028F3D11046DFF804C000DFF5E748
:1047D000D5450408EFF310832BB9EFF311800038AF
:1047E00018BF01207047012070470C30D0E85F3FB0
:1047F00013B9BFF32F8F04E05A1EC0E8512F01B147
:10480000F4E798B2003818BF0120704730B500F1C6
:104810000C02C189D2E85F3F994202D8BFF32F8FC3
:1048200004E05C1CC2E8554F05B1F3E7C0899BB2B8
:10483000984294BF0020012030BD0000F8B5154615
:104840004FF6FE73421E06460F469A4201D8884232
:1048500007D26FF003010024002001F08FF82046FA
:10486000F8BD7DB1AC682A6844B114F0030302D1ED
:10487000E9680F2922D86FF00801ECE7EB68002BFC
:10488000F9D11546114BD3F8980080B1FFF7C1FA62
:104890000446A8B10123F622A370002365602270AC
:1048A000A3600B4A094BA781E6819A66D7E70122EC
:1048B0001021D3F88000FFF733FAE9E71546EAE75D
:1048C0006FF0040101F05AF8C9E700BF280C00247A
:1048D000D5480408836810B504465BB1FFF785FF2F
:1048E00040B1204600F0CCFA0022BDE8104011464D
:1048F00000F068BC10BD38B5054610B10378F62B42
:1049000007D028466FF0030101F038F86FF003007C
:1049100038BD84683CB100F0B3FA0122002100F0F8
:1049200051FC0020F4E7FFF771FF38B928466FF01B
:10493000100101F023F86FF00200E9E72046E7E7F5
:1049400038B50D46044610B10378F62B07D0204643
:104950006FF0030101F012F86FF0030038BDFFF7AC
:1049600044FF68B975B12946632000F011FD20B1FC
:10497000064B2046596900F071FA6FF00100EDE72F
:104980000020EBE76FF00200E8E700BF280C0024EE
:1049900070B5054610B10378F62B07D028466FF0A6
:1049A000030100F0EBFF6FF0030070BD836863B19B
:1049B000284600F065FA00226FF0020100F002FCC8
:1049C000A8680028F4D100F0E3FAAB78002613F0D1
:1049D00001032E700FD0094B2946D3F8984024B11B
:1049E0002046FFF730FA3046DFE7D3F88000FFF7C4
:1049F000CCF92046D9E71846D7E700BF280C002499
:104A000010B50446EFF3058333B100206FF00501C4
:104A100000F0B4FF002010BDFFF7DCFE0028F4D149
:104A20002046DFF808C000DFF5E700BF3D48040876
:104A3000024608B5EFF3058343B182B910466FF023
:104A4000030100F09BFF6FF0030008BDFFF7C2FEFB
:104A50000028F2D11046DFF824C000DFF5E7137814
:104A6000F62BEBD10029E9D11046FFF7BEFE002856
:104A700014BF00206FF00200E7E700BF41490408BF
:104A800010B50446EFF3058343B184B920466FF0B7
:104A9000030100F073FF6FF0030010BDFFF79AFEF3
:104AA0000028F2D12046DFF830C000DFF5E7237898
:104AB000F62BEBD12046FFF7A9FE20B1204600F0EF
:104AC000B7F80020E9E720466FF0100100F056FF2C
:104AD0006FF00200E1E700BFF7480408024608B59E
:104AE000EFF305833BB110466FF0050100F046FF80
:104AF0006FF0050008BDFFF76DFE0028F3D11046EA
:104B0000DFF804C000DFF5E79149040810B5D0E8EC
:104B10005F3F5A1C914200D80022C0E8542F04B1D4
:104B2000F5E798B210BD000038B51C4C00F0BCFF92
:104B3000E3680133E36000F0E9F9002000F028FAAF
:104B4000236D03B19847226C32B3A369E16B99429C
:104B500003D0D969E36301B9DA61DA69C2B9237AAA
:104B6000022B19D1656ABDB1E36B95F9202093F949
:104B700020309A4210D1284600F08BF9E06B00F00B
:104B8000A3F9284600F0FCF9236CE563EB6103E030
:104B9000013ADA61002AE2D038BD00BF280C0024B7
:104BA00070B5224C04F1560504F15A06B4F85410BD
:104BB000D5E85F3F13B9BFF32F8F04E05A1EC5E855
:104BC000502F00B1F4E79BB25BB33046FFF79EFF76
:104BD000E36D53F8200020B30378F13B082BE5D8B0
:104BE00001A252F823F000BF0D4C0408AD4B04089D
:104BF000134C0408AD4B0408AD4B0408174C0408D3
:104C00001B4C0408AD4B04081F4C0408236E984746
:104C1000CCE7636EFBE7A36EF9E7E36EF7E7236F7C
:104C2000F5E70020BDE8704000F0B2B9280C002480
:104C300070B5164C0546B4F8541004F15602D2E88B
:104C40005F3F994202D8BFF32F8F04E0581CC2E89F
:104C5000560F06B1F3E79BB2994205D829460220C8
:104C6000BDE87040FEF79FBF04F15800FFF74EFF0C
:104C7000E36D43F82050637A23B9054B4FF080521F
:104C80005A6070BD0123A372FBE700BF280C00240B
:104C900000ED00E0EFF310832BB9EFF31180003843
:104CA00018BF01207047012070470378F12B00D016
:104CB0007047C068F9E7000010B5C469621CD0E90C
:104CC00004310CD103B1596142691AB11361002357
:104CD000436101E0074A13630023C36110BD1BB1A8
:104CE000DA6959612244DA614269002AEED1014A47
:104CF000D362F1E7280C002401230A4A90F920101E
:104D000043701C32936810B51BB193F920408C425C
:104D100005DCC0E90232906003B1D86010BD1A46CC
:104D20009B68F1E7280C0024014B5869704700BFCD
:104D3000280C002408B500F031FEDFF810C000DFB9
:104D40004FF0FF31002000F007FEFEE72D5204086F
:104D5000930710B502F0010422D400F1280384B1B6
:104D600053E8000F00EA01028A4203D0BFF32F8FFD
:104D7000002005E020EA010243E8002404B1EFE747
:104D800010BD53E8000F084203D1BFF32F8F00205E
:104D900005E020EA010243E8002404B1F1E7EFE76F
:104DA000806A01EA00031CB1994218BF0020E7E7BE
:104DB000002B08BF0020E3E7084A0021136B10B561
:104DC0003BB94FF0FF34C0E90431C46121B108613F
:104DD00010BD19461B69F3E71063F9E7280C00249E
:104DE000002310B50380044683789A0708D513F092
:104DF000100F016B0E4B0FD0D3F88400FFF723F890
:104E0000A378DB0712D50A4B2146D3F8880038B1C6
:104E1000BDE81040FFF717B8586FFEF7B6FFEFE791
:104E2000D3F88000BDE81040FEF7AFBF10BD00BF53
:104E3000280C0024C2780346D20701D4FFF7D0BF64
:104E4000042242700022C260034A516B816001B1AA
:104E5000C8605363704700BF280C002491F92020DC
:104E6000836810B51BB193F92040944205DAC1E97B
:104E70000230816003B1D96010BD18469B68F1E72C
:104E800083689A68826002B1D06000221846DA60B6
:104E90007047C2682AB18368936003B1DA60002367
:104EA000C360704710B50146044664B12378F12B06
:104EB00007D00846FFF7EDFF2046BDE81040FFF79A
:104EC000CDBFE468F1E710BD0123014643700148FE
:104ED000FFF7C4BF440C002470B50B4D2E7A022E90
:104EE00010D16C6A74B1696994F9202091F920306D
:104EF0009A4207D12046FFF7CCFF0846FFF7E4FFB0
:104F00006670AC61002070BD280C002438B5164DC9
:104F1000EC6A44B3E369013BE36123BB6378732B21
:104F200006D009D8532B0BD003F0DF03432B0DD150
:104F30002046FFF7BAFE09E003F0EF03832BF6E704
:104F40002046FFF7B2FE2146FFF7BEFB2046FFF7E3
:104F5000A0FFFFF7B9FF246924B1E369002BDDD07E
:104F600000236361EC6238BD280C002490F82230E5
:104F7000826B13F0100F0CBF60202020104470478C
:104F800002234370014B9861704700BF280C002436
:104F900070B5124D04462E7A696990B9022E0FD170
:104FA0006C6A6CB194F9202091F920309A4207DDA7
:104FB0002046FFF76EFF0846FFF79EFE6670AC6165
:104FC00070BD022E05D190F9202091F920309A422F
:104FD000F1DC2046BDE87040FFF776BF280C0024C6
:104FE0002DE9F04F85B08146029128B96FF0030199
:104FF000002400F0B1FCBCE0002A45D0966846B120
:10500000B40702D1D368432B06D86FF00801002003
:10501000EEE7D368002BF8D19769D2E904453CB19B
:10502000600702D1002D40F0B2806FF00A01EEE778
:105030002FB17B1E372B03D96FF00B01E7E7182741
:10504000002D40F0A880D2E900A301934EBB574B3E
:10505000D3F88800F0B1FEF7DCFE064600283AD00F
:105060004FF00108002C44D1DFF840B1E5B9504AB7
:10507000DBF88400556DB8B1FEF7CBFE0246E0B117
:1050800048F01008344623E0924614461827154687
:105090000192DCE701224421D3F88000FEF740FEB4
:1050A000DBE74FF00008DDE722462946DBF8740015
:1050B000FEF736FE02460028E4D1B8F1000F16D004
:1050C000DBF8882052B110463146FEF7BCFE0022C4
:1050D00048F002087CB96FF0040198E73146DBF82C
:1050E00080000392FEF751FE039A1446F0E7424611
:1050F000EEE72246344640F2F1137FB2FD2184F8F8
:1051000002802380019BC4F804A0E370002384F88C
:10511000207084F8217061846563C4E90233C4E9B6
:105120000433C4E90633C4E90933C4E90B32A5F1F9
:1051300040031344C4E90E391E4B13601C4B1B681B
:105140005B071AD4A36B00201A4603F1340143F81D
:10515000040B9942FBD1184B2046C2E90D394FF0A0
:105160008073D363029B1362104B144A1A66FFF7D5
:105170000FFF204605B0BDE8F08FAD084FF0CC33EF
:10518000113D002DDED0013D42F8043FF9E7002F2C
:105190007FF44FAF182769077FF447AFA5F14801A7
:1051A000074B99427FF64FAF3FE700BF280C002422
:1051B00068120608A52E5AE2354D0408E951040884
:1051C000B7FFFF7F38B504461546FFF7CFFE0160F5
:1051D0002046FFF771FD1DB1BDE83840FFF7D8BE8E
:1051E000BDE83840FFF770BE10B543780446332B56
:1051F0000CD1416A90F82320FFF7AAFD014628B19F
:1052000020460022BDE81040FFF7DCBF10BD10B5FE
:105210000446806918B100221146FFF7D3FF637876
:10522000232B02BFA36800229A6110BD70B50F4CFA
:10523000267A022E18D1636AB3B16569E86AFFF76E
:1052400021FA2846FFF7E3FF04F11C00FFF718FEE0
:105250004670A061EFF30983AB63002328466361C6
:10526000BDE87040FFF7E6BD70BD00BF280C00240C
:1052700010B5044610B10378F12B07D020466FF02B
:10528000030100F069FB6FF0030010BD437803F0E9
:105290000F03022B1ED0032B2BD0012B2ED1FFF797
:1052A000F8FDE06AFFF7EEF92046FFF7B0FF6178FE
:1052B000022926D11548FFF7E3FD154B417098618F
:1052C000EFF30982A26300225A612046FFF7B2FD84
:1052D0000020DAE70E4B1A7A022A02D15B6A002B11
:1052E000DFD16FF00201204600F036FB6FF00200C4
:1052F000CBE7FFF7CEFDFFF7DFFCD2E76FF002014F
:10530000F2E70020FFF744FEDFE700BF440C002473
:10531000280C002470B5044620B10378F12B01D18C
:10532000002908DA6FF003056FF003012046FEF74D
:105330009AFA284670BD4378042B06D16FF002011B
:105340006FF00205FEF78FFAF3E700F1280353E848
:10535000002F42EA010543E8005606B1F7E743781B
:10536000332BE6D1416A90F82320FFF7F1FC014688
:105370000028DED094F8233001229B0756BF656ACF
:10538000054620EA05052046FFF71CFFD1E700008F
:1053900038B5174C0246237A022B27D1606A60B1D8
:1053A00060694B1C427009D1FFF706FD1148FFF7F9
:1053B00067FD02234370A061012038BDE36A00222B
:1053C00013B1DD69A9420BD2C161C0E904325AB1FF
:1053D0001061002BEAD0DA695861511AD961E5E70A
:1053E0001A46491B1B69EBE7E062F2E70020E4E79D
:1053F000280C0024440C0024F8B5164B05460F4633
:1054000016465C693CB920466FF00701FEF72BFA9F
:105410004FF0FF30F8BD002807DA20466FF0030197
:10542000FEF721FA6FF00300F4E70A460146204632
:10543000FFF78EFC0028EDD14EB131463320656276
:1054400084F82370FFF7A4FF6FF00100E2E76FF02C
:105450000200DFE7280C002438B50D4C00210D4870
:10546000A26DFFF7BDFD0C4D636EA8625BB198475E
:1054700058B9E26DE96C206EFFF7B2FDA864003800
:1054800018BF012038BD0120FCE70020FAE700BF6B
:1054900068120608C9580408280C002410B50446F0
:1054A000EFF3058333B100206FF0050100F054FAEB
:1054B000002010BDFFF7EEFB0028F4D12046DFF8F6
:1054C00008C000DFF5E700BFE14F040808B5EFF3BF
:1054D000058313B1054B586908BDFFF7DBFB0028B6
:1054E000F8D1DFF80CC000DFF6E700BF280C00247D
:1054F000294D040808B5EFF305833BB100206FF098
:10550000050100F029FA6FF0050008BDFFF7C2FBA6
:105510000028F3D1DFF804C000DFF6E7D94E040815
:1055200010B5044600F046FAEFF305833BB1204680
:105530006FF0050100F010FA6FF0050010BDFFF7E5
:10554000A9FB0028F3D12046DFF804C000DFF5E70F
:1055500071520408024638B5EFF305834BB192B996
:105560006FF003046FF003011046FEF77CF920464C
:1055700038BDFFF78FFB0028F1D11046DFF844C09B
:1055800000DF0446F3E71378F12BE9D10029E7DBCC
:105590005378042B07D16FF0020110466FF002041C
:1055A000FEF761F9E3E702F1280353E8000F40EA50
:1055B000010443E8004505B1F7E71046FFF738FB63
:1055C000D5E700BF1553040810B50446EFF3058373
:1055D0003BB100206FF00501FEF745F96FF00500C3
:1055E00010BDFFF757FB0028F3D12046DFF804C0B9
:1055F00000DFF5E7F95304080C4A30B5536C00247A
:1056000013B11D698D420AD90161C0E902431BB182
:105610001D699860691A19612CB1E06030BD1C46A3
:10562000491BDB68ECE75064F8E700BF280C002456
:105630002DE9F041184D6C6C54B3236901276E6954
:10564000013B2361236913BBE3680BB1A2689A6035
:105650006B64002304F11801E86C1A46FEF740FE63
:1056600058B121460320D5E905836B61FEF79BFA0B
:105670006B6913B9B04508BF0026E378012B09D147
:1056800061692046FFF7B8FF6C6C002CDAD16E61BF
:10569000BDE8F0816770F7E7280C002408B5FEF735
:1056A0000DFE18B9034B044A1A6508BD4FF0FF30D0
:1056B000FBE700BF280C002431560408044607B558
:1056C0004FF0FF33002269462046FEF749FE0028CE
:1056D000F6D1DDE900309847F2E7000008B5094A45
:1056E000094B1A60094B9B1A094A1360094A0A4B75
:1056F0001A600A4B9B1A0A4A136000F051F800F036
:1057000083F800BF00FC0724043B002400000824A9
:10571000003B0024E8FD0024444D002400FC072445
:10572000404D002438B50E480B250E4B1C24456017
:1057300003600D4BC4608360FEF7ECFF0B4B1860F9
:105740000B480C4BC460C0E900350B4B8360FEF77F
:10575000E1FF0A4B1860BDE8384015F065BC00BF9A
:10576000D03A00243C130608E43A0024E03A00242E
:10577000A03A002449130608B43A0024B03A0024A1
:10578000FDF748BC024B4FF0FF311868FEF7DABF57
:10579000E03A0024014B1868FEF7ECBFE03A002421
:1057A00008B504F0FDFB0C4B0C4998684FF0005312
:1057B000C21802F16042126843F8042B8B42F7D101
:1057C000054B4FF000529A6011F08AF912F022FB5B
:1057D000BDE8084000F015B800ED00E09802002098
:1057E0007047704708B500F043F8FFF7F9FFFFF77F
:1057F00099FFFFF7F6FF05F0EBFCBDE80840FFF767
:10580000BFBFFEF7DBB90000114C124B23614FF410
:10581000004363614423E3600F4BA3601823A3613B
:105820000E4B07B5224600210D482360FFF736FED8
:10583000034628B922460B4900900B4805F0D8FCD6
:10584000FEF7D4F9002309491A460093F5E700BF93
:1058500098DC0024985C0024083B002463130608AD
:10586000E5570408681306081D0101808413060823
:105870001FB5064B6C460FCB84E80F002046FEF7A1
:1058800049FF034B186004B010BD00BF9C1306080D
:10589000905C002473B506460C46154605F09AFC4C
:1058A00058B90634324628462ABF054B054953F8F5
:1058B00024100023009305F09BFC02B070BD00BFD4
:1058C00060150608B414060808B500F0F7F80000E3
:1058D000002307B5421E00930023042A19D8DFE8ED
:1058E00002F003080C10140001220C490C4805F0CA
:1058F0007FFC02220B490C48F9E703220B490C48B4
:10590000F5E704220B490C48F1E705220B490C4846
:10591000EDE702460B490C48E9E700BFAC13060867
:1059200025010280CD13060826010280F213060825
:105930002701028027140608280102806214060845
:105940002A010280A2140608000102800146014AD1
:10595000FFF7A0BF31010180014AFFF79BBF00BFE5
:1059600032010180014AFFF795BF00BF3701018076
:10597000014AFFF78FBF00BF3301018011F1110F02
:1059800002D0024AFFF786BF704700BF3401018092
:10599000014AFFF77FBF00BF3801018010B5FFF754
:1059A00095FD034B1B6813B1BDE81040184710BDAF
:1059B0004C3B0024024B1B6803B11847704700BFE3
:1059C0004C3B0024024B987A003818BF01207047E6
:1059D000280C002408B5FEF74DF90022064905F011
:1059E00015FDC31C04D98B220449054805F068F94C
:1059F000BDE80840FEF752B9C55904089B150608D2
:105A0000AD150608B0F57A7F10B50C4604D03222E9
:105A100019491A4805F054F904F008FE0028184AFC
:105A200016DB00F16043F02103F5614383F80013B6
:105A3000916800F1100341F82340BFF34F8F926843
:105A400052F823309C420AD03F220B490D48E1E72F
:105A500000F00F03F021043B13441976E8E7002817
:105A600008DB0123420900F01F0003FA00F0064B97
:105A700043F82200002010BD9B150608DA15060821
:105A800000ED00E0E715060800E100E008B505F0CC
:105A900045FCBDE8084004F0F4BE0000014B186866
:105AA00004F024BF704C0024014B186804F0E0BEE1
:105AB000704C002408B504F0B9FD08BD024C08B5CF
:105AC00023689847FCE700BFCC0C002403680BB1A7
:105AD000084618477047CB68C3600BB15B6818472E
