:020000021000EC
:1000000000FE0720A5640100D1620100498B0100B8
:10001000A1640100A1640100A1640100A1640100C8
:10002000000000000000000000000000A1640100CA
:10003000A164010000000000A1640100A1640100AE
:1000400000000000000000000000000000000000B0
:1000500000000000000000000000000000000000A0
:100060000000000000000000000000000000000090
:100070000000000000000000000000000000000080
:100080000000000000000000000000000000000070
:100090000000000000000000000000000000000060
:1000A0000000000000000000000000000000000050
:1000B0000000000000000000000000000000000040
:1000C0000000000000000000000000000000000030
:1000D0000000000000000000000000000000000020
:1000E0000000000000000000000000000000000010
:1000F0000000000000000000000000000000000000
:1001000000000000000000000000000000000000EF
:1001100000000000000000000000000000000000DF
:1001200000000000000000000000000000000000CF
:1001300000000000000000000000000000000000BF
:1001400000000000000000000000000000000000AF
:10015000000000000000000000000000000000009F
:10016000000000000000000000000000000000008F
:10017000000000000000000000000000000000007F
:10018000000000000000000000000000000000006F
:10019000000000000000000000000000000000005F
:1001A000000000000000000000000000000000004F
:1001B000000000000000000000000000000000003F
:1001C00010B5054C237833B9044B13B1044800E053
:1001D00000BF0123237010BD0012002000000000AA
:1001E000F0B6020008B5034B1BB10349034800E019
:1001F00000BF08BD0000000004120020F0B602009D
:1002000010B50C4C204600F03FFA0021232008F0E6
:10021000FFFC4FF4FA7008F0EFFD0121232008F0F5
:10022000F7FC204600F096FABDE81040024801F0C5
:10023000B2BB00BF1C1200206812002008B50448A1
:1002400000F088FABDE80840024801F0A4BB00BFF6
:100250001C120020681200207FB501210223002219
:10026000CDE903310A23CDE901320C230A4800937A
:100270004FF4FA6301F0D0F9084801F064FB084834
:1002800000F090F8074800F0AFF9074807B05DF8B4
:1002900004EB00F0C3BA00BF28120020681200204F
:1002A000E81200201C12002024120020014801F056
:1002B0008CB900BF2812002070B5A4B004AD284648
:1002C00001F041FB294680222348244C11F058FEBE
:1002D000214801F06CFB284600F064F895E80F0017
:1002E00002AE84E80F001E4D204600F09FF8214624
:1002F000304600F0C1F896E8030085E80300204688
:1003000000F0C2F8174C2060284600F0BDF92046E6
:1003100000F087FA0121232008F062FC124801F066
:100320002DFA114801F0B8FA18B910490E4801F039
:10033000B5FA00220E4B1146009309480A2300F03B
:1003400061F9084800F06DFA4FF4E13109480DF009
:1003500074FF24B070BD00BF68120020E8120020B6
:100360001C120020241200207024002028120020DB
:1003700001020100286100207047704710B5044653
:1003800010210EF009FD204610BD10B504460722CD
:100390009C2100F081FB204605229E2100F07CFB81
:1003A00010BDFFFF70B504461B4DD5E88F3FDB073E
:1003B00011D428460EF002FB68B1184E08221849E5
:1003C000304600F00BFB174B284633600EF012FB53
:1003D000154808F0B5FC0C200EF0D2FA05460F497E
:1003E00000F02EFAE56008200EF0CAFA0546E16832
:1003F00000F0FBF8656004200EF0C2FA0546E168E3
:1004000000F00DFAA56004200EF0BAFA054600F0DF
:1004100083F82560204670BDF8120020FC120020F1
:10042000F41F0020849D02007B03010010B50446E8
:1004300086B00F4903A807F0E1FFE06800F008FA72
:100440000A220146684607F0F8FF694603A808F04B
:1004500027F80146074807F03BFF684607F083FF8F
:1004600003A807F080FF206800F05CF806B010BD1C
:10047000909D02002861002003464A6892E803002C
:1004800083E803001846704783681868704770B5A2
:1004900004460D4603683621DB6A984723682946DF
:1004A0001B6820469847236820465B6B9847236863
:1004B00002223621DB6B20469847236820465B6981
:1004C0009847236805465B69204698470646236897
:1004D00020465B6B984745EA062080B270BD70B538
:1004E00004460E46154603683621DB6A98472368A2
:1004F00031461B68204698472368290A1B68204616
:1005000098472368E9B21B6820469847236820462D
:10051000BDE870405B6B1847014B0360704700BF3C
:10052000F41F002038B5002104460068FFF7AFFF34
:1005300083074ED52749284807F0D4FEBA21206802
:10054000FFF7A5FF0546902260212068FFF7C7FF4F
:100550000022BA212068FFF7C2FF00226021206834
:10056000FFF7BDFF1D491C4807F0BCFE4FF41642C3
:100570003A212068FFF7B3FF4FF4C87218212068B2
:10058000FFF7ADFF40F286221E212068FFF7A7FF8C
:100590001349114807F0A6FE4FF40042DB21206802
:1005A000FFF79DFF2A46BA212068FFF798FF2468CD
:1005B00000212046FFF76BFF4FF6FD72002102403D
:1005C0002046FFF78CFFBDE838400649024807F097
:1005D00089BE38BDAE9D020028610020C09D02008A
:1005E000DB9D0200F99D0200704738B504460160AA
:1005F00080200EF0C5F9054601F0A5F9656020469A
:1006000038BDFFFFF0B5A3B002A80C4617461E4642
:1006100000F0CAFF02A91B4801F0BBF8054650B321
:1006200002A801F072F83C224FF461637A4303FBA5
:1006300004223244831841EBE27412A81A4623467E
:1006400001F05DF801A800F073FF01A800F074FF4D
:1006500001A800F076FF01A800F078FF01AB12AA14
:100660002899084801F0AAF8054601A800F063FFA0
:1006700012A800F0AAFF02A800F0A7FF284623B0A6
:10068000F0BD00BF7024002010B50446006800F0E3
:1006900033F90522482100F046F9206800F02CF9D2
:1006A000002100F068F9206800F026F9022100F02E
:1006B00062F9206800F020F9012100F05CF920685F
:1006C00000F01AF9002100F060F9206800F014F938
:1006D000022100F05AF9206800F00EF9012100F023
:1006E00054F9206800F008F9002100F058F920685A
:1006F00000F002F9022100F052F9206800F0FCF845
:10070000012100F04CF9206800F0F6F8002100F01B
:100710005AF9206800F0F0F8022100F054F920683E
:1007200000F0EAF8012100F04EF9206800F0E4F84A
:10073000002100F03EF9206800F0DEF8022100F010
:1007400038F9206800F0D8F8BDE81040012100F029
:1007500030B9FFFF10B50446006800F0CDF8002165
:1007600000F00EF9206800F0C7F8022100F008F947
:10077000206800F0C1F8012100F002F9206800F0C3
:10078000BBF8002100F006F9206800F0B5F802215E
:1007900000F000F9206800F0AFF8012100F0FAF84D
:1007A000206800F0A9F8002100F0FEF8206800F0B1
:1007B000A3F8022100F0F8F8206800F09DF801216C
:1007C00000F0F2F8206800F097F8002100F000F93E
:1007D000206800F091F8022100F0FAF8206800F09B
:1007E0008BF8012100F0F4F8206800F085F8002172
:1007F00000F0E4F8206800F07FF8022100F0DEF855
:10080000206800F079F8012100F0D8F8BDE8104028
:10081000014800F0C5B900BFF41F00207047016017
:10082000704710B5044601228921006800F01EF8C7
:100830008921206800F03CF8431E5842584110BD01
:1008400010B5044600F06AF800232046A36010BDEE
:1008500010B50446806810B1034907F043FD2046F7
:10086000BDE8104000F05CB8489E020070B5044638
:1008700080680D46164680B10B4907F01AFD10221C
:100880002946A06807F063FD0849A06807F011FD3C
:1008900010223146A06807F05CFD3246294620460A
:1008A000BDE8704000F042B8209E0200419E020068
:1008B00037B504460DF107020D4600F059F8A0685F
:1008C00088B10B4907F0F5FC10222946A06807F013
:1008D0003EFD0849A06807F0ECFC10229DF80710C7
:1008E000A06807F036FD9DF8070003B030BD00BFDB
:1008F000FE9D0200419E02007047FFFF10B5044CB0
:1009000008220449204600F069F8034B236010BD1B
:100910000C130020F41F0020849D0200016070472A
:10092000006800F065B8006800F0DAB870B50446F9
:1009300040680D46164680B10B4907F0BAFC1022FC
:100940002946606807F003FD0849606807F0B1FCBC
:1009500010223146606807F0FCFC324629462068C8
:10096000BDE8704000F07EB8559E0200419E020036
:10097000006800F051B80A4600684D2100F08CB8BC
:100980000A4600684D2100F0ABB80A4600685021C5
:1009900000F082B80A460068502100F0A1B80A466B
:1009A0000068532100F078B80A460068532100F02F
:1009B00097B80A460068352100F06EB80A4600680C
:1009C000352100F08DB80A4600683B2100F064B87C
:1009D0000A4600683B2100F083B8FFFF0272002244
:1009E00010B5024CC260C0E9004110BD849E0200F7
:1009F00010B5044640680368DB699847606805499C
:100A000003689B6A984723682046BDE810409B68AE
:100A1000184700BFA086010070B504460E46406826
:100A2000217A03681546DB6A984760683146036897
:100A30001B6898476068002103681B6B98476068D3
:100A4000217A03689E6B01231A46B04760680368E9
:100A50001B6998470028F9DD606803685B6998475F
:100A6000287070BD70B504460E4615464068217A60
:100A70000368DB6A98476068314603681B689847DB
:100A80006068294603681B68984760680121BDE8D3
:100A9000704003681B6B1847072A73B505460E465E
:100AA000144605D90B4B0C4A48210C4805F0D4FBE1
:100AB0000DF10702FFF7B0FF01229DF80730A240B9
:100AC0001A43D2B2314628468DF80720FFF7CAFFF5
:100AD00002B070BD909E02002A9F02009C9E020000
:100AE000072A73B505460E46144605D90C4B0D4A28
:100AF00052210D4805F0B0FB0DF10702FFF78CFF06
:100B0000012202FA04F39DF80720314622EA03028B
:100B100028468DF80720FFF7A5FF02B070BD00BF83
:100B2000909E0200009F02009C9E020000207047E1
:100B300003681B78092B0BD80A4A52F823303BB1C3
:100B40001A7F2AB10279012A03D1032283F82E20C9
:100B50007047022A01D10122F8E7032AF8D10222C4
:100B6000F4E700BF6424002003681B78022B0BD835
:100B70000A4A52F823303BB11A7F2AB10279012A7E
:100B800003D1032283F82E207047022A01D10122CB
:100B9000F8E7032AF8D10222F4E700BF3C24002042
:100BA00010B5037F044633B1437F3BB1D0F81C310D
:100BB0000BB13C3098470023237710BDD0F830317B
:100BC000002BF8D0A430F5E7036801211B6B184710
:100BD00010B403689C6B0123A4465DF8044B604786
:100BE00007B5037F8DF8071063B1437FC3B190F859
:100BF0002C309BB1D0F83834FE2B07D9012380F874
:100C00002D304360002003B05DF804FB9DF8071011
:100C1000C218013382F83312C0F838340120F2E7E9
:100C2000D0F82831002BF9D001220DF10701A430B2
:100C30009847F3E7C0F840147047C0F84414704771
:100C400090F83C34D0F83404C01A7047024690F84B
:100C50003C34D0F834148B423FBFC118013391F8B3
:100C6000320382F83C3428BF4FF0FF30704790F8D1
:100C70003C34D0F8342493423ABFC01890F8320381
:100C80004FF0FF30704790F82E30022B03D090F8D1
:100C90002E30032BF7D17047F8B5037F04460D467D
:100CA000164693B1437F4BB18F18BD420BD02368DA
:100CB00015F8011B1B6820469847F6E7D0F8283145
:100CC0000BB1A43098473046F8BD1E46FBE7FFFF46
:100CD00038B5037F04460D4633B1437F23B1D0F8C6
:100CE0001C310BB13C309847637FD3B12E4B94F845
:100CF0002410C4F880501A6A51B30F23002284F8DC
:100D000033300123294984F831208D4284F834306E
:100D100015D10E2384F83030FF2384F82F2084F877
:100D20003230237F53B1D4F800313BB104F17C0160
:100D300004F13C00984708B10023237738BD022214
:100D400084F83020CC2284F82F3084F83220E8E771
:100D5000174BC2F302601B68C2F302328340D340D8
:100D6000144A1548B3FBF2F3854203F1FF320CD06D
:100D7000124A95420FD00D4A9542D2D141F61A320D
:100D80000133228784F83730CBE741F20F0384F830
:100D900037202387C5E7062384F83930052384F8F4
:100DA000371084F83830BCE700E00140A08601002D
:100DB000C8260020006CDC02801A060040420F00AA
:100DC00017B4D0F8243101914BB1016900F59A7440
:100DD000019A2144A43003B05DF8044B1847012068
:100DE00003B05DF8044B70477FB543680193036817
:100DF0001A78022A46D81A783B4B53F82240002C26
:100E000040D0237F002B3DD0037A012B03D1032355
:100E100084F82E3036E0022B1DD1012384F82E30C9
:100E2000019E04F59A753246294604F2323011F0DB
:100E3000A7F80021C4F83464216184F83C14FF222F
:100E4000284611F075F9D4F84034DBB1019804B0AC
:100E5000BDE870401847032B01D10223D8E7042BCB
:100E600012D184F82E302369019A1344FE2B2DD819
:100E700001212046FFF7A4FF0290029B13B92369CA
:100E80000133236104B070BD052B09D184F82E30E5
:100E9000D4F84434002BF5D004B0BDE870401847B6
:100EA000062B18D1042384F82E302369019A1344A9
:100EB000FE2B0BD801992046FFF782FF0390039B7E
:100EC000002BDFD1019A23691344DAE70021204681
:100ED000FFF776FFD6E7072B01D10523D6E7082BCE
:100EE000D0D1062394E700BF3C240020F0B580F861
:100EF00025309DF8143000254FF47A76C0E90512AC
:100F000080F83D340122DF231D4FC0E90156076000
:100F100005610577427780F82450866280F82C506E
:100F200080F82D50C0F80051C0F80451C0F80851A5
:100F3000C0F80C51C0F81051C0F81451C0F8185145
:100F4000C0F81C51C0F82051C0F82451C0F82851F5
:100F5000C0F82C51C0F83051C0F83454C0F838549F
:100F600080F88A3080F88B3080F88C3080F88D30B3
:100F700080F8E43080F8E53080F8E630F0BD00BF5E
:100F80005C9F02002DE9FF4143690446002B03DA10
:100F9000002004B0BDE8F0818269002AF8DB8B42B2
:100FA000F6DA8A42F4DAD9B20222684602AE0DF0CD
:100FB00077FC30460322217E0DF072FC00200025D4
:100FC0003DF810108B1109B336F81520F2B183EA01
:100FD0009217FF061AD181EA0207FF0716D403F021
:100FE0001F0312F00100236217D1022BD0DCA3698A
:100FF0001D4D84F8240035F833101C4A1C4802F0BB
:101000004FFF6369194A35F8331028E00135032D85
:10101000D9D101300328D2D1BAE7092BB8DC12F4B8
:10102000F04F4FF001050CBF4FF080624FF0A0620F
:1010300011F4F04F0CBF4FF080684FF0A068A36927
:101040000C4F094E84F8245036F833103A430848C0
:1010500002F026FF636948EA070236F833100448B5
:1010600002F01EFF012094E704A202001004010711
:1010700058620020100001007FB501250577044665
:1010800000F0A3FC01462046FFF77CFF237F1840B9
:101090002077002800F09580637F002B00F08C8083
:1010A00023686E499B6A2046984794F82430226A48
:1010B000002B5AD06A4B43F822406A4BC4F80031E7
:1010C000694BC4F80431694BC4F80831684BC4F863
:1010D0000C31684BC4F81031674BC4F81431674BBE
:1010E000C4F81831664BC4F81C3104F12F03C4F85E
:1010F000A030644BC4F89830236A584A84F87C3096
:101100000023C4E9202394F82520C4E924339A421B
:1011100004F17C030CBF01220222C4F89C300C2392
:1011200084F8882084F88930637F002B00F0858064
:10113000236A04F13C058DF80C3094F8243004F156
:101140007C0601950296002B72D005F0D3FB062198
:1011500001AA05F0F9FE237F314618402077284682
:10116000D4F80031984750BB2BE0474984F83550FC
:1011700041F82240454A84F83630C4F80021444AF8
:10118000C4F80421434AC4F80821434AC4F80C2196
:10119000424AC4F81021424AC4F81421414AC4F812
:1011A0001821414AC4F81C2104F13502C4F8A020DA
:1011B0003E4AC4F898209FE794F824301BB10023DE
:1011C000237704B070BD304A216A84F8E33042F8D6
:1011D0002140374A84F8EA30C4F82021354AC4F85F
:1011E0002421354AC4F82821344AC4F82C21344A31
:1011F000C4F83021226A84F8D820184AC4F8DC20C8
:10120000B4F8F820A4F8E02094F82520002A0CBFB8
:101210000122022284F8E22040F60C42A4F8E820E1
:10122000284AC4F8EC2004F1D802C4E93C237BE747
:1012300005F060FB01AA05218BE704F1D80505F054
:1012400059FB07212A4605F07FFE237F29461840D7
:101250002077D4F8203104F1A40083E7A0860100B0
:1012600064240020BD2E0100CD2D0100E12C0100E1
:10127000E12B0100092C0100152C0100252C010097
:101280003D2C0100310B01003C240020914A01005B
:1012900071480100A5480100A14B0100F946010079
:1012A0000547010015470100ED4B0100690B0100E6
:1012B0003D410100493F0100813F0100B53F010070
:1012C000C53F0100E90D0100002203684277A0F844
:1012D000F810DB6918470022A0F8F8104277FFF7F2
:1012E000F3BF2DE9F8431F46037F044691462BB315
:1012F000D0F8103153B300F13C0890F888204046F4
:101300009847054668B9D4F8046156B19DF8243071
:1013100084F82E0083F001033A4649464046B04720
:10132000054607F0A3FD089BC61807F09FFDB042D5
:1013300004D294F82E300BB9002DF6D094F82E304C
:10134000012B0CBF38460020BDE8F8830125E8E7F3
:101350002DE9F8439946037F04469046002B39D087
:10136000D0F8103123B300F13C0790F888203846BC
:101370009847054668B9D4F8086156B19DF82430FD
:1013800084F82E0083F001034A4641463846B047B0
:10139000054607F06BFD089B1E1807F067FD8642A7
:1013A00008D994F82E302BB9002DF6D004200FE088
:1013B0000125EEE7002DF9D194F82D3063B994F8AA
:1013C0002E305BB194F82E30032B14BF0020022086
:1013D000BDE8F8830620FBE70120F9E70520F7E7E1
:1013E00037B590F8FC5090F838340191826A29465C
:1013F000009200F233220446FFF7AAFF002384F88C
:101400002C3003B030BD037F4BB10023012280F8A4
:101410002D30C0F8FC1080F82C20C0F8383470470C
:10142000FFF7F1BF2DE9F3411646027F04460F4650
:1014300098469DF82050002A31D0B5B10368DB6A88
:101440009847032D28BF0325013DEDB2FF2D2368EA
:1014500007D0E90028FA01F11B68C9B22046984775
:10146000F2E71B6B0021204698479DF82430FF2EA1
:1014700028BFFF26003318BF01230193A36A04F29B
:10148000323200933946F3B22046FFF72AFF002399
:10149000C4F8340484F83C3402B0BDE8F08110464E
:1014A000FAE707B5019300230093FFF7BBFF03B0F2
:1014B0005DF804FB13B500240B22234600940C2195
:1014C0000C48FFF713FD23460094252226210A48E5
:1014D000FFF70CFD23460094272228210748FFF739
:1014E00005FD00942346602261210548FFF7FEFCBC
:1014F00002B010BD1C13002064170020AC1B00209C
:10150000F41F0020037810B504461BB9064B1B6876
:1015100003B198472378012B05D1044B1B6813B105
:10152000BDE81040184710BD742400207824002026
:101530000022026070477047036843F001030360B4
:101540007047036843F0020303607047036843F089
:10155000040303607047FFFF0138C0B20A289ABF36
:10156000014B185600207047A49F02000138C0B2FA
:1015700005289ABF014B185600207047AF9F020004
:101580000369013B0A2B9ABF014AD05C00207047D7
:10159000B59F02008369013B052B9ABF014AD05CCD
:1015A00000207047C09F020001224FF4FA6142629E
:1015B0000022C0E90B12062180F82820C0E90D2284
:1015C00080F83C1080F83D20704770474B1E1E2B62
:1015D0009DBF4162C160012000207047024608B5EE
:1015E00080F828100846FFF7B7FF1061012008BDFA
:1015F00040F26B739942C8BFA1F26C71C162416144
:1016000001207047024608B580F83C100846FFF7F5
:10161000ADFF9061012008BD2DE9F84F0446DDE9DA
:101620000A878B46924699460C9E9DF83850FFF7E4
:10163000BBFF59462046FFF7C9FF51462046FFF73A
:10164000CDFF49462046FFF7D3FFB8F1170F9CBFE7
:10165000C4F83080C4F808803B2F9CBF6763676084
:101660003B2E9CBFA66326609DF834102046FFF7F2
:10167000C9FF84F83D50003518BF0125204625627A
:10168000BDE8F88F38B50D46C9680446FFF79EFFE0
:101690002846FFF775FF01462046FFF79FFF69695F
:1016A0002046FFF7A5FFAB682846172B9CBF236396
:1016B000A3606B683B2B9CBF636363602B683B2B11
:1016C0009CBFA3632360FFF765FF01462046FFF739
:1016D00099FF2B6A003318BF012384F83D30236241
:1016E00038BD13B5044602A860E902230FF0E8FFF5
:1016F00001462046FFF7C6FF012002B010BD10B51D
:101700000446FFF7EEFF204610BD10F063BEFFFF5A
:10171000064808B5036833B9054902F083F8B0FA02
:1017200080F0400908BD0120FCE700BF7C240020B8
:10173000F006002007B5064801A901F06FFE9DF8EC
:101740000500431E5842584103B05DF804FB00BF3A
:101750007C24002010B58AB0044601A9064801F097
:10176000B5FE38B9242201A9204610F009FC012059
:101770000AB010BD0020FBE77C24002010B5044611
:10178000FFF7C6FF18B101232370207810BD207029
:10179000FBE730B503788BB00D461BB9002420461B
:1017A0000BB030BD01A8FFF7D5FF04460028F5D0E7
:1017B00001A92846FFF766FFF1E7FFFF2DE9F04199
:1017C00000269846304F314B0078A2B08DF8086063
:1017D00000930197002854D014462D4B03ADFB60B5
:1017E0002C4B8DF8556019600FCC0FC50FCC0FC571
:1017F000236803A924220CA82B608DF854608DF86F
:1018000056608DF857608DF858608DF859608DF8E6
:101810005A6010F0B5FBD8F8003003F001028DF8E3
:101820005420C3F340028DF85520C3F380028DF895
:101830005620C3F3C0028DF85720C3F300128DF871
:101840005820C3F34012C3F380138DF859208DF84C
:101850005A3005F04FF86A46314605F075FB80B105
:1018600017AD0CAC0FCC0FC50FCC0FC594E807001B
:1018700085E8070017A9384602F01CF8B0FA80F096
:10188000400922B0BDE8F0817C240020F006002051
:101890000515010074240020FFF74CBF70B50078D7
:1018A00092B0A8B10C4609AD0FCC0FC50FCC26687D
:1018B0006C460FC52E6009AD0FCD0FC40FCD0FC400
:1018C00069460448266001F011FFB0FA80F0400933
:1018D00012B070BD7C2400200022014B1A707047AA
:1018E0007024002038B590F87D3004460D4653B181
:1018F000D9B190F87E30B3B994F87E30C3B104F119
:101900000C0002F033F9ADB104F1480104F10C0010
:1019100002F0AEF9012384F87E30002384F87F3092
:10192000012384F87D30012038BD90F87F30E2E754
:10193000201DE6E704F11801201D02F099F984F852
:101940007E500123EAE70022022130B580F87C2096
:1019500080F87D2080F87E2080F87F2080F8481075
:101960004FF40044002580F8642080F8672080F858
:10197000652080F866204FF4004180F8342080F81C
:10198000372080F8352080F836200322C0E914453E
:101990008166027630BD10B500210446FFF7A2FF34
:1019A0000323201D2376BDE8104002F06DB94FF4EB
:1019B00000234FF0807283630023C0E9082370473F
:1019C00008B507F005FA002008BD7A207047FFFF30
:1019D00008B51A494FF4C06007F0FEF90320002350
:1019E000174A9178137060F3020191705178137166
:1019F00001F0F80163F306115170124953719371AC
:101A00000B700B72C1E90533CB604FF603730120F5
:101A10000B82DF23D07048600B48CA618B7404F0DE
:101A20002FFA50B9084804F0B5F930B9064804F067
:101A3000FDF910B90222054BDA7008BD0000010162
:101A4000D024002094240020B4240020CC260020A0
:101A500008B5FFF7BDFFBDE808400021232007F0CF
:101A6000BFB8FFFF84460B79144ADB01DBB230B507
:101A700093714B7891F802E01B014FEA0E3E0EF491
:101A8000405EDBB243EA0E030D4D91F800E00D4CD1
:101A900015F80E5091F803E005F003054FEA0E2EFD
:101AA0000EF4407E43EA0E032B4353804B79002013
:101AB000DB01DBB21372CCF8004030BD00340840CB
:101AC000D4A50200544457000020FF22014B187097
:101AD0001A7070470034084030B5836A85B00446F8
:101AE0008C4601ADABB193E8070085E8070062685A
:101AF0001846117883F804C0E26A19609A60636A34
:101B00009847A36A1BB195E8070083E8070005B072
:101B100030BD2B46EBE700BF10B4EFF30383103B5F
:101B2000214A5BB203F1C00152F821001F4C6FF350
:101B3000104042F8210054F82330D3E906218A42AC
:101B40001BD0186938B393F820400F2C0BD9996833
:101B5000496840F82210D96901328A429A610CD052
:101B60005DF8044B7047072C18D89968097981549F
:101B7000D96901328A429A61F2D101225B680C492B
:101B800093F903305DF8044B03F01F0082405B09BA
:101B900041F82320704798684068DDE79C68A48876
:101BA00020F81240D8E700BF006000403C2500202C
:101BB00000E100E0F0B5EFF30383103B30495BB286
:101BC00003F1C00251F822002E4C6FF3104041F88F
:101BD000220054F823305868026A002A31D092F863
:101BE00001C0DC69BCF1010F5A6918D0944210D0D1
:101BF000D96849B393F820000F280BD8072898BF5D
:101C0000895C98688ABF31F81210017181800132B5
:101C10005A61F0BD986851F822104160F7E704F16D
:101C2000FF3E724513D001690029DFD090F903000F
:101C3000154D00F01F010CFA01F1400945F8201084
:101C4000D4E75A69DC69D1E798684160DFE790F929
:101C500003E00EF1C0064FEA5E1051F826708000D6
:101C60000EF01F0E00F160400CFA0EF500F5614019
:101C70006FF3104741F82670C0F880510560B5E752
:101C8000006000403C25002000E100E010B4EFF3CC
:101C90000383103B324A5BB203F1C00152F82100CA
:101CA000304C6FF3104042F8210054F82300826852
:101CB000D278920706D54268527A012A02D05DF89E
:101CC000044B70470122284C590903F01F032031AF
:101CD00002FA03F344F82130BFF34F8FBFF36F8F45
:101CE000436893F90230002B2FDB590903F01F03DF
:101CF00002FA03F3203144F82130BFF34F8FBFF3D2
:101D00006F8FD0E90114237891F902106FF38613D5
:101D10000029237014DB124C01F1C00C4B0901F0B7
:101D20001F018A409B0054F82C1003F1604303F517
:101D300061436FF3104144F82C10C3F880211A60FE
:101D400001215DF8044BFFF7C7BE826801211378BB
:101D50005DF8044B6FF386131370FFF7BDBE00BF31
:101D6000006000403C25002000E100E070B5EFF38A
:101D70000384324B103C64B253F82460736893F9C7
:101D80000230002B42DB01202D495A0903F01F03CA
:101D9000203200FA03F341F82230BFF34F8FBFF334
:101DA0006F8FD6E9012392F902101A7800296FF398
:101DB00086121A7015DB234D01F1C00C4A0901F09F
:101DC0001F0100FA01F1920055F82C0002F1604267
:101DD00002F561426FF3104045F82C00C2F8801103
:101DE00011600021DA78D970D5B2120721D4EB073F
:101DF00012D405F01405142D16D0124BC03453F82C
:101E000024206FF3104243F8242070BDB3681A7881
:101E10006FF386121A70E4E70421304605F01405CA
:101E2000FFF75AFE142DE8D108213046FFF754FE83
:101E3000E3E705213046FFF74FFED8E73C250020B9
:101E400000E100E00060004030B5D0F83C5285B0C1
:101E5000DDB1D0F8403204468C46C3B193E80700A8
:101E60000DF1100E0EE907009CE8070083E807005B
:101E7000D4F8442218469A60A847D4F8403223B1D7
:101E800004AA12E9070083E8070005B030BD0B463D
:101E9000EEE700BFF0B585B0EFF303840022454BB9
:101EA000103C64B253F82460CDE90122336A0392F6
:101EB000196948F27F3062F3000119619A6BDD6B9A
:101EC00002F00502D14305409963E943D00742EA95
:101ED0000545D96311D50821ADF804101969C90564
:101EE0004CBF996A996902911968262952D0196CD8
:101EF00021F0040141F0010119642F4F2F4077BBFD
:101F0000530712D4736A1D43B37F75621BB1BDF8CA
:101F10000430002B49D1294BC03453F824206FF3EF
:101F2000104243F8242005B0F0BD96F82830012B6C
:101F3000E8D0736886F828705B68C6E90C779A6801
:101F40001868F7621369B7639847BDF8043043F027
:101F50002003ADF80430336AC3F8B071D2E7012230
:101F600000271A61736886F828705A68BDF8043033
:101F7000C6E90C7743F04003ADF80430936810686D
:101F80001B69F762B7639847336A45F40005C3F8E5
:101F9000B071B7E7D96B01F4814180290CBF88216A
:101FA0004FF48471ADF80410A7E7304601A9FFF79C
:101FB0004BFFB0E73C25002000007F800060004020
:101FC000002230B585B0CDE901220392EFF30384FE
:101FD000154B103C64B253F82400056AAB6B13F444
:101FE000847F03D082770122ADF8042013F4047FAC
:101FF00005D0BDF8042042F00202ADF8042003F43D
:102000004673DB43D0F8442201A9AB630392FFF788
:102010001BFF064BC03453F824206FF3104243F8E3
:10202000242005B030BD00BF3C25002000600040EA
:10203000F8B504460D46036A8078997800F0030CE1
:1020400001F07B019970E169A2EB0C020E6905EBCE
:102050000C012261E16076B16AB10CF1FF3C22FA19
:102060000CF293B20022B7683068BE682261B047B4
:1020700060B9236AA0789A7800F0030042F08002E9
:1020800002289A7003D000202A78DA70F8BD2A88D6
:10209000002042F47E42DA81F8BD00BF70B586466A
:1020A0000024DEF820304D7893F802C00A780CF056
:1020B0000B069E70CEF80C4020468C7802F05C0235
:1020C0005C7093F800E00CF07B0C65F3010E83F874
:1020D00000E0C9789974D97901F0A3010A43DA7153
:1020E00083F802C070BD00BF10B500220446012372
:1020F000006A62608270E2692E4992F905205009F7
:1021000002F01F0203FA02F2203041F82020BFF350
:102110004F8FBFF36F8FE26992F90B20500902F0E5
:102120001F0203FA02F2203041F82020BFF34F8F44
:10213000BFF36F8FE26992F90720500902F01F0286
:1021400003FA02F2203041F82020BFF34F8FBFF393
:102150006F8FE26992F90920500902F01F02934043
:1021600000F1200241F82230BFF34F8FBFF36F8F91
:10217000E369DA6822B1936810681B6A9847E369DB
:102180001B691BB19A681868136A9847EFF31081AE
:10219000012383F310884FF00043E069064A047876
:1021A0005068E34003435360536881F31088002074
:1021B00010BD00BF00E100E000400840F0B5846AB7
:1021C00085B005460F4694466E46B4B194E80F00BC
:1021D00086E80F00EB6920461B7884F804C0236072
:1021E000EB6AC4E902736B6A9847AC6A1CB196E863
:1021F0000F0084E80F0005B0F0BD3446EAE700BFE9
:1022000000222DE9F04701260D460B78027003F5F8
:10221000800303F58C531B0203624B69C161436267
:102220008378896966F301038262C16283706B7887
:10223000044623B90222837862F3010383704FF0CE
:10224000010C95F90B105A4B4A0901F01F06203278
:102250000CFA06F6A87A43F82260BFF34F8FBFF35B
:102260006F8F544A01F1C00652F8267000016FF3D7
:10227000104742F82670504E5F18C0B287F800032E
:1022800046F8214095F9051028794F0901F01F0EF5
:1022900020370CFA0EFE43F827E0BFF34F8FBFF351
:1022A0006F8F01F1C00752F827E000016FF3104E65
:1022B00042F827E0C0B25F1887F8000346F82140D3
:1022C00095F90710A8794F0901F01F0E20370CFA75
:1022D0000EFE43F827E0BFF34F8FBFF36F8F01F17E
:1022E000C00752F827E000016FF3104E42F827E0D4
:1022F000C0B25F1887F8000346F8214095F909102D
:10230000287A4F0901F01F0E20370CFA0EFE43F811
:1023100027E0BFF34F8FBFF36F8F01F1C00752F873
:1023200027E000010B44C0B26FF3104E42F827E0E3
:1023300083F80003EB6846F82140B3B14FF4002660
:102340005968206A0A68471D1660E6695760767802
:102350002EB910305060D0786CF30510D0709A68A8
:102360001868126890470646F8B92B6933B34FF0E6
:10237000006059680A681060D4E90760C71C97605C
:10238000767836B901260E309060D07866F3051065
:10239000D0709A68186812689047064670B1EB686A
:1023A0001BB19A681868136A98473046BDE8F087F1
:1023B00000E100E0006000403C250020EFF31080C9
:1023C000012383F310884FF000418D4B2E785A681B
:1023D000F14022EA01025A605B6880F31088002213
:1023E00040F2F931236A9A701A715A729A72DA724B
:1023F0005A832A7821FA02F2D60744BF4022DA74BF
:10240000062240F2F931EE691A772A786878D140CD
:10241000AF78EA78CD0748BF4FF478414FEAC2025F
:1024200048BF9982032842EA071200F0D7800028AB
:1024300014BFF221E221D2B21A709971327B082ABC
:102440000EBF0A22520002F002025A737278B1786B
:10245000D201490101F02001D2B20A4300211972D0
:102460003578A91E012940F2BD80D2B2DA717268B6
:10247000917850785970197860F301011970D1780A
:1024800012789974D97902F05C0201F0A3010A4331
:10249000DA7100204FF0010CC4E90300C4E9050023
:1024A000D4F81C804FF6FF7E98F90570554A07F165
:1024B000C009790952F829A0890007F01F0701F126
:1024C00060410CFA07F701F5614160F3104A42F8E8
:1024D00029A0C1F880710F6098F90B7005F0030511
:1024E00007F1C009790952F829A0890007F01F07F0
:1024F00001F160410CFA07F701F5614160F3104A00
:1025000042F829A0C1F880710F6098F9077045F072
:10251000700507F1C009790952F829A0890007F070
:102520001F0701F160410CFA07F701F5614160F303
:10253000104A42F829A0C1F880710F6098F909107B
:1025400001F1C00752F8278060F3104842F8278055
:102550004A097089920001F01F0102F160420CFAF1
:1025600001F102F561427045C2F8801111609D7061
:1025700020812DD0EFF310818CF31088224A13684C
:102580001BB92248C3704023C37013680133136022
:1025900081F3108821891E480B0A1B0153FA81F12F
:1025A00050F8213023F0011323F4404343F0040397
:1025B00040F82130EFF31081012383F31088136872
:1025C00013B11368013B13601368A3B181F3108842
:1025D0000026104B30466360BDE8F087F22142F0E0
:1025E000400228E7FF21022D08BF42F01002D2B2BC
:1025F0005970DA714DE78020044AD370D070E5E756
:10260000004008400060004038250020000D0840D0
:1026100000080840554943532DE9F04F4FF0FF0C97
:102620004FF0800E1E468BB083F803E083F802C0A3
:10263000584F594D019131783B6A00246FF3820164
:1026400009922A683170C3F302618A40C3F30233EE
:1026500022FA03F300220894504C0693A3FB04BA19
:102660001B0A0094079002920593099B009A9342DB
:102670006EDA00279DF820300393494B039ADD5D05
:10268000C5F34003C5F3800504932B43934256D111
:10269000444B33F81780079B03FB08F8069BB3FBFA
:1026A000F8F2541EFF2C4AD802FB08F91DE0059BE6
:1026B000B9FBF3F37F2B42D903FB00F00028B8BF2E
:1026C000FF300012A0F5C330A0380028009AB8BF30
:1026D0004042824240DC029BA9EB0809F370337848
:1026E00043F00403337054B3013C4A465846514604
:1026F0004FEAE9730DF02AFE019A002AD7D1A0F51E
:10270000C333A03B002B009AB8BF5B429A4216DD50
:102710000093234BB470DA5D3378C2F3000161F3A8
:1027200086130499C2F3C10261F3041365F3C30372
:102730003370737862F301037370019B0293013766
:102740000D2F9AD1089BF3B1009B099A93421DDC8F
:1027500000200BB0BDE8F08F0293114B049AD95DB5
:1027600033780090C1F3000060F386137078C1F3F2
:10277000C10162F3041361F3010065F3C303B47094
:1027800070703370A7E7012308936EE703200BB046
:10279000BDE8F08F00E00140C8260020A0860100BF
:1027A000DCA50200ECA5020030B4EFF30383103B7C
:1027B0005BB21E4A03F1C00152F821001C4C6FF3BA
:1027C000104042F8210054F82300C3691B691BB173
:1027D00003691BB130BC704703697BB9D0E9082499
:1027E0000021937803F07F0343F004039370C160EA
:1027F000002CEFD030BC8022FFF7E0BC827802F0E2
:1028000003010229C1680BD0046A91F800C084F862
:1028100003C002F003029B1A0A44C0E90323D8E76D
:102820000C88056A44F47E44EC81F2E700600040C5
:102830003C25002010B582B0EFF30383103B5BB260
:102840004E4A03F1C00152F821004D4C6FF3104085
:1028500042F8210054F82340E369DB6813B1A3690F
:10286000002B43D14FF6FF7322899A424BD1A278B5
:1028700002F00303022B236A0CBF198A5979A3695A
:102880000CBFC1F30801C9B20191002B5DD1636A8D
:102890001BB104222046FFF791FC4FF6FF722389FB
:1028A000934221D01A0A3749120152FA83F351F8A0
:1028B000232022F0011222F4404242F0040241F8A7
:1028C0002320EFF31082012383F310882E4B196825
:1028D00011B11968013919601B681BB980202B4997
:1028E000CB70C87082F3108802B010BD0021636AFB
:1028F000C4E90511002BF7D00122204602B0BDE843
:102900001040FFF75BBCEFF31081012383F31088C5
:102910001D4B1A681AB91D48C2704022C2701A684D
:1029200001321A6081F3108822891649130A1B01AB
:1029300053FA82F251F8223023F0011323F440437A
:1029400043F0050341F8223091E702F0030201A9A8
:1029500060690FF015FBD4E90521A37803F00303A8
:102960001A44C91AC4E90521002996D1636A002BCB
:1029700093D001222046FFF721FC8EE70060004043
:102980003C2500200008084038250020000D0840A4
:1029900010B5EFF303840C4B103C64B253F82400E1
:1029A000D0E90821937803F07B03937019B10222D8
:1029B0000021FFF703FC054BC03453F824206FF3CC
:1029C000104243F8242010BD3C2500200060004048
:1029D00010B5EFF30384194B103C64B253F8240094
:1029E000837803F00303022B036A0CBF198A597919
:1029F00093F804C00CBFC1F30801C9B21CF0100F5A
:102A00000CF0380206D093F81CC01CF0010F08BF70
:102A100042F0400293F804C00CF0C70C83F804C0E5
:102A2000436A0BB1FFF7CAFB054BC03453F82420AF
:102A30006FF3104243F8242010BD00BF3C25002056
:102A40000060004030B5436A85B004468C4601AD55
:102A5000ABB193E8070085E8070062681846117873
:102A600083F804C0A26A19609A60236A9847636A6F
:102A70001BB195E8070083E8070005B030BD2B4681
:102A8000EBE700BF10B4EFF30383103B154A5BB2D2
:102A900003F1C00152F82100134C6FF3104042F8CB
:102AA000210054F823305A69D9698A4206D2D3E901
:102AB0000240A8B1805CE07001325A618A4202D0C3
:102AC0005DF8044B70471A69002AF9D19A685DF8DD
:102AD000044B937803F07B0343F004039370704737
:102AE000E070E9E7006000403C25002010B4EFF3FF
:102AF0000383103B184A5BB203F1C00152F8210076
:102B0000164C6FF3104042F8210054F823305A69F4
:102B1000D9698A4206D2D3E90240D0B1805CE07024
:102B200001325A619A698A4207D2986819694079D4
:102B3000541C9C618854D3E90621914206D19A68BD
:102B4000937803F03B0343F0040393705DF8044B68
:102B50007047E070E4E700BF006000403C250020C3
:102B600010B5EFF303840B4B103C64B253F8240010
:102B700001218268C034937803F003039370FFF758
:102B800061FF054B53F824206FF3104243F82420D3
:102B900010BD00BF3C2500200060004010B5EFF3E1
:102BA00003844FF0840C0C4B103C64B253F82400A7
:102BB00004218368C0349A7802F003029A701A796B
:102BC00083F804C0FFF73EFF044B53F824206FF353
:102BD000104243F8242010BD3C2500200060004036
:102BE000034600224FF0F00C196910468A7081F8F4
:102BF0000BC093F82AC0D9691A6283F8302083F891
:102C00002CC05962704700BF0346002059601A72F9
:102C1000704700BF84460020CCE90E32CCF8341057
:102C2000704700BF0346044ADB6800209B1AB3FAD2
:102C300083F35B090B7070474332495300234FF015
:102C4000F00C10B50446026901689370937082F825
:102C50000BC090F82A00E26984F82C0062628A694D
:102C6000236284F83030E36022B1936810681B6AF5
:102C7000984721684B691BB19A681868136A98478E
:102C8000EFF31081012383F310884FF00043206895
:102C9000054A04785068E34003435360536881F366
:102CA0001088002010BD00BF00400840036859692B
:102CB000A1B190F82D3070B5044603F0FF0563B95B
:102CC0008A68038C966808682A46A169B047012380
:102CD000E26984F83330C4E9085270BD704700BF20
:102CE00038B590F808C00546BCF1010F816180F845
:102CF0002E30C26147D090F82AC0002385F82D30CD
:102D000085F82F3085F8313085F833302A6295F810
:102D10002D2085F82BC085F82C306B6212B1012371
:102D200085F83130B4212A682B69526999706AB1EB
:102D3000002152681268997095F82D40FCB94FF047
:102D4000006111602321B42299729A7095F83020A5
:102D50001AB951220020DA7238BD0022BCF1010FED
:102D600085F8302019D0012295F829100CF1FF3C8C
:102D7000D97085F82BC085F82C20002038BD116053
:102D800011495160DEE70021436880F82AC05B00EA
:102D900080F8283080F82910AFE72846FFF786FF33
:102DA00095F82A3095F82C20012B07D1013295F89F
:102DB00028102B6995F82BC0D2B2D7E701322B69C6
:102DC00095F82BC0D2B2CFE706A6020038B590F82E
:102DD00008C00546BCF1010F816180F82E30C26148
:102DE00047D090F82AC00023012185F82D1085F8DE
:102DF0002F3085F8313085F833302A6295F82D2050
:102E000085F82BC085F82C306B620AB185F831103B
:102E1000B4212A682B69526999706AB100215268FD
:102E20001268997095F82D40FCB94FF0006111605F
:102E30002321B42299729A7095F830201AB9512240
:102E40000020DA7238BD0022BCF1010F85F8302075
:102E50001BD0012295F829100CF1FF3CD97085F8A0
:102E60002BC085F82C20002038BD1160124951601C
:102E7000DEE70021436880F82AC05B0043F00103CD
:102E800080F8283080F82910ADE72846FFF70EFFBC
:102E900095F82A3095F82C20012B07D1013295F8AE
:102EA00028102B6995F82BC0D2B2D5E701322B69D7
:102EB00095F82BC0D2B2CDE706A602002DE9F04767
:102EC0000D4600220B78896803F58003C0E90051A4
:102ED00003F58C531B020361297B04460172E969E7
:102EE00082B04163296A8263AA69C163C2B16E4636
:102EF0004FF4002E516805330F6895F90EC003C9D1
:102F00007B60C7F800E086E80300019B314683F848
:102F100000C0936810681B689847002840F0C28082
:102F20006B69BBB15968226908682668033296F953
:102F30000F60002782606A46076003C982E80300C9
:102F40001146019A16709A68186813689847002805
:102F500040F0C580EFF31086012080F310884FF019
:102F60000042644B297822FA01F15A6822EA0102F0
:102F70005A605B6886F3108800214FF0F00A4FF02A
:102F8000FA094FF0230E22682369D2F824805A4EA2
:102F900098F800C0997083F80BA098F802A04FEA47
:102FA0008C0C0AF0030A83F800A083F8069098F8C6
:102FB00001904CF0200C5FFA8CFC83F8019083F8B0
:102FC00007C098F805C04D4F83F808C098F803C0B3
:102FD0004B4A83F812C098F804C04FEACC0C4CEA74
:102FE000000C5FFA8CFC83F809C083F80AE059737F
:102FF00095F80DC095F90F304FEA0C1C06EB030E47
:103000005FFA8CFC8EF800C303F1C00847F8234038
:103010004FEA531E52F828904FEA8E0E03F01F031A
:103020000EF1604E00FA03F30EF5614E61F31049A4
:1030300042F82890CEF88031CEF8003095F9103063
:1030400006EB030E8EF800C303F1C00847F82340D7
:103050004FEA531E52F828904FEA8E0E03F01F03DA
:103060000EF1604E00FA03F30EF5614E61F3104964
:1030700042F82890CEF88031CEF8003095F90E3025
:103080008B4212DA002318461E4AC4E9083384F83A
:103090002D30E26084F82E30A36184F82F30E36194
:1030A00084F8303002B0BDE8F0871E445D0986F830
:1030B00000C3AD0047F8234003F1C00603F01F032F
:1030C000984005F1604352F8265003F5614361F3DF
:1030D000104542F82650C3F880011860D2E7AB696A
:1030E000002BDFD09A681868136A98470028D9D156
:1030F00030E700BF0040084000E100E03C25002030
:10310000006000404332495370B5856B82B004467D
:103110000B466E463DB395E8030086E80300E26B7C
:103120002B7123682A605A6912B194F82D10A1B14D
:103130009B6913B194F82D2052B9636B28469847C8
:10314000A36B1BB196E8030083E8030002B070BDD7
:103150009A68186813699847EFE7936810681B69C5
:1031600098472368E4E73546D9E700BFEFF30383C8
:10317000103B054A5BB2C03352F823106FF3104185
:1031800042F82310704700BF0060004070B5EFF3B5
:103190000383103B634A5BB2C03352F823106FF3D2
:1031A000104142F82310EFF303835F4A103B5BB2F8
:1031B00052F823402269137BC3F30000DB072CD4B1
:1031C00094F82C3094F82A10994216D094F82D10C7
:1031D00009B1022B46D02046FFF768FD236994F819
:1031E0002820DA7094F82B2094F82C30013A01331F
:1031F00084F82B2084F82C3070BD94F8333003F021
:10320000FF0563BB236ABBBB94F82E308BB35221FE
:103210000123D17284F8303070BD94F82D30B3B1F1
:1032200094F831309BB95179636AA269D15494F80A
:103230002E10D4E90823013A0133C4E90823A1B1CF
:10324000522101232269D17284F8303070BD0020F0
:1032500001215423206284F82F10D37270BD84F8AA
:10326000330070BD5223D37270BD54222369DA72C9
:1032700070BD5423D37270BD94F82D1041B9616AAA
:10328000A069013B405C0131C4E90831D07070BDD8
:1032900094F8311000292ED0216884F83150486903
:1032A000002838D08969002935D0E069022832D950
:1032B000831EF42090708A68086896682946A2697F
:1032C0009BB2B0472268E3695269023B916810687B
:1032D0008E682A4629469BB2B04702200121E36945
:1032E0002269023BC4E9080384F833100023FF205D
:1032F0009372D070CBE75179636AA269D154D4E953
:103300000832013B0132012BC4E90832226904D0A2
:10331000FF20D070BBE7012BE8D12023FF20937260
:10332000D070B4E7006000403C25002010B582B0AA
:10333000EFF30383374A103B5BB252F82300026974
:10334000D37A6FF3C303D37290F82F30ABBB90F8EE
:103350002A1003F0FF0C90F82C3099421BD1036A1D
:103360005BB990F82D1090F83040002914BF02216D
:103370000321A4B3D372FFF7C7FEEFF30383103B1F
:10338000254A5BB2C03352F823106FF3104142F864
:10339000231002B010BDB3B9012929D090F829C07B
:1033A0000021D17282F803C090F82B20013380F8FD
:1033B0002C30531E80F82B30DFE7F0230121D3722D
:1033C000FFF7A2FED9E790F82D4004F0FF016CB1A1
:1033D000022BE5D190F829C04CF0010CE0E7F02376
:1033E000D372937803F0CF039370C4E78C46D7E78A
:1033F0000190FFF75BFC019890F82A30012B05D172
:1034000090F828C0026990F82C30C9E7026990F85A
:103410002C30C3E73C250020006000400246526883
:10342000044B127800200A7093F82430C3F3000391
:103430004B7070470030084038B54368224A1B780B
:1034400004460D4682F82830002B38D14FF47A71AB
:10345000642002F009FF1C4A92F824306FF3000345
:1034600082F8243092F8243013F00103FAD182F864
:10347000223082F8243092F82400616840F0400045
:1034800082F824000978012902D1A9885385918501
:103490000D4A92F824306FF3C71382F8243092F863
:1034A0002430DB09FBD192F82430074943F00203B2
:1034B00082F8243091F824309B07FBD438BD0121D9
:1034C000BE2002F0D1FEC6E7003008402DE9F04FE3
:1034D0004368894693F9111083B00029C0F29C809B
:1034E0005E4B4FEA511B53F82B3001F01F0A23FAB1
:1034F0000AFA1AF0010A01F01F03019320D1584A79
:1035000092F8223043F0020382F8223092F82230FF
:103510009C07FBD501224FF0000A524CC03154F8F1
:1035200021504FEA8B036FF3104544F82150019965
:1035300003F1604303F561438A40C3F880211A60B8
:103540004FF00008464B80F808809E781D799F79DF
:103550001C7A93F80AE093F80CC0DA89017AF6B283
:10356000EDB2FFB2E4B25FFA8EFE5FFA8CFC92B26B
:103570000029E8D14FEA1C1101EB81000CF00F018A
:1035800001EB4001C9B20139C9F81010C2F30311AF
:1035900001EB810102F00F0202EB4102D2B2643270
:1035A000C9F81420320902EB820206F00F0606EB7E
:1035B00042062A0902EB820205F00F0505EB4205DF
:1035C000220902EB820204F00F0404EB42044FEAEA
:1035D0001E1202EB82010EF00F0202EB4102D2B288
:1035E000C9F80C20C7F3011202EB820207F00F07A3
:1035F000F6B2EDB2E4B207EB4207C9F80060C9F8D1
:103600000450C9F81840C9F80870BAF1000F09D081
:10361000002003B0BDE8F08F01F01F034FEA511BFB
:1036200001936CE793F822100D4A01F0FD0183F835
:10363000221092F822309B07FBD401230199074AFC
:103640000BF1200B8B4042F82B30BFF34F8FBFF3B1
:103650006F8F002003B0BDE8F08F00BF00E100E0F5
:10366000003008400060004030B41F4D95F8244001
:10367000C4F30014844213D0002485F82E4095F83A
:103680002E40002CFBD195F824C0174C60F3041C8D
:1036900085F824C094F824C0CCF3001C8445F9D1EB
:1036A00001280DD003F03F030F4943EA8212D2B242
:1036B00081F82E2091F82E309A42FBD130BC704711
:1036C000094C94F82400C0F340108842EAD094F8E2
:1036D000240061F3451084F8240094F82400C0F31A
:1036E00040108142F9D1DDE7003008402DE9F04F6C
:1036F0004A4B85B093F824206FF3000283F824200E
:1037000093F82420D207FBD4406891F800B00290CF
:103710000869434A0130C4B2486991F804A064388A
:1037200091F808E091F818C0A2FB0B69C5B2087BBC
:1037300001950394A2FB0E67A2FB0015A2FB0A6889
:10374000A2FB0414A2FB0C160199A2FB01124FEA82
:10375000D90101EB8101ABEB41014FEAD90941EA03
:103760000911C9B299704FEAD80101EB8101AAEBA6
:1037700041014FEAD80841EA0811C9B21971F908A4
:1037800001EB8101AEEB410EF10801EB8101ACEBE5
:10379000410CE90801EB8101A0EB4100ED0840EA92
:1037A0000510E108039D01EB8101A5EB4101E4084F
:1037B000019D41EA0414D108FF08F60801EB8101DC
:1037C0004EEA07174CEA0616A5EB4101D208C0B233
:1037D00007F03F07F6B241EA02129F71E4B21E728F
:1037E000D2B2987202981C73DA81037873B10B4AD3
:1037F00092F8243043F0010382F8243092F8243008
:10380000DB07FBD5002005B0BDE8F08F806843687A
:10381000827841780078FFF727FFE8E7003008401A
:10382000CDCCCCCCF8B50446D1E905020023C4E9DF
:1038300004326160E060237291F90F500A7B002D21
:1038400091F90DE00B7C91F911C00BDB887B174FD0
:10385000000105F16046C0B206F5614686F8000336
:1038600047F82540BEF1000F0ADB104D12010EF1A2
:103870006040D2B200F5614080F8002345F82E4048
:10388000BCF1000F0ADB1B010CF16042DBB202F558
:10389000614282F80033054B43F82C402046FFF785
:1038A000CBFD034B00202360F8BD00BF3C2500206A
:1038B0004354520010B4436883B093F90DC0BCF177
:1038C000000F11DB0122804C4FEA5C130CF01F0C3F
:1038D000203302FA0CF244F82320BFF34F8FBFF3DA
:1038E0006F8F436893F90DC091F82430002B00F0DE
:1038F000E8800B78754AA2FB0302D00800EB800039
:10390000A3EB4003D20843EA021363F07F03DBB268
:103910008DF807309DF807306D4891F82520DBB20F
:103920000374002A00F0CA800B79684AA2FB0302E4
:10393000D00800EB8000A3EB4003D20843EA021357
:1039400063F07F03DBB28DF807309DF807306048E5
:1039500091F82620DBB28374002A00F0AC800B7A49
:103960005A4AA2FB0302D00800EB8000A3EB4003FD
:10397000D20843EA021363F07F03DBB28DF807300D
:103980009DF80730524891F82A20DBB20375002ACF
:1039900000F08E800B7E43F080038DF807309DF899
:1039A00007304B4891F82720DBB28375002A7BD083
:1039B0000B7B464AA2FB0302D00800EB8000A3EB7E
:1039C0004003D20843EA021363F07F03DBB28DF8B1
:1039D00007309DF807303E4891F82820DBB2037687
:1039E000002A5ED00B69394A0133DBB2A2FB030225
:1039F000D00800EB8000A3EB4003D20843EA021397
:103A000063F07F03DBB28DF807309DF80730304A52
:103A100091F82900DBB2937600283FD04B692B4AFE
:103A2000643BDBB2A2FB0312D10801EB8101A3EBE3
:103A30004103D20843EA0213DBB28DF807309DF848
:103A40000730234A9383937F60F3C713937792F8E9
:103A5000223043F0010382F8223092F82230DB0753
:103A6000FBD51C4B0CF1C00153F8210001226FF370
:103A7000104043F8210000204FEA5C139B000CF03B
:103A80001F0C03F1604303F5614302FA0CF2C3F823
:103A900080211A6003B05DF8044B70478DF8070071
:103AA000CDE78DF80720B0E701238DF8073090E7C8
:103AB0008DF8072073E78DF8072061E78DF8072060
:103AC00043E78DF8073025E700E100E0CDCCCCCC12
:103AD0000030084000600040F0B583B0EFF303848D
:103AE000154B103C64B253F82450EF68BFB16A68BC
:103AF0002B6992F90D206E46121B18BF0122C3B12B
:103B000093E8030086E803001A706A6918465A6051
:103B1000B8472B691BB196E8030083E80300074B05
:103B2000C03453F824206FF3104243F8242003B02C
:103B3000F0BD3346E8E700BF3C25002000600040B0
:103B4000EFF303830120074A103B5BB252F82310C6
:103B5000054AC033087252F823106FF3104142F83F
:103B6000231070473C2500200060004000220346DF
:103B700010461A60704700BF70B50446012002F07D
:103B800043FC394A92F8A030D906FBD4364A92F861
:103B9000AA30C3F30011DB06F9D4257875B3032DE1
:103BA00039D0022D5ED1D4E90403C2F8980018433D
:103BB0000CBF01250025C2F888302C4BB4F81AC080
:103BC000B3F80002267F6CF30800A3F80002238BF1
:103BD00045EA4605D8B21B0A82F89400EDB282F895
:103BE0009530637F214A9B0343F40043D4E902608C
:103BF0009BB2C2F8A061C2F8A40101E029462B469D
:103C0000194A0120938182F8925082F8001402F040
:103C1000CBFB002070BD236A0D46D9B282F8021496
:103C2000C3F3072182F80314C3F3074182F8041495
:103C3000616A1B0E82F80534CBB282F80A34C1F3F4
:103C40000723C1F3074182F80B3482F80C14A17FDB
:103C5000E37F890101F0400103F00303194341F0C0
:103C60008001BEE70D46BCE700E001400060004077
:103C700010B5044608466160FFF77EFF08B9014BA6
:103C8000236010BD4D504C522DE9F0410646504A7C
:103C900092F8A030D906FBD44D4C94F8AA30C3F367
:103CA0000015DB06F9D4012002F0AEFBA3891F0446
:103CB00043D42F46A84673681B78022B08D1444B87
:103CC00093F8922042F0800283F8922093F8923089
:103CD000BFF34F8F30BF3E4B93F892206FF3C71264
:103CE00083F892209A89110406D40024012002F05E
:103CF0005BFB2046BDE8F08193F8A020D206FBD400
:103D0000334A92F8AA30C3F30010DB06F9D4044614
:103D10005FFA88F8FFB282F8A08082F8AA7092F861
:103D2000403065F3C71382F8403002F03DFB0120BC
:103D300002F03AFB2046BDE8F08194F8263094F872
:103D4000A08094F8AA7094F80024DBB2D20908F09D
:103D5000030807F0010720D194F89220D0070DD472
:103D6000002002F051FB1A4A92F8405092F840307D
:103D7000ED096FF3C71382F840309CE75BB994F804
:103D80003830012B07D194F83230012B03D194F84D
:103D90002A30012BE4D00524A8E7284602F034FBA2
:103DA00094F80E3465F3000384F80E3494F8063466
:103DB00084F8065494F8073484F8075494F80834C7
:103DC00084F8085494F8093484F80954CBE700BF08
:103DD00000E001400123C8B283404AB91A040B0A2B
:103DE0005B0103F1804303F5002300209A607047D4
:103DF0009AB2F4E738B50488002C4CD0002143680F
:103E000040F20245043303EBC40040F2034C40F29D
:103E1000044E0C460FE062452FD153F8042C02F0FB
:103E2000B852B2F1807F14BF41F0020144F00204A5
:103E30000833834210D01A88AA42ECD153F8042CDC
:103E4000083302F0B852B2F1807F14BF41F0010193
:103E500044F001048342EED1C943CDB2012002F007
:103E6000D3FA0E4B012093F8BB2414432C4083F863
:103E7000BB44BDE8384002F097BA7245D8D153F838
:103E8000042C02F0B852B2F1807F0CBF44F004045D
:103E900041F00401CCE7FF25E0E700BF00E001406E
:103EA00070B5012684B002AB68460C4615460193F6
:103EB000ADF80060ADF80C100292FFF79BFFEFF336
:103EC000108286F310881D490B681BB940261C48D8
:103ED000C370C6700B6801330B6082F31088EA036D
:103EE0004FEA1423E4B219D41B01164A234442F8C2
:103EF0002350EFF31082012383F310880B6813B172
:103F00000B68013B0B600B681BB980200C49CB7020
:103F1000C87082F31088002004B070BD094A04EB19
:103F2000031052F820601B016FF3104642F8206026
:103F300025F4803642F82060D7E700BF38250020FE
:103F4000000D084000080840034610B44FF0010C73
:103F50000024C3E903125A619A6883F821C083F8E8
:103F6000234011799C6141F01001117111792046B3
:103F700064F3C301117183F824405DF8044B70476A
:103F8000034630B400249D6883F8214083F8234021
:103F9000C3E903125A612A799C6142F010022A7126
:103FA0002A79204664F3C3022A7183F8244030BC86
:103FB000704700BF84460020CCE90B32CCF82810B3
:103FC000704700BF0021012310B482684160D171A5
:103FD00002682C4C92F90F204FEA521C02F01F028B
:103FE00003FA02F20CF1200C44F82C20BFF34F8F9F
:103FF000BFF36F8F026892F90C204FEA521C02F057
:104000001F0203FA02F20CF1200C44F82C20BFF33B
:104010004F8FBFF36F8F026892F90D204FEA521C49
:1040200002F01F0203FA02F20CF1200C44F82C20DB
:10403000BFF34F8FBFF36F8F026892F90E204FEAE4
:10404000521C02F01F0203FA02F20CF1200C44F899
:104050002C20BFF34F8FBFF36F8FEFF3108483F3E8
:1040600010880068084A0078C0F109008340506851
:1040700003435360536884F3108808465DF8044B8B
:10408000704700BF00E100E00040084070B5C36A1F
:1040900084B004468C46164601AD9BB193E80700F8
:1040A00085E8070083F808C0226B1846C3E900269C
:1040B000A36A9847E36A1BB195E8070083E8070005
:1040C00004B070BD2B46EDE7F8B50122B3230227FB
:1040D0000446856880F82020EB7180F821706B79A8
:1040E000C2696FF300036B710E46FFF7CFFFA36841
:1040F000DF705A7942F001025A7194F82120012AA6
:1041000016D094F8212002B1F8BD052EFCD194F808
:104110002320002AF8D194F821201AB95A7A02F003
:10412000F3025A72BF210122D97184F82320F8BD0D
:10413000042EECD0082EE4D1E9E700BF2DE9F04FC2
:1041400000260B784A6903F5800303F51F631B0201
:1041500083608B690160C0E90B638262EFF31084B6
:10416000012383F310880A78C2F109029340814A3F
:10417000516821EA03035360536884F31088DF21F8
:104180004FF01F0C5F2702688368D56980F82360B1
:10419000AC7883F800C01F701970917A012900F083
:1041A000E2801689F10901F0060141F00101F6B241
:1041B000D9729E720226D17AC90041F00101C9B2BA
:1041C00099716D49DE7056688E420CBF6FF07F01A9
:1041D0000021002C00F0C18041F07D01C9B2013CFA
:1041E000597166B24FF0A0094FF09F084FF0020ED0
:1041F0004FF0010C6978614F41F0E00119742C789F
:10420000917C240146EA811104F0700444F0080412
:10421000C9B29C70197183F8079083F8008092F8F6
:10422000118092F90F300021554D564E4FEA081873
:10423000554C05EB03095FFA88F889F8008346F8C6
:10424000230003F1C0094FEA531854F829A008FAD3
:104250000EF803F01F0308F160480CFA03F308F5A9
:1042600061486FF3104A44F829A0C8F88031C8F8B3
:10427000003092F8108092F90D304FEA08185FFA7A
:1042800088F805EB030989F800834FEA531A46F8CA
:10429000230003F1C00954F829B00AFA0EFA03F01A
:1042A0001F030AF1604A0CFA03F30AF5614A6FF33F
:1042B000104B44F829B0CAF88031CAF8003092F99E
:1042C0000E3005EB030989F800834FEA531A46F8CC
:1042D000230003F1C00954F829B00AFA0EFA03F0DA
:1042E0001F030AF1604A0CFA03F30AF5614A6FF3FF
:1042F000104B44F829B0CAF88031CAF8003092F95E
:104300000C20154485F80083530946F8220002F179
:10431000C00554F8256003FA0EF302F01F0203F102
:1043200060430CFA02F203F561436FF3104644F860
:104330002560C3F880211A6080F8241080F821E0FD
:10434000C0E9051180F82210C1600161476080F862
:104350002010C1610846BDE8F08F41F05D01C9B28F
:10436000264659713EE71189DE724900C9B2997239
:1043700020E700BF0040084040420F00534332494D
:1043800000E100E03C2500200060004070B582B0F4
:10439000EFF30383103B444A5BB2C03352F823105F
:1043A0006FF3104142F82310EFF303833F4A103BB1
:1043B0005BB252F8234094F82230B3B90122A368CB
:1043C00084F82220DA7CD2B28DF805209DF80520F1
:1043D00012F0010F5A7A14BF02F0F70202F0F30252
:1043E0005A72AC22DA7102B070BD94F820304BB929
:1043F000A36820461B7A13F0080F14BF082104217C
:10440000FFF762FE2269A2B9A368D97CC9B28DF810
:1044100006109DF80610197941F0100119711979EB
:1044200041F008011971197962F30411197102B090
:1044300070BDA3699A420AD0D4E90212C97C581C03
:10444000A061D154E3690133E36102B070BD02257C
:10445000A66884F821507379E2696FF3000306219E
:1044600073712046FFF712FEA3682169DD705A7947
:1044700042F001025A7191B9DA7CD2B28DF807206C
:104480009DF807201A7942F010021A711A7942F049
:1044900008021A711A7961F304121A71A3E7A2696A
:1044A000D97C501CE368CBE7006000403C2500202D
:1044B00038B5EFF30383103B244A5BB2C03352F8A4
:1044C00023106FF3104142F82310EFF30383204AC7
:1044D000103B5BB252F8234094F8203093B194F82B
:1044E000213003F0FF0263B9A369216999420ED01C
:1044F000E168E269C85CA168013301328874C4E9EB
:10450000063238BD05212046FFF7DEFDE7E72368C8
:104510000E4993F90E3003F1C00051F82050002BE2
:1045200062F3104541F8205009DB01215A0909487E
:1045300003F01F03603201FA03F340F82230A2684F
:10454000D37943F04003D37138BD00BF0060004011
:104550003C25002000E100E070B5EFF30383214A21
:10456000103B5BB252F82350AC6823795907C3F370
:10457000800C17D5E279C0236FF38612E27101E057
:10458000013B02D0E2795206FAD4EFF30383103BE9
:10459000154A5BB2C03352F823106FF3104142F852
:1045A000231070BD022685F821606379EA696CF3F7
:1045B0000003637107212846FFF768FDAC68E670C9
:1045C000637943F00103637195F82130002BD1D159
:1045D000AB69E968EA69C95C01320133A174C5E9D4
:1045E0000632C7E73C2500200060004010B582B0CD
:1045F000EFF303833E4A103B5BB252F8230083681B
:104600005A7A91074ED1D1B211F00C0F3DD0012250
:1046100080F8242090F82120012A66D0016982695F
:1046200091424FF00301C26984BF02F1FF32C261BF
:104630004FF0000EA024DC7180F820E080F822E02A
:1046400093F805C06EF3000C83F805C090F8244081
:10465000002C45D14FF0DF0C9F2483F800C01C7064
:1046600000240223C46180F82130FFF70FFDEFF32F
:104670000383103B1F4A5BB2C03352F823106FF321
:10468000104142F8231002B010BDCA06EFD5DA7C03
:10469000D2B28DF807209DF80720DA7902F0EF02F8
:1046A000DA71E4E70022A02180F82420D97180F893
:1046B000202080F82220597962F30001597190F886
:1046C000241081B9DF219F2219701A70002402235F
:1046D000C2690121C46180F82130FFF7D7FCC6E729
:1046E00083F809E0BCE75A72F0E70221C2699FE74C
:1046F0003C250020006000400346002059601A72EB
:10470000704700BF84460020CCE90E32CCF834104C
:10471000704700BF0346044ADB6800209B1AB3FAC7
:1047200083F35B090B7070474349495270B5856B41
:1047300082B004460B466E4655B395E8030086E802
:104740000300E26B2B7123682A605A6912B194F856
:104750002910B9B19B6913B194F829206AB9636B28
:1047600028469847A36B1BB196E8030083E8030033
:10477000002384F82B3002B070BD9A681868136962
:104780009847ECE7936810681B6998472368E1E74E
:104790003546D6E730B4344B82B01B6A026903F069
:1047A0000F2301930199019D137C90F82C409CB933
:1047B000C1F30321DBB2A1EB15618B409B0806D14D
:1047C0000823184602B030BC7047013BF8D051783E
:1047D000C909FAD1B323D371002390F826400168A8
:1047E00080F8274080F82830846980F82B300362F5
:1047F00080F82D3080F82E3080F82F3080F830305F
:104800004B6AC46193F800C05C78BCF1010F0CBF27
:104810000523042343EA4403DBB2D370537943F006
:104820000103537191F90F30002B08DB012203F0D3
:104830001F040E495B09A24041F823200269BF23EF
:10484000D37190F82C1001F0FF0339B10022134608
:1048500080F82C20184602B030BC70470221184660
:10486000517002B030BC704700E0014000E100E050
:1048700090F808C0C0E90512BCF1010F80F82A3099
:104880000AD10022436880F826C05B0043F0010390
:1048900080F8243080F82520012380F82930FFF7A4
:1048A00079BF00BF90F808C0C0E90512BCF1010F44
:1048B00080F82A3008D10022436880F826C05B00C7
:1048C00080F8243080F82520002380F82930FFF775
:1048D00061BF00BF2DE9F04F4FF0DF0C4FF01F0A12
:1048E0004FF05F094FF0010E0369DFF8A0B183F8C4
:1048F00000A083F8009083F800C0D0F800C0002624
:10490000DCF82490DCF804A099F804C0B3224CF041
:10491000E00C83F810C099F803C0594D4CF0E00C3E
:1049200083F811C099F802C04FF09F084FEA0C1CA1
:104930000CF0700C4CF0080C83F802C099F800C021
:1049400099F80190F4450CBF4FF0050C4FF0040CA2
:10495000DA450CBF4FF0F70A4FF0770A4CEA490CE2
:104960005FFA8CFC83F803C083F805A09E71DA71AE
:1049700091F80DC091F91120424F4FEA0C1C424CA6
:104980005FFA8CFC05EB020989F800C34FEA521A62
:1049900047F8220002F1C00954F829B04FEA8A0A08
:1049A00002F01F020AF1604A0EFA02F20AF5614AA9
:1049B00066F3104B44F829B0CAF88021CAF80020E9
:1049C00091F90F2005EB020989F800C34FEA521A4A
:1049D00047F8220002F1C00954F829B04FEA8A0AC8
:1049E00002F01F020AF1604A0EFA02F20AF5614A69
:1049F00066F3104B44F829B0CAF88021CAF80020A9
:104A000091F9102005EB020989F800C34FEA521A08
:104A100047F8220002F1C00954F829B04FEA8A0A87
:104A200002F01F020AF1604A0EFA02F20AF5614A28
:104A300066F3104B44F829B0CAF88021CAF8002068
:104A400091F90E100D4485F800C347F8210001F1DB
:104A5000C00054F820504A09920001F01F0102F1F1
:104A6000604266F3104544F820500EFA01F102F559
:104A70006142C2F88011116083F80080BDE8F08FB8
:104A800000E100E03C2500200060004040420F00B3
:104A9000002270B50B78016003F5800303F51F63F6
:104AA0001B0203618B680D4643600B7B0446037257
:104AB000CB6982B043630B6AC0E90E23EFF3108C1D
:104AC000012383F310880E78334AC6F10906B340F8
:104AD000566826EA0303536053688CF31088FFF787
:104AE000F9FEAB69ABB14FF400205968226892F926
:104AF0000E600A6810606A4603C982E80300114626
:104B0000019A16709A681868136898470646002834
:104B10002FD16B69A3B14FF000605968226892F9F8
:104B20000F600A6810606A4603C982E803001146F4
:104B3000019A16709A68186813689847064690B9E3
:104B400000231E463046154A84F82930C4E906334E
:104B500084F82A30E26084F82B306361236284F8A1
:104B60002C3002B070BDAB691BB19A681868136A2B
:104B70009847EFF31080012383F310882978064AC1
:104B8000C1F109018B4051680B435360536880F3B6
:104B90001088304602B070BD004008404349495279
:104BA00038B5C369044613B990F82C30A3B1002579
:104BB000236920462168DD71FFF78CFE94F82620DA
:104BC000A36984F82820B32223622369E56184F86D
:104BD0002C500020DA7138BD90F82B30002BE6D134
:104BE000B32223690020DA7138BD00BF38B5C3692C
:104BF00004461BB990F82C30002B73D00025236994
:104C000021682046DD71FFF765FE94F82620A36930
:104C1000E56184F82820236284F82C500021B32514
:104C2000226820699369C571C171E16023B19A68F6
:104C30001868136A98472268536923B19A681868FC
:104C4000136A98472268012392F9112028495009D4
:104C500002F01F02203003FA02F241F82020BFF3D5
:104C60004F8FBFF36F8F226892F90E20500902F028
:104C70001F0203FA02F2203041F82020BFF34F8FC9
:104C8000BFF36F8F226892F91020500902F01F02C3
:104C900003FA02F2203041F82020BFF34F8FBFF318
:104CA0006F8F226892F90F20500902F01F0203FA59
:104CB00002F2203041F82020BFF34F8FBFF36F8FF7
:104CC000EFF3108083F3108821680A4A097854684A
:104CD000C1F109018B4023435360536880F310886E
:104CE000002038BD90F82B30002B97D086E700BF0E
:104CF00000E100E00040084030B583B0EFF30383EB
:104D0000103B5B4A5BB2C03352F823106FF3104183
:104D100042F82310EFF30383564A103B5BB252F87C
:104D2000234094F82D30002B2ED1A3692169012B4B
:104D300082BF0A7942F040020A71E269012A49D031
:104D400022689269AAB194F8290090B1032B10D976
:104D50009068033B8568133110689BB26269A8476D
:104D600003200122A3692169033BC4E9070384F8F6
:104D70002E200122CB7CDBB28DF807309DF8073066
:104D800084F82D2003B030BD94F82E3003F0FF02DC
:104D900023B1002384F82E3003B030BDE369002B2B
:104DA000F0D0032B2DD0022B21D0012B2FD0216945
:104DB000236AC97C6269D154D4E907320132013BCC
:104DC000C4E90732002BDDD121690A7963F3861229
:104DD0000A71D7E70A7942F010020A710A7942F0A3
:104DE00008020A7122689269002AACD1C1E72169E0
:104DF0000B7943F010030B710B7943F008030B712F
:104E0000D6E721690B7943F040030B71D0E794F8A2
:104E10002A1029B32168184D91F90F10480901F0A3
:104E20001F0103FA01F1203045F82010BFF34F8F26
:104E3000BFF36F8F04252169C87940F08000C871E5
:104E4000087940F010000871087962F3C300087116
:104E50004D70487962F30000487184F82C30A7E760
:104E6000082221694B7A03F0F7034B724A709FE7DF
:104E7000006000403C25002000E100E02DE9F04109
:104E8000EFF30383103B494A5BB2C03352F823105F
:104E90006FF3104142F82310EFF30383444A103BB1
:104EA0005BB252F8234094F82750002D3FD194F87C
:104EB000293003F0FF02002B37D194F82F30002B5C
:104EC00049D1E3694BB1D4E90410226A013B805C0B
:104ED00001328874C4E907323BBB2169C023CA7917
:104EE0006FF3C712CA7101E0013B02D0CA79D2093F
:104EF000FAD123682D4A93F9103003F1C00052F81B
:104F00002040002B6FF3104442F8204009DB0120C1
:104F10005A09284C03F01F03603200FA03F344F8E7
:104F20002230CB7943F04003CB71BDE8F08194F897
:104F30002630032B13D0012D94F82460226917D05A
:104F4000967494F82830013D013384F8283084F8B1
:104F50002750BDE8F081E36984F82F20BCE794F87E
:104F60002830022BE7D194F83030002BDDD0E2E777
:104F700023685B69002BE3D094F8291001F0FF0748
:104F80000029DDD1A1690029DAD099681868D1F823
:104F90000880A38B12326169C047A36984F82F503F
:104FA000C4E90773226994F82750C9E700600040FC
:104FB0003C25002000E100E010B4EFF303832C4A0D
:104FC000103B5BB252F8233093F829201AB193F8C2
:104FD0002720012A47D0DA69D2B11969CA79C023DA
:104FE0006FF38612CA7101E0013B02D0CA79520602
:104FF000FAD4EFF30383103B1E4A5BB2C03352F87E
:1050000023106FF3104142F823105DF8044B7047F2
:1050100093F82A10F9B14FF0010C1968164C91F968
:105020000F10480901F01F0120300CFA01F144F87B
:105030002010BFF34F8FBFF36F8F1969C87940F00D
:105040008000C87104204870487962F300004871FC
:1050500083F82CC0C2E7082219694B7A03F0F703E2
:105060004B724A70BAE793F83020002AB3D1B4E704
:105070003C2500200060004000E100E038B5EFF37F
:105080000383E0214C4A103B5BB252F82340236972
:105090005A7A5972D5065FFA82FC02F003001FD5D6
:1050A0005A7851064AD40121E26984F82B10002A6B
:1050B00060D0002521682046DD71FFF70BFC94F8D5
:1050C0002610A2692369E56184F82810226284F819
:1050D0002C50B32201212046DA71FFF727FB13E0A1
:1050E0000028E0D11CF0080F1BD094F82B20002AD8
:1050F00049D194F82910B322002914BF02210321B9
:10510000DA712046FFF712FBEFF30383103B2B4AC3
:105110005BB2C03352F823106FF3104142F82310F2
:1051200038BD94F82C20002AEED01CF0040FEBD0F0
:1051300094F82B200121002AE3D1DAE70028B2D12C
:105140005A78C2F380115206CCD5082084F82B106F
:105150005A7A216802F0F702496A5A7258700A783E
:10516000012A0CBF03220222DA705A7942F00102AE
:105170005A71C9E794F82C20002A9AD194F82B2070
:10518000002AA6D095E7E2696AB10022A16994F8E5
:105190002600C4E9072184F8280084F82C20B322D3
:1051A0000121DA71ADE794F82C20002AEDD194F8B2
:1051B0002B20002AF3D0E8E73C25002000600040C7
:1051C00010B582B0EFF30384164B103C64B253F871
:1051D0002420154950790B5C03F00303032B0FD0F7
:1051E000C03451F824306FF3104341F824309368F1
:1051F00023B1D268CDE900206846984702B010BDBF
:10520000936823B1D268CDE9002068469847064BE1
:10521000C03453F824206FF3104243F8242002B026
:1052200010BD00BF3C250020006000400346002068
:10523000D3E9022353607047034630B4D3E9012316
:10524000D2690020D2E9011444F00045D46841F04D
:10525000004144F000445D619C61D2E9044219615F
:105260005C629A6230BC7047002800DA70474FF0E9
:10527000010C10B400F160430901104CC9B203F5F0
:10528000614383F800130E4B44F8202000F1C00264
:1052900053F822106FF3104143F8221043099B008A
:1052A00000F01F0003F1604303F561430CFA00F0C6
:1052B000C3F880015DF8044B186070473C2500205E
:1052C0000060004070B5836984B004468C46164681
:1052D00001AD9BB193E8070085E8070083F804C09F
:1052E000E26918469E601A6063699847A3691BB11A
:1052F00095E8070083E8070004B070BD2B46EDE792
:1053000090F800C0486EBCF1030F98BF01300AB19D
:10531000824227D310B4019C496BE40754BF01F0CB
:105320001F01C1F30441BCF1030F09D9090981F040
:10533000010172B9E9B902225DF8044B5A60704765
:1053400001F00C01A1F10401B1FA81F14909002A2F
:10535000F0D0824201D30029EDD103225DF8044B45
:105360005A607047BCF1030F98BF02F1FF321A6018
:1053700070470028DFD0F0E701222DE9F0470D4605
:10538000097C044602FA01F3C3601B0714BF002323
:1053900002744FF0000218BF03748E4B84B00B44AC
:1053A00069691B0283604560D5E906364161C0E941
:1053B0000623EFF31087012383F310884FF0004199
:1053C000854B287C21FA00F0196921EA0001196156
:1053D0001B6987F310884FF42541A3686F68196033
:1053E000DA62DA639A642A78297A032A4FEAC15189
:1053F00007F1FF3E00F0D88084BFBE4641EA02417B
:10540000D9624FF0004CD6E906A900204FF0FF31D9
:10541000D6F82C800390C3F810C00291C3F814C0D2
:10542000C3F818C058629862C3F81CA0C3F8209053
:10543000C3F868E0C3F864E0002A40F0A08040466A
:1054400001224FF0030C79080139029159659965E1
:1054500000285DD095F800E0B76A002F71D0B978C8
:1054600097F80390090641EA097197F8049041EA18
:1054700009419963B968C3F88C10002965D00121EE
:1054800048B997F81C9097F81BA04FEA496949EA78
:105490004A2948EA0908C3F8881040B996F821104B
:1054A00096F82000490741EA403148EA01084FF4E4
:1054B000AA01BEF1010F196402D10021D964196556
:1054C000E168D960C3F83480C3F830C01A63697CDE
:1054D000224695F91200FFF7C7FE224696F82210E1
:1054E00096F92400FFF7C0FE224696F8231096F99D
:1054F0002500FFF7B9FE2FB12246397897F9010050
:10550000FFF7B2FE0020354B236004B0BDE8F08702
:105510003178F9B995F800E0B17800299CD0F77896
:10552000BEF1020F4FEA071141EA87113FD04BD974
:1055300003273943B76A48EA014848F08078002FCA
:105540008DD19F63C3F88870A7E7F968003918BF49
:10555000012195E795F800E07178BEF1020F4FEA5E
:1055600081194FEA011724D029D9032148EA0108FB
:1055700048EA090848EA070848F48078CCE7012A95
:1055800019D000901946EA68606802ABFFF7B8FED0
:10559000DDE90210020442EA006242F0030CA36853
:1055A000F06A42F0010251E741F4803128E709270F
:1055B000BFE70921DAE740464FF0030C46E7002930
:1055C00014BF09210621D1E7002F14BF09270627A0
:1055D000AFE700BF9016400000400840545047001D
:1055E00030B4436893F91220DB69002A10DB0124F0
:1055F00002F01F05AC4051092A4D203145F82140E9
:10560000BFF34F8FBFF36F8F0024274941F822402B
:1056100093F92420002A10DB012402F01F05AC407E
:105620005109204D203145F82140BFF34F8FBFF382
:105630006F8F00241C4941F8224093F92520002A4D
:1056400010DB012402F01F05AC405109154D20313B
:1056500045F82140BFF34F8FBFF36F8F00241249ED
:1056600041F822409B6AA3B193F90130002B10DB73
:1056700001210C4C5A0903F01F052032A94044F8BF
:105680002210BFF34F8FBFF36F8F0021064A42F8FD
:1056900023100023D0E9022130BC0360184691603A
:1056A0005363704700E100E03C25002070B5EFF344
:1056B0000383103B194A5BB203F1C00152F8210089
:1056C000174C6FF3104042F8210054F8230044684F
:1056D00094F800C0BCF1010F17D1D0E902560024A4
:1056E000AE60AC64EC642C6552F821504FEA531E56
:1056F0000C4E03F01F030CFA03F364F310450EF194
:10570000600C42F8215046F82C3043692BB1BDE8BB
:10571000704000221146FFF7D5BD70BD006000400B
:105720003C25002000E100E04FF4964310B44268AD
:1057300083B00193137803BB4AF68023274AA2F86B
:105740008430B2F884309BB2802B08D110E0019BEA
:10575000013B0193B2F884309BB2802B08D0019BAF
:10576000002BF4D14FF4FA7003B05DF8044B70478E
:10577000002003B05DF8044B704792F911301848CF
:1057800003F1C00150F821406FF3104440F821406C
:10579000012103F01F045B099B0003F1604303F543
:1057A000614301FA04F4C3F880411C6092F91320AC
:1057B00002F1C00350F823406FF3104440F8234037
:1057C00053099B0002F01F0203F1604301FA02F249
:1057D00003F56143C3F880211A60ADE700E07F4024
:1057E0000060004030B587B0EFF30383164A103BEA
:1057F0005BB252F82330D3E9044120698A6A55022A
:1058000004D5850744BF01259D7620615B688A62C7
:10581000996A51B11D781C6B0323CDE903020195F0
:10582000059401A88DF808308847EFF30383103BF7
:10583000064A5BB2C03352F823106FF3104142F8AE
:10584000231007B030BD00BF3C25002000600040A1
:1058500010B4294A0346C2600A7802F0010242707D
:10586000EFF3108C012484F31088244AD06820F4CC
:105870008010D060D2688CF31088EFF3108C84F322
:1058800010885878002830D1DC68227960F38612BD
:1058900022718CF310884868DC68C278D201D2B2D9
:1058A0006271A279BAB94A78AAB1EFF3108C0122D9
:1058B00082F31088114AD46824F40044D460D2687A
:1058C0008CF310884FF0020CDA6802F5805484F8EB
:1058D000C0C0802494714078094A18720978002069
:1058E00019705DF8044B5A607047D86802796FF3FD
:1058F000C7120271CDE700BF0010174000400840FA
:10590000004341440346DA685B78002022F8131014
:10591000704700BFEFF31081012383F310884278B2
:1059200042B9C068037962F38613037181F310886A
:1059300000207047C26813796FF3C713137181F3A6
:1059400010880020704700BFEFF3108C012383F311
:105950001088437873B9C268117963F386111171A5
:10596000117A63F3861111728CF31088002343605F
:1059700018467047C3681A796FF3C7121A711A7AFA
:105980006FF3C7121A72EFE738B5037A0446002B9B
:105990003AD00021C368427833F8125023F812102D
:1059A000ADB2EFF3108C012383F31088E3684078E5
:1059B0001A7900283DD061F3C7121A711A7F42F09C
:1059C00080021A771A7A42F080021A721A7942F02B
:1059D00080021A718CF310880121042000F044FC2D
:1059E000EFF31081012383F3108862788ABBE068AB
:1059F000037F62F38613037781F31088E36862788C
:105A0000002023F8125038BDEFF31083012282F3F7
:105A100010884278C1683AB10A7942F080020A716E
:105A200083F31088002038BD0A7942F040020A71E1
:105A3000F6E760F386121A711A7F42F040021A7775
:105A40001A7A42F040021A721A7942F040021A7130
:105A5000C0E7E268137F6FF3C7131377CCE700BF8B
:105A600010B400244FEAC01C0CF1804C1F2894BFD6
:105A70000CF5322C0CF5352CDCF80030C3F38072B9
:105A80004A71DA0F0A7123F060430B60DCF80430CE
:105A9000134A1B0FD25C8C608A710CF10C0342B16B
:105AA0000C320B31944413F8012B634501F8012F9C
:105AB000F9D11F280CD801220A4902FA00F0D1F8C6
:105AC000B0305DF8044B23EA0000C1F8B000704725
:105AD000FF22044B20305DF8044B43F82020704730
