:020000040804EE
:1000000000000824515905089D59050851B10408FC
:1000100057B104085DB1040863B104080000000092
:10002000000000000000000000000000C9380408C3
:100030009D5905080000000063390408733904085D
:100040009D5905089D5905089D5905089D590508A4
:100050009D5905089D5905089D5905089D59050894
:100060009D5905089D5905089D5905089D59050884
:100070009D5905089D5905089D5905089D59050874
:100080009D5905089D5905089D59050805660508EF
:100090001566050811660508216605089D590508BD
:1000A0009D5905089D5905089D5905089D59050844
:1000B0009D5905089D5905089D5905089D59050834
:1000C0009D5905089D5905089D5905089D59050824
:1000D0009D5905089D5905089D5905089D59050814
:1000E0009D5905089D590508000000009D59050807
:1000F0009D5905089D5905089D5905089D590508F4
:100100009D5905086D5605089D5905089D59050816
:100110009D5905089D5905089D5905089D590508D3
:100120009D5905089D5905089D5905089D590508C3
:100130009D5905087B6704089D5905089D590508C8
:100140009D5905089D5905080000000000000000A9
:100150009D5905089D5905089D5905089D59050893
:100160009D5905089D5905089D5905089D59050883
:100170009D5905089D5905089D5905080000000076
:100180009D5905089D5905089D5905089D59050863
:100190009D5905089D5905089D5905089D59050853
:1001A0009D5905089D5905089D5905089D59050843
:1001B0009D5905089D5905089D5905089D59050833
:1001C0009D5905089D5905089D5905089D59050823
:1001D0009D5905089D5905089D5905089D59050813
:1001E0009D5905089D5905089D5905089D59050803
:1001F0009D5905089D5905089D5905089D590508F3
:100200009D5905089D5905089D5905089D590508E2
:100210009D5905089D5905089D5905089D590508D2
:100220009D5905089D5905089D5905089D590508C2
:100230009D5905084D5905089D5905089D59050802
:100240009D5905089D5905089D5905089D590508A2
:100250009D5905089D5905089D5905089D59050892
:100260009D5905089D5905089D5905089D59050882
:100270009D5905089D5905089D5905089D59050872
:100280009D5905089D5905089D5905080000000065
:100290009D5905089D59050810B5054C237833B9BB
:1002A000044B13B10448AFF300800123237010BD49
:1002B00040180024000000002473060808B5034B12
:1002C0001BB103490348AFF3008008BD00000000E4
:1002D0004418002424730608154B002B08BF134B49
:1002E0009D46A3F5803A00218B460F461348144AD9
:1002F000121A1CF04DFD0F4B002B00D098470E4BEF
:10030000002B00D098470020002104000D000D486C
:10031000002802D00C480BF0D1FD1CF037F820006B
:10032000290005F0C1FC0BF0DBFF00BF0000080056
:100330000000082400000000055C040840180024A8
:1003400000000124BDBE040800000000014B012292
:100350001A707047781800247FB56C46164D174EFA
:10036000204600F01BFB94E80F0085E80F002846AC
:1003700000F06CFB2946204600F074FB94E8030073
:100380000F4C30602846317100F074FB042220606D
:100390000C49002001F072FA304600F02BF90121DF
:1003A000304600F06DF9204600F0DFFA0121A72069
:1003B00003F0DCF904B070BD681800245C18002458
:1003C000641800244D0304080F4B1A7810B502F08E
:1003D000FF0432B100220D48BDE810401A7000F051
:1003E000B1BA0121A72003F041FA4FF47A7003F06B
:1003F00023F92146A72003F039FA4FF47A70BDE8BB
:10040000104003F019B900BF781800245C180024CC
:1004100008B5054800F0C2FA044800F0BDF80448E9
:10042000BDE8084000F09EBA681800245C1800245B
:100430006418002470B5036804460D463621DB6A53
:1004400098472368294620461B689847236820461A
:100450005B6B9847236802223621DB6B2046984766
:10046000236820465B6998472368054620465B69F8
:1004700098472368064620465B6B984745EA062066
:1004800080B270BD70B5036804460E463621DB6A43
:10049000154698472368314620461B6898472368CD
:1004A000290A20461B6898472368E9B220461B6842
:1004B0009847236820465B6BBDE8704018470000F2
:1004C000C82140F6B832C0E90012014A8260704784
:1004D000DC1A00240000000038B5002104468068C2
:1004E000FFF7A8FF830752D5BA21A068FFF7A2FF44
:1004F000902205466021A068FFF7C4FF0022BA21C0
:10050000A068FFF7BFFF00226021A068FFF7BAFFD5
:10051000D4ED017A3A21A068B8EEE76B9FED1C5B41
:1005200086EE057BBCEEC77B17EE103A9AB2FFF75A
:10053000A9FFD4ED007A1821A068B8EEE77B37EE6A
:10054000077BBCEEC77B17EE103A9AB2FFF79AFF13
:1005500040F286221E21A068FFF794FF4FF400426C
:10056000DB21A068FFF78EFF2A46BA21A068FFF7BB
:1005700089FFA46800212046FFF75CFF4FF6FD725B
:10058000002102402046BDE83840FFF77BBF38BD60
:10059000000000000000B43F00220271704700001C
:1005A000002313B50371044601600EF039FC0328E3
:1005B00009D1064B1B681846019300F04BFE10B1A1
:1005C000019800F057FE204602B010BD5C1F0024C9
:1005D00010B500680C4631B100F0ACFA0021BDE85E
:1005E000104000F002BB00F0A5FA2146BDE8104023
:1005F00000F000BB037913B9012303717047022B8C
:10060000FCD10323F9E738B504460D46006891B1E3
:1006100000F090FA002100F0D4FA206800F08AFA85
:10062000022100F0CEFA206800F084FA0121BDE832
:10063000384000F0C6BA00F07DFA294600F0C6FA4C
:10064000206800F077FA022100F0C0FA206800F07C
:1006500071FA0121BDE8384000F0B8BA10B5006861
:100660000C4631B100F066FA0021BDE8104000F000
:10067000B2BA00F05FFA2146BDE8104000F0B0BA0F
:1006800038B504460D46FFF7E9FF29462046FFF737
:100690009FFF29462046BDE83840FFF7B4BF000061
:1006A000012970B50646C4B00D4600F035818C1E98
:1006B0000BF01AF8304600F0A9FD002011F002FFFF
:1006C0004FF4804011F030FE4FF0B0430022032D74
:1006D000E4B2C3F880204FF40052C3F890208F4A50
:1006E000D3F8A01002EA0102C3F8A0200CD1012225
:1006F0004FF480313A200EF093FA01224FF480310A
:1007000013200EF08DFA01E0012CF6D94FF0B04322
:10071000032DD3F888206FEA92526FEA8252C3F811
:100720008820D3F8982042F42022C3F89820D3F8E8
:10073000A82042F4E802C3F8A82040F081800120FC
:1007400011F002FF022011F0FFFE042011F0FCFE68
:10075000082011F0F9FE102011F0F6FE202011F013
:10076000F3FE3F2011F0F8FE08200123CDE9140329
:10077000002314A8169311F0AFFE694A01A8136F65
:1007800043F400431367082301930123069312F0F7
:1007900031F94FF4800314A814934FF4007341937C
:1007A00012F04EFF5F4BCA225A6253225A62DA6835
:1007B00042F08002DA60DA685206FCD59A6822F0CC
:1007C00040029A601A6942F4FE021A611A6922F420
:1007D000FF4222F07F0242F0FF021A61DA6822F043
:1007E0008002DA609A6822F480429A609A6822F461
:1007F00080629A604B4AD3685B07FCD553694FF01F
:10080000B0411B0C1B0443F00A035361936823F0AF
:10081000070343F004039360936843F480439360B9
:10082000936843F4806393600B6843F400230B6088
:10083000D368DBB263F49063D360FF23536201E0BB
:10084000012C9AD94FF0B0434FF0FF31D3F88820F4
:100850006FEA92526FEA8252C3F88820D3F8982048
:1008600042F42022C3F89820D3F8A82042F4E802EA
:10087000C3F8A82000229300013203F16043082A44
:1008800003F56143C3F88010C3F88011F3D1012C44
:1008900007D80022032011460EF026FA03200EF09E
:1008A00055FA1F4B0020204ADA67204AD867C3F860
:1008B000802040F27122C3F88000C3F884201C4AD3
:1008C000C3F88400C3F888201822C3F88800C3F84E
:1008D0008C20184AC3F88C00C3F890204FF49B7208
:1008E000C3F89000C3F89420134AC3F89400C3F8E7
:1008F0009820124AC3F89800C3F89C20104AC3F805
:100900009C00536843F480735360BFF34F8F11F022
:10091000A7FD082044B070BD0620FBE700000AFEDA
:1009200000440258004000583150010023C0000A22
:10093000FF072803FFC3FFE83330D731AADE2000CA
:100940009045025838B5064B05461C68204600F015
:1009500069FC0022002329792046FFF7A1FE38BD5B
:100960005C1F002470470160704710B504460122E7
:100970008921006800F098F88921206800F0B6F815
:10098000431E5842584110BD7047704710B5044689
:1009900010210BF015FD204610BD000038B50446AF
:1009A00024480378BFF35B8FDB0712D40BF094FA73
:1009B00078B108222049214800F022F91F4D204B30
:1009C0001C482B600BF0AAFA1E4A28461E490BF061
:1009D00073FA0C200BF0C0FC1849054600F04DF8E6
:1009E000E56008200BF0B8FCE1680546FFF7D8FD8C
:1009F000656004200BF0B0FCE1680546FFF7B3FF2B
:100A0000A5600C200BF0A8FC0546FFF759FD0EE091
:100A100008480BF089FC18F0EFFB0C2128460BF07E
:100A2000CFFCF8E70821F9E70421F7E7F5E72560AF
:100A3000204638BD7C180024DC1A002480180024CD
:100A4000C02C0608000000248909040810B50446DB
:100A5000C06800F01BF820B12068BDE81040FFF727
:100A60003BBD10BD4A68034692E8030083E80300DB
:100A70001846704783681868704710B5044600F040
:100A800075F800232046A36010BD000010B5044691
:100A9000806810B1034902F00DFD2046BDE810400A
:100AA00000F066B8162D060870B5044680680D463D
:100AB000164680B10B4902F0F0FC10222946A068CE
:100AC00002F02CFD0849A06802F0E7FC1022314634
:100AD000A06802F025FD324629462046BDE8704058
:100AE00000F04AB8EE2C06080F2D060837B504466C
:100AF0000DF107020D4600F061F8A06888B10B49BE
:100B000002F0CBFC10222946A06802F007FD08493C
:100B1000A06802F0C2FC10229DF80710A06802F045
:100B2000FFFC9DF8070003B030BD00BFCC2C0608C9
:100B30000F2D06087047000010B5074C0822074922
:100B4000204600F05DF8064B2046064A2360064921
:100B5000BDE810400BF0B0B990180024DC1A002456
:100B6000C02C0608000000248909040801607047B1
:100B7000006800F04FB8000070B5044640680D46AC
:100B8000164680B10B4902F088FC102229466068A5
:100B900002F0C4FC0849606802F07FFC1022314674
:100BA000606802F0BDFC324629462068BDE870400E
:100BB00000F06AB8232D06080F2D0608006800F023
:100BC0003DB80A4600684D2100F078B80A46006832
:100BD0004D2100F097B80A460068352100F06EB844
:100BE0000A460068352100F08DB80A4600683B21AE
:100BF00000F064B80A4600683B2100F083B80000AA
:100C000010B502720022024CC260C0E9004110BD62
:100C1000542D060810B5044640680368DB69984700
:100C20006068054903689B6A9847236820469B686B
:100C3000BDE81040184700BFA086010070B504460B
:100C400040680E4615460368217ADB6A984760685B
:100C5000314603681B6898476068002103681B6B76
:100C600098476068217A03689E6B01231A46B04753
:100C7000606803681B6998470028F9DD60680368AD
:100C80005B699847287070BD70B5044640680E4691
:100C900015460368217ADB6A984760683146036825
:100CA0001B6898476068294603681B689847606816
:100CB00001210368BDE870401B6B1847072A73B514
:100CC00005460E46144605D90B4B48210B4A0C48E5
:100CD0001AF0DEFB0DF10702FFF7B0FF01229DF8CD
:100CE00007303146A24028461A43D2B28DF8072079
:100CF000FFF7CAFF02B070BD602D0608EB2D060895
:100D00006C2D0608072A73B505460E46144605D90C
:100D10000C4B52210C4A0D481AF0BAFB0DF1070298
:100D2000FFF78CFF01223146284602FA04F39DF8B2
:100D3000072022EA03028DF80720FFF7A5FF02B083
:100D400070BD00BF602D0608C12D06086C2D060879
:100D50000020704770470368C9B21B6818474900F4
:100D60000023C161C0F82C327047036801211B6B5E
:100D7000184710B403689C6B0123A4465DF8044B2C
:100D80006047D0F82C32B3F5807F1FBF5A1CC0F8E3
:100D90002C22C01880F82C1114BF012000207047AD
:100DA000D0F8280170477047C0F830127047C0F87B
:100DB00034127047D0F82831A3B1D0F828318BB164
:100DC000D0F82431D0F824210344013293F82030A4
:100DD000D2B2C0F82421D0F82821013AC0F8282145
:100DE000184670474FF0FF307047D0F828312BB1CC
:100DF000D0F82431184490F8200070474FF0FF30AD
:100E0000704738B5036804465B6A9847FC200BF0CE
:100E1000A3FAB4F91A20B4F91810054606F020FC1C
:100E2000656138BDFC2128460BF0CAFA18F0E4F9D8
:100E30000B6803604B6843608B688360704738B50C
:100E4000D0F82C321446054600F596701A44184422
:100E5000B2F5807F88BFC3F5807422461BF09AFEEE
:100E6000D5F82C3220462344C5F82C3238BD38B58D
:100E7000044640690D4608B106F007FB206920B121
:100E80002946BDE8384006F043BC38BD07B581F0BF
:100E9000010100F596720091D0F82C32C1694069C9
:100EA00006F006FB002814BF0220002003B05DF806
:100EB00004FB10B50446406920B10368DB6898471D
:100EC0000023636123699BB1D4F838020BF0AEFDB7
:100ED000D4F838020BF00FFED4F8380210B10368D2
:100EE0005B6898479C2120690BF06AFA0023236114
:100EF00010BD70B5C2B083F001030446154602AEC2
:100F00000093490013464069324606F0F2FAC8B928
:100F1000A84218D0D4F82831B3F5807F10D0D4F887
:100F20002031325C234483F82020D4F8203101336F
:100F3000DBB2C4F82031D4F828310133C4F82831A9
:100F40000130E5E70025284642B070BD30B50446C3
:100F5000BDB00025206906F0E4FB0328FAD8DFE8DD
:100F600000F04A021212D4F8343203B19847D4F890
:100F70002C22002AEED004F59671206906F0D5FBEC
:100F8000C4F82C52E6E7C4F82051F022C4F82451EA
:100F90006946C4F82851206906F0C5FB0022824248
:100FA0001DDAD4F82831B3F5807F18D0D4F8283171
:100FB000B3F5807F11D0D4F820311DF802102344FE
:100FC00083F82010D4F820310133DBB2C4F820318B
:100FD000D4F828310133C4F828310132DFE7D4F8DE
:100FE0002831002BB6DDD4F83032002BB2D0D4F843
:100FF00028019847AEE702F03DFBABE70022C26054
:101000007047C3680BB19B681847704738B5002517
:101010004FF47A7304460183428329464FF4807269
:10102000C0E901530A4BC0E90455036020301BF0AE
:10103000AFFEC4F82051C4F82C522046C4F8245105
:10104000C4F83052C4F82851C4F8345238BD00BF37
:10105000382E060810B504460021FFF7CFFF2046C2
:1010600010BD10B50446FFF7CCFF204610BD10B4EC
:10107000D0E9003409686210E4075DF8044B01EB25
:10108000020044BF8A58D35818470146043008B5B7
:10109000FFF7EDFF08BD0000034A0346C26007C921
:1010A00083E80700704700BF182E060810B586B009
:1010B00004460391684606A980E80C0001E90C008B
:1010C000204603A9FFF7E8FF204606B010BD37B55C
:1010D0006C46054684E80C0094E80C00FFF7E6FF38
:1010E000284603B030BD00002DE9F04103680546F5
:1010F00088B00E465B6A98479C200BF02DF9B5F935
:101100001A20B5F91810044606F0E8FA71002046D6
:101110002C6106F0FFFABC200BF01EF904460646CF
:10112000234B04F1400746F8043B3046FFF792FF9B
:10113000002138460BF080FB04F1540840460BF0C8
:101140001BFB1C4B4FF40062182120460093002328
:101150000BF0FAFB184B294604A8C5F83842029355
:101160000023039302AB0CCBFFF7B1FF04A9204689
:101170000BF0F6FB10E040460BF03CFB38460BF062
:1011800084FB3046FFF76DFFBC2120460BF018F9B9
:1011900018F032F8F2E7F4E704A8FFF762FF08B0AE
:1011A000BDE8F0819C21F0E704A8FFF75AFFEFE7C4
:1011B000884C0608242E06084D0F040808B5FFF7D2
:1011C00064FF08BD08B5FFF7F9FF08BD10B50B2097
:1011D00002F0E0F904460C2002F0DCF92146024658
:1011E0000748FFF713FF162217210648FFF70EFFE7
:1011F0007B227C210448BDE81040FFF707BF00BFF9
:10120000A0180024DC1A0024181D0024044B1A69BD
:101210005107FCD1D3F810215207F8D1704700BF15
:101220000020005207B515F05FF90368DB689847A6
:1012300001A8012102F010FA01A802F0CEF901A8DC
:1012400002F0C2F903B05DF804FB01A802F0BCF99A
:1012500017F0D2FF00B595B00123684607930FF051
:10126000F5F8069B13F4800F14BF0520002015B07D
:101270005DF804FB30B542F2044295B00124042528
:10128000104B07940095CDE905230EF039FEA8B95F
:101290000EF074FEA0B968460EF076FF30B10EF085
:1012A0007FFE0EF053FE032015B030BD0EF050FF50
:1012B0000EF076FE0EF04AFE2846F5E72046F3E7EC
:1012C0000220F1E78000000210B5084C2378BFF33C
:1012D0005B8FDB0706D420460AF0FEFD10B12046E6
:1012E0000AF01CFE024B034A1A6010BD541F002472
:1012F0005C1F0024581F0024002070470020704706
:1013000030B5A1F11004002500F00F02CD730239B1
:101310000009D3B2092ACCBF373330330B748C4267
:10132000F2D130BD2DE9FF470024061D05468A464F
:1013300090469946009423464FF0FF32B121304643
:10134000CDE9014406F00DFC29682846DDE90C23AF
:10135000CDE9002342464F694B465146B8470094B9
:1013600023464FF0FF32C1213046CDE9014406F05B
:10137000F8FB204604B0BDE8F0872DE9D04F9B462E
:101380000368924604469B6ADDE90889984702464D
:101390000B465046594618F06DFF134302D000200B
:1013A000BDE8D08F236820469B6A984702460B46CB
:1013B0004046494618F05EFF1343F0D11AEB080689
:1013C000236820464BEB09079B6B9847B94208BF3F
:1013D000B0422CBF01200020E2E701682DE9F04176
:1013E00014461D46096B0646884702460B462046B2
:1013F000294618F03FFF134302D00020BDE8F081DA
:10140000DDE906233046A71845EB030817F1FF3244
:101410003368196B48F1FF33884702460B4638465C
:10142000414618F027FF1343E7D1336830469B6BE2
:101430009847414508BFB8422CBF01200020DDE796
:101440002DE9D04F9B460368924604465B6ADDE96E
:101450000889984702460B465046594618F00AFF3D
:10146000134302D00020BDE8D08F236820465B6A7A
:10147000984702460B464046494618F0FBFE134388
:10148000F0D11AEB0806236820464BEB09079B6B4B
:101490009847B94208BFB0422CBF01200020E2E7C4
:1014A000C2207047244830B5037887B0BFF35B8F04
:1014B00013F001041CD10AF00FFDC8B11F4B6622C6
:1014C0003B211F48CDE903435A23CDE901323D2397
:1014D0003C22009357230CF093FC194C194B1648EF
:1014E00023600AF01BFD184A204618490AF0E4FC64
:1014F00013480CF0C3FE164D1A220023294610484B
:10150000CDE9002300230022FFF70CFF2B780446CF
:10151000B52B04D10F4B01221D600F4B1A700848E8
:101520000CF004FDB4FA84F0400907B030BD024865
:101530000AF0FAFE17F060FE841F0024005A6202CF
:10154000901F0024902E06080000002409170408AC
:101550009821002404000024881F002410B50446AC
:101560000DF03AFB2146FFF7CBFE0DF03BFB04F1FB
:101570001001FFF7C5FE0DF03BFB04F12001FFF762
:10158000BFFE302010BD000008B54DF65972002195
:10159000074812F05DFEBFF34F8F0649064BCA683D
:1015A00002F4E0621343CB60BFF34F8F00BFFDE74F
:1015B000601F002400ED00E00400FA0510B50446A9
:1015C000FFF71FFD204610BD064B10B50446036013
:1015D000806A08B109F092FA201DFFF7EFFF20465C
:1015E00010BD00BFEC3A060800B5C3B016221721A3
:1015F00003A806F035F84FF4A17302AA1021ADF844
:101600000830002303A80093022305F051FF03A82C
:10161000FFF7DAFF43B05DF804FB03A8FFF7D4FF40
:1016200017F0EAFD1D4B01211D4AA62070B51A6076
:1016300002F09CF80121A62002F018F9FFF7D4FF70
:10164000184B43F2D2021A60FFF72CFF164B1B789F
:1016500033B1164B1B689A8840F209439A421BD853
:10166000134B9B6D03F46043B3F5004F14D001F0AE
:10167000C5FF104D044601F0D3FF064601F0D0FF30
:10168000801BA842FAD901F0B9FF001B642803D0DF
:10169000BDE8704016F0C8BA70BD00BF601F0024DE
:1016A0000040005800400052881F0024040000241D
:1016B000004402589F86010010B50446FFF784FFDE
:1016C000FC2120460AF07CFE204610BD38B5074BB1
:1016D0000546044645F8BC3B0CF028FC28460BF0B8
:1016E00089F8201D06F07CFA204638BDA858060867
:1016F00010B50446FFF7EAFF4FF4027120460AF0E6
:101700005FFE204610BD0000034B10B50446036089
:10171000FFF7DCFF204610BD902E060810B50446EA
:10172000FFF7F2FF4FF4027120460AF049FE20460F
:1017300010BD000038B50546FFF7B2FE854209D25C
:10174000054C04EB0514606820B103685B6898479A
:101750000023636038BD00BF0800002403680868E8
:10176000184708B5011DFFF7F9FF08BD044A0346F5
:10177000C260002203C99A6083E80300704700BF7B
:10178000E02E060813B50446CDE900126946FFF7BE
:10179000EDFF204602B010BD10B50446FFF7F2FF82
:1017A000204610BD2DE9F04F044685B08846174607
:1017B0009946FFF775FE844249D22F4D4FEA041A2D
:1017C00005EB0A02526812B12046FFF7B3FF20462C
:1017D00001F0E0FE834650200AF0BEFD5946064661
:1017E00005F0C8FF022F4A464146684612D1FFF76E
:1017F000D3FF6946304606F001F86846FFF731FC32
:10180000414668464A46FFF7C7FF6946304606F03C
:1018100012F80EE0032F06D1FFF7BEFF69463046EF
:1018200006F009F805E0FFF7B7FF6946304605F016
:10183000E5FF6846FFF715FC05EB0A03D9685E6013
:1018400029B9032F06D10221204601F045FF05B03A
:10185000BDE8F08F042F08BF0321F5E75021304683
:101860000AF0AEFD17F0C8FC6846FFF7FAFBF9E78F
:10187000FAE7F9E7F8E700BF080000240023FFF7C4
:1018800091BF08B5FFF76DFF08BD08B5FFF7F9FF79
:1018900008BD70B590F8383105461446F3B90368B1
:1018A000DB69984704F4706304F00F02B3F5407FDE
:1018B00004F0F0030CBF07210821302B0CBF0223DA
:1018C0000123012A08D0901E42424241A869BDE886
:1018D0007040006806F05EBA0222F7E770BD10B5EE
:1018E00090F8383104462BB9A369186806F094FAC9
:1018F0000028F9D010BD38B590F838510446A5B984
:1019000083695BB1186848B10368DB689847A369CD
:1019100004211D60A0690AF053FDA5610023C4F8ED
:101920002831C4F82C31C4F8303138BD13B590F8E3
:10193000383104466BBBA369186806F043FA40B31C
:1019400009F0D2FEA36901220DF1070118680368AE
:101950005B699847D4F83031B3F5807F16D0D4F85E
:101960003031B3F5807F11D0D4F828319DF80720AD
:10197000234483F82820D4F828310133DBB2C4F89B
:101980002831D4F830310133C4F8303109F0C2FEC7
:10199000D1E702B010BD000008B590F838313BB176
:1019A000012001F049FE0648BDE8084001F059BA9F
:1019B00082691AB11368003318BF0123184608BDA5
:1019C000382C002470B504460D4601F04AFA30B1B7
:1019D0002368294620461B6CBDE87040184770BD3F
:1019E000A0F59860EEE7000013B590F83831044692
:1019F0008DF807102BB1C9B20B48FFF7E3FF02B017
:101A000010BDA369186806F007FA0028F9D0A36989
:101A100001220DF10701186803681B69984701301E
:101A200018BF0120EBE700BF382C00242DE9F0415E
:101A300007468846164601F014FA80B10024A642F3
:101A40000ED9351B08EB04013846B5F5007F28BFD9
:101A50004FF400752A462C4400F044FFEFE704469B
:101A60002046BDE8F081A0F59860DFE770B590F8FA
:101A7000383105460E4614462BB10F48FFF7D6FF06
:101A80000446204670BDAB69186806F0C5F9002809
:101A9000F9D0AB6901211868D0F8883088301B6B09
:101AA0009847AB6922463146186803681B69984716
:101AB000013008BF0024E4E7382C002430B5044688
:101AC000C3B001F0B9F90546D4F8D835C3F5807331
:101AD000984203DDD4F8D855C5F580752A4601AB88
:101AE00002A9204600F0F5FF019902AB00226D1A11
:101AF0001D44D4F8D835B3F5807F19D08A4217D069
:101B0000D4F8D835B3F5807F10D0D4F8D035A85CA0
:101B1000234483F8D004D4F8D0350133DBB2C4F8C1
:101B2000D035D4F8D8350133C4F8D8350132E0E7E0
:101B300043B030BD38B5044600F0BCFB2046FFF78B
:101B4000BDFFD4F8D855204600F0BCFB284638BD70
:101B5000A0F59860EEE7000010B590F83831044623
:101B60002BB10648FFF7E6FF0446204610BD09F0FA
:101B7000BBFDD4F8304109F0CDFDF6E7382C002448
:101B800038B5044600F096FB2046FFF797FFD4F8DF
:101B9000D8354BB1D4F8D435234493F8D0542046EB
:101BA00000F090FB284638BD4FF0FF35F7E7A0F571
:101BB0009860E5E710B590F8383104462BB10B4832
:101BC000FFF7DEFF0446204610BD09F08DFDD4F876
:101BD00030313BB1D4F82C01044494F8284009F08A
:101BE00099FDF0E74FF0FF34F9E700BF382C0024EF
:101BF00038B5044600F05EFB2046FFF75FFFD4F8DF
:101C0000D835A3B1D4F8D435234493F8D054D4F8BC
:101C1000D4350133DBB2C4F8D435D4F8D835013B20
:101C2000C4F8D835204600F04DFB284638BD4FF0AB
:101C3000FF35F7E7A0F59860DAE7000010B590F8F7
:101C4000383104462BB11148FFF7D2FF0446204635
:101C500010BD09F049FDD4F830319BB1D4F82C31D6
:101C6000234493F82800D4F82C310133DBB2C4F8B4
:101C70002C31D4F83031013BC4F83031044609F03E
:101C800049FDE4E74FF0FF34F9E700BF382C0024AA
:101C900008B54FF4807200211BF07AF80022C0F8DA
:101CA0000021C0F80421C0F8082108BD10B4D0E913
:101CB000003409686210E4075DF8044B01EB020090
:101CC00044BF8A58D35818470146043008B5FFF777
:101CD000EDFF08BD034A0346C26007C983E8070059
:101CE000704700BFEC2E060810B586B0044603917D
:101CF000684606A980E80C0001E90C00204603A90B
:101D0000FFF7E8FF204606B010BD37B56C46054624
:101D100084E80C0094E80C00FFF7E6FF284603B0C7
:101D200030BD000070B590F8383186B004460E46DC
:101D3000002B3BD1856925B904200AF00DFBA06179
:101D40000560A369186850BB8C200AF005FB334678
:101D5000B4F922200546B4F9201006F059FBA36916
:101D60001D60B4F92420531C06D0A0690321B4F9E6
:101D70002630006806F05AFBA3691D68B5B1114B07
:101D80000026214602A800936B4601960CCBFFF774
:101D9000BCFF324602A9284606F0A4F803E031460B
:101DA00005F0E5FFDDE702A8FFF75BF906B070BDBF
:101DB0008C2128460AF004FB17F01EFA02A8FFF750
:101DC00050F9F9E72D19040808B5FFF77DFF08BDA4
:101DD00008B5FFF7F9FF08BD2DE9F84300242D4DA4
:101DE0004FF47A782C4F202605F128002F60EC6103
:101DF000C5E90148C5E90564FFF74AFF01230E2044
:101E000085F8383101F0C6FB244D81460D2001F0E4
:101E1000C1FBA5F820904FF6FF79688405F12800F2
:101E20002F60EC61A5F82490A5F82690C5E901483B
:101E3000C5E90564FFF72CFF85F838410F23184DDD
:101E40002B84562305F128002F606B845823EC6106
:101E5000AB845923C5E90148EB84C5E90564FFF764
:101E600017FF85F8384198230E4D2B84992305F1EF
:101E700028002F60EC616B84A5F82490A5F82690CB
:101E8000C5E90148C5E90564FFF702FF85F8384157
:101E9000BDE8F88368250024002F0608B42100243B
:101EA000F02200242C240024002070477047704743
:101EB00010B5D0F88C452CB1236820465B68984754
:101EC000A468F8E710BD38B50D46D0F88C4534B19C
:101ED0002368204629469B689847A468F7E738BDE1
:101EE00000487047C02F0608054B10B50446036034
:101EF00007F060FD204607F003FE204610BD00BF3E
:101F0000402F060810B50446FFF7EEFF4FF4B2610C
:101F100020460AF055FA204610BDF7B500230546C5
:101F20000E46D0F88C45A4B1236831460DF103026A
:101F30002046DF6801ABB8479DF80310034604292B
:101F400005D0019A284606F0E1FF03B0F0BDA46871
:101F5000E9E7019A9DF80310F4E770B505460E46CF
:101F600022B10021BDE8704006F0D2BDD0F88C450A
:101F70005CB123680022314620461B69984710B1A6
:101F800001212846EEE7A468F2E72146F9E770B59B
:101F90000E460546D0F88C4500213CB123683146F9
:101FA00020465B699847A4680146F6E72846BDE8E5
:101FB000704006F0A7BEF8B505460E461746D0F8A5
:101FC0008C453CB1236820463A4631469B69984788
:101FD000A468F6E728460121BDE8F84006F0F0BE07
:101FE00070B5002186B0044607F041F900234FF494
:101FF0008975A188EF26ADF806302389ADF8045025
:1020000002258DF810301B0AE2888DF8113040F25D
:1020100001238DF80750ADF8123040F203138DF80C
:1020200009500125ADF8143004F10A038DF8086059
:1020300005AE8DF80A501C468DF80C1001AD090A4A
:102040008DF80E20120A8DF80B008DF80D108DF80A
:102050000F202A46083303CAB24243F8080C43F85B
:10206000041C1546F5D1128820461A8006B070BDB2
:10207000F8B5002406460D46274630461BF080FB87
:10208000A04207D9335D05F8143005EB4403013451
:102090005F70F2E7400000F0FE00F8BD38B504467E
:1020A000D0F88C5535B12B6828461B6A984710B973
:1020B000AD68F7E7284640F2023304F24A51A4F82B
:1020C0004835FFF7D5FF94F84835184484F848059B
:1020D00004F5A96038BD000040F2023300F20A5155
:1020E00010B50446A0F808350548FFF7C1FF94F87D
:1020F0000835184484F8080504F5A16010BD00BF38
:102100002C2F060840F2023310B50446A0F8C8345C
:1021100000F2CA40FFF722FA94F8C834184484F851
:10212000C80404F5996010BD2DE9FF4100231D4A44
:10213000044600F54E788DF80A30092590F8883568
:102140000192FA228DF8083001238DF80C208DF8C9
:102150000930C0238DF80B3001AB03CBC4F8380332
:10216000C8F8041088F80820D4F88C658EB133685C
:10217000002130461B689847478805F54E7300F1EB
:102180000901093FE0183A463D441AF003FDB668DC
:10219000ECE784F83A5340462D1284F83B5304B0E0
:1021A000BDE8F0810902FFFF73B504460D461646EF
:1021B00014F09AF94FF4807301462A4620460093A2
:1021C000334607F05BFC024B2046236002B070BD33
:1021D000402F060810B5D0F88C350446A3B9C0F8D6
:1021E0008C1594F8883508464A790B7194F888352F
:1021F000134484F888350B685B6A98472389184430
:102200002081012010BD13469A68002AFBD19960F5
:10221000E7E71FB5044607F025F80146684606F0D3
:10222000CDF94021684606F037FAD4F88C4534B130
:10223000236869462046DB699847A468F7E7684643
:1022400006F0C3F904B010BD684606F0BEF916F0FA
:10225000D3FF10B50446FFF7DCFF2046BDE8104071
:1022600006F080BF0F4808B50378BFF35B8FDB072C
:1022700011D409F031FE70B140F25B2242F24131DB
:102280000948FFF791FF074809F048FE074A084947
:10229000054809F011FE044808BD02480AF044F858
:1022A00016F0AAFFA4260024A8260024000000247B
:1022B000E91E040810B5FFF7D5FF0368BDE810401C
:1022C0005B6F184710B5FFF7CDFF0368BDE81040FE
:1022D0009B6F184710B5FFF7C5FF0368BDE81040B6
:1022E000DB6F184706F034BB06F0F6BA06F020BBE9
:1022F000704770477047436A93F878007047D0F88A
:10230000A404704701207047004870473031060828
:102310002DE9F04794B004460F464B22002101A856
:102320001AF036FD2679D4F8A434751C94F80E9072
:10233000002B94F80C80EDB294F80DE014BF05204A
:102340000020002F40F0938040F2092309218DF8EE
:102350001D0042F20540ADF804304FF481738DF852
:1023600015100121ADF808308023ADF81E001020B3
:102370008DF80B3032234FF0040A24278DF80C30EF
:1023800008234FF0030C4B228DF80D300B238DF8F2
:1023900019101D348DF80E3040F202238DF81C10F8
:1023A000ADF8103002238DF8210005208DF82210A1
:1023B0008DF825108DF8271006218DF806208DF850
:1023C0000F608DF812308DF817608DF81A308DF887
:1023D0001B308DF823008DF826C08DF82A308DF83B
:1023E0002B108DF82C008DF816A08DF824708DF828
:1023F00028A08DF829708DF82D708DF82E100721EA
:102400008DF82F6041F202068DF831108DF84110E1
:1024100040F207518DF83050ADF8366040F2094671
:102420008DF83A5040F602258DF832008DF84200C2
:102430002046ADF848100DEB0A018DF833908DF869
:1024400034C0ADF83860ADF83C508DF843808DF85D
:1024500044308DF846308DF84AE08DF84B308DF8D9
:102460004D301AF097FB204614B0BDE8F0870020ED
:10247000FAE700000A4B10B504460360FFF7F2FECE
:1024800007F098FA04F5247006F0A0F904F17C0036
:1024900006F09CF904F1700006F098F9204610BD92
:1024A000F030060810B50446FFF7E4FF4FF49561DD
:1024B000204609F085FF204610BDFFF70BBF000046
:1024C000034B10B50446036006F040F8204610BDEB
:1024D0000830060810B50446FFF7F2FF2821204611
:1024E00009F06EFF204610BD034B10B50446036093
:1024F00006F02CF8204610BDD82F060810B504466B
:10250000FFF7F2FF3421204609F05AFF204610BDA4
:10251000034B10B50446036006F018F8204610BDC2
:10252000F02F060810B50446FFF7F2FF38212046C9
:1025300009F046FF204610BD38B51E4B0D46044637
:102540004FF400721968C0F80F1099889B79A0F8B1
:10255000131002214375284606F094F84FF40072D8
:1025600020730221284606F092F84FF4007260733F
:102570000321284606F086F8A073284606F026F8C0
:1025800020B9AF220C490D4808F0C2FF04F18502C2
:102590000023C4F8882204F2992284F8783084F861
:1025A0008430C4F88C3284F89832C4F89C24C4F87F
:1025B000A03438BD24300608CB300608D6300608D3
:1025C0002DE9F34104460E461546FFF783FEF288D7
:1025D00023799A4237D1002D35D17778012F2ED12A
:1025E000F378202B27D13289072A24D104F10F0850
:1025F00004F11605404629461AF09AFAD0B1D4F8EB
:102600001630C4F80F30638B207CE17BA4F81330C4
:1026100001EB0021E57C607C237F01EB004100950C
:10262000A07C2568637501EB0061237D2046627DF7
:102630006D6BA8473D46F378212B08BF012528463E
:1026400002B0BDE8F0810025F9E710B50446FFF7B8
:1026500041FEFFF707FE217B07F050F804F18503E8
:1026600004F17C00C4F888320023C4F88C3284F86A
:10267000843006F060F894F884302BB92368204643
:10268000DB6BBDE81040184710BD000070B5044674
:10269000FFF720FED4F8A0542DB140F2DD120F490F
:1026A0000F4808F035FF04F29923C4F89C34FFF773
:1026B000D9FD617B06F07EFF84F89852C4F8A0042F
:1026C00004F5247006F037F894F898322BB9236893
:1026D00020469B6BBDE87040184770BDCB300608A4
:1026E0003030060802232DE9F041437100230446EF
:1026F000054683609046144B04F17C0645F8703B18
:10270000284606F00BF8304606F008F804F5247762
:10271000384606F003F8C4F8A484FFF7A3FD214669
:10272000FFF758FD0CE0384606F050F8304606F04A
:102730004DF8284606F04AF816F05EFDF6E7F8E791
:102740002046BDE8F08100BFF030060870B50446B1
:102750000D46FFF7BFFD84F87850002D3ED194F868
:10276000843033B1FFF77EFD217B06F09BFD84F8BA
:10277000845004F1850304F17C0600253046C4F83A
:102780008832C4F88C5205F0D6FF304605F0CCFFF5
:1027900028B94FF4A2721449144808F0B9FE94F80D
:1027A000983233B1FFF75EFD217B06F07BFD84F8A4
:1027B000985204F2992304F52475C4F89C3400233C
:1027C0002846C4F8A03405F0B6FF284605F0ACFF53
:1027D00020B94FF4A77204490548DEE704F1700000
:1027E000BDE8704005F0A7BFCB3006083E300608B4
:1027F0004F30060810B50446FFF76CFD0021204657
:10280000BDE81040FFF7A2BF38B50D460446FFF7FC
:1028100061FD042D05D020460021BDE83840FFF7BA
:1028200095BF38BDF8B5164604460D461F46FFF75E
:1028300051FD0423EA88337023799A4225D16978BF
:10284000012922D1EA78212A08D0222A0BD0202A75
:102850004FF000001BD13070163401E00F3431709E
:1028600007203C60F8BDAB88204613F0010308BF89
:102870001946FFF76BFFAB8803F00103E366AB88F3
:1028800003F00203A366022333700020EAE7032368
:102890003370E7E710B58AB00446FFF70BFD6846D2
:1028A00005F044FE0D4B694604F170000093099455
:1028B00005F059FF2046FFF705FD094B002168464A
:1028C0001A6805F0F9FD6846FFF7FAFD0AB010BD79
:1028D0006846FFF7F5FD16F08FFC00BF08300608CC
:1028E0002C30060870B58EB004460E461546FFF72C
:1028F000E1FC01A805F01AFE114B01A904F17C00CE
:10290000019300230C958DF83430CDE90A4605F08B
:102910002AFF2046FFF7D6FC0A4B002101A81A68BF
:1029200005F0CAFD04E001A8FFF7DEFD16F064FC27
:102930009DF8344001A8FFF7D7FD20460EB070BDCA
:10294000D82F06082C30060810B50446FFF7C2FC45
:1029500094F884307BB9D4F88C3263B1FFF782FCF1
:10296000D4F88C3204F18502217B06F063FE10B1AD
:10297000012384F8843010BD2DE9F8431E46044637
:10298000894690469DF82070FFF794FC0023336041
:1029900094F87830E3B194F88430CBB9D4F88C5201
:1029A000C5F50075454528BF4546B8F1000F05D06F
:1029B0002A464946D4F888021AF0ECF8D4F88C324A
:1029C0002B44C4F88C32356017B12046FFF7BCFFAA
:1029D0002046BDE8F843FFF775BCF0B50446406AF1
:1029E00085B0012690F878502DB984F830503546DE
:1029F000284605B0F0BD04AB0027D4E90A1243F81D
:102A0000047D0096FFF7B8FF0399E36AA26A5B1A98
:102A10000A44E362A26213B984F83060E8E7606AAE
:102A20003D46FFF791FFE3E72DE9F0431C4691B0E7
:102A3000054689469046FFF73DFC002C4FF0000606
:102A400002A806BF01AC01270027266005F06EFD35
:102A5000134B02A905F5247002938DF83C708DF894
:102A60003D60CDE90B59CDE90D8405F07CFE28468B
:102A7000FFF728FC0B4B314602A81A6805F01CFD35
:102A800004E002A8FFF744FD16F0B6FB9DF83D40B8
:102A900002A8FFF73DFD204611B0BDE8F08300BF5E
:102AA000F02F06082C30060810B5D0F8A0340446E4
:102AB00073B990F898325BB9FFF7D4FB4FF4007309
:102AC00004F29922617B06F015FD012384F8983207
:102AD00010BD70B504461E4600230846336094F8C6
:102AE0007830EBB194F89832D3B9D4F8A054D4F834
:102AF0009C14954228BF15462A461AF04BF83560BB
:102B0000D4F89C34D4F8A0242B44551BC4F89C342E
:102B1000C4F8A05425B92046BDE87040FFF7C4BFF3
:102B200070BD37B50446406A90F878502DB984F8E6
:102B300035500125284603B030BD02AB002243F8D2
:102B4000042DD4E90A12FFF7C4FF0199A26A0A44CE
:102B5000A262226B13680B4413600199E36A5B1A4B
:102B600094F83410E36209B9126802B91BB9012361
:102B700084F83530DEE7606A0025FFF795FFD9E776
:102B800010B50446FEF766FA204610BD10B4D0E931
:102B9000003409686210E4075DF8044B01EB0200A1
:102BA00044BF8A58D35818470146043008B5FFF788
:102BB000EDFF08BD034A0346C26007C983E807006A
:102BC000704700BF1830060810B586B00446039160
:102BD000684606A980E80C0001E90C00204603A91C
:102BE000FFF7E8FF204606B010BD37B56C46054636
:102BF00084E80C0094E80C00FFF7E6FF284603B0D9
:102C000030BD0000F0B58BB00546FFF763FB06ACA6
:102C1000FFF728FBAF7B064600212046FFF7B0FFF9
:102C2000009403234FF400723946304606F0B4FA9C
:102C30002046FEF716FAFFF715FB234B06462F7BBF
:102C40000293002329462046039302AB0CCBFFF7E7
:102C5000CCFF009402234FF400723946304606F050
:102C60009BFA2046FEF7FDF9FFF7FCFA174B0646E4
:102C70006F7B0493002329462046059304AB0CCBBD
:102C8000FFF7B3FF009402234FF400723946304639
:102C900006F082FA06E02046FEF7E3F916F0ACFAF9
:102CA000F9E7F8E72046FEF7DCF9FFF7DBFA4FF427
:102CB0000073D5F89C24697B06F01CFC012085F884
:102CC00098020BB0F0BD00BF4B2604088D26040807
:102CD00008B5FFF769FF08BD08B5FFF7F9FF08BDA4
:102CE0006FF01500704700290CBF6FF0180000202E
:102CF0007047012070476FF0150070476FF01500A6
:102D000070471120704770477047704703689B6C8D
:102D10001847A0F59860F9E770477047704770470B
:102D200010B50446012000F087FC94F8780010BD2F
:102D3000A0F59860F4E7000038B54FF0FF320123AA
:102D4000FF210B4809F0D8FC0A4D00F057FC04465F
:102D500095F878301BB1012000F06EFCF8E700F028
:102D60004DFC001BC728F6D9BDE83840FEF70CBC67
:102D700070320024382C002407B502AB012243F83E
:102D8000041D1946FFF7AEFD18B1019803B05DF8B8
:102D900004FB4FF0FF30F9E7A0F59560FFF7ECBFBB
:102DA00007B5002302A9012201F8013DFFF73CFE0F
:102DB00020B19DF8070003B05DF804FB4FF0FF3031
:102DC000F9E7A0F59560FFF7EBBF2DE9F84304465E
:102DD000884617461E46089DFFF77CFAD4F8F09502
:102DE000B9F1000F04D02B46324639464046C84759
:102DF000C4F8E085C4F8E475C4F8E865C4F8EC5597
:102E0000BDE8F883B0F5966F03D10121014809F0C0
:102E100055BC704770320024006870470C30704712
:102E200008B5FFF7FBFF0023036008BDCB68C36054
:102E30000BB15B681847704738B50546FFF73AFA9B
:102E400095F898325BB9D5F8A044B4F5007F28BF57
:102E50004FF400742846FFF735FA204638BD0024A9
:102E6000F8E790F878007047114B03F1780270B5DD
:102E700003600446C0F8A82400F2F45603F1D80217
:102E800000F23465E833C0F8AC24C0F8C034AE4278
:102E900004D0103D2846FEF7E4F8F8E704F5956005
:102EA00007F0AAFF2046FFF7E5FA204670BD00BFF5
:102EB0000C320608A0F59560FFF7D6BFA0F2AC4033
:102EC000FFF7D2BF10B50446FFF7CEFF4FF4C7613E
:102ED000204609F075FA204610BDA0F2AC40FFF77D
:102EE000F1BFA0F59560FFF7EDBF00002DE9F743B6
:102EF00004461E468846154613F0F6FABDF82C30F7
:102F000004F59567014601932A46BDF8283020460E
:102F100000933346FFF7E6FB0021384607F042FFF7
:102F20004FF47A73002504F2F45904F59A60C4F85A
:102F3000C8342946204B4E46C4F8C45403F17802E5
:102F40002360C4F8A82403F1D802E833C4F8AC2401
:102F50004FF48072C4F8C03419F01AFFC4F8D05589
:102F6000C4F8D455C4F8D85504F234653046103648
:102F7000FEF770F8B542F9D10023C4F83436C4F82E
:102F8000F035B8F1000F13D02046FFF783FC0FE0B7
:102F90004D4504D0103D2846FEF763F8F8E7384663
:102FA00007F02AFF2046FFF765FA16F025F9F9E742
:102FB000204603B0BDE8F0830C320608884238B5DD
:102FC000044606D00D46FEF71CF820462946FFF7BA
:102FD0002DFF204638BD08B5FFF720FF0068003000
:102FE00018BF012008BD000010B50446FFF7F3FF2D
:102FF00028B940F202220649064808F089FAE0683A
:10300000FFF70AFF03462046BDE81040184700BFFF
:10301000ED310608F8310608F8B506460025FFF739
:1030200059F906F2F454D6F83436AB420AD92046A0
:103030002746FFF7D0FF103420B138460135FFF79F
:10304000D3FFF0E7F8BD0000044BC36003460A68F5
:1030500043F8042B002242605A607047543106083E
:1030600013B50446019121B9FFF7DAFE204602B0FC
:1030700010BD01A9FFF7E8FFF8E710B4D0E900346C
:1030800009686210E4075DF8044B01EB020044BFDD
:103090008A58D35818470146043008B5FFF7EDFFAA
:1030A00008BD0000034A0346C26007C983E8070061
:1030B000704700BF4831060810B586B0044603913A
:1030C000684606A980E80C0001E90C00204603A927
:1030D000FFF7E8FF204606B010BD37B56C46054641
:1030E00084E80C0094E80C00FFF7E6FF284603B0E4
:1030F00030BD00002DE9F04188B00446FFF7DAF852
:10310000384B2046C4F8F035FFF7DCF8364B04A8FE
:10311000214602930023039302AB0CCBFFF7DDFFA4
:103120002046FFF7C7F8D4F83406032803D9204611
:10313000FFF7C8F80AE0431C04EB001004A9C4F828
:10314000343600F2F450FFF739FFF0E704A8FDF73A
:1031500088FFBC2009F000F905460646234B05F11F
:10316000400746F8043B3046FDF774FF002138461F
:1031700009F062FB05F15408404609F0FDFA1C4BCA
:103180004FF48072182128460093002309F0DCFBDD
:10319000184904A8C4F8DC55FFF762FF04A92846C3
:1031A00009F0DEFB10E0404609F024FB384609F048
:1031B0006CFB3046FDF755FFBC21284609F000F9AD
:1031C00016F01AF8F2E7F4E704A8FDF74AFF2046E4
:1031D000FEF774FC08B0BDE8F08104A8FDF741FFDC
:1031E000EEE7FAE7052E0408BD1A0408884C060825
:1031F00060310608392D0408A0F59860FFF77ABF02
:103200000368184708B5FFF7FBFF08BD08B5FFF7CF
:1032100042FF08BD08B5FFF7F9FF08BD37B50F4CF1
:103220000F4D204609F03AFA2A460E49204608F08A
:1032300043FE42F2120301220B4CCDE90032002280
:103240004FF4F85320461146FFF750FE2A4607492F
:10325000204603B0BDE8304008F02EBE7032002496
:1032600000000024C3C60408382C0024692E04087A
:1032700008B518F005F92DE9F04F027D85B0054637
:103280000E46012A40F08E8000214FF0FF3B04469D
:103290000B465F4694F804C048B2BCF1000F73D1EE
:1032A00094F805C0BCF1000F6ED1B7F1FF3F17BF16
:1032B0000133012338465BB2934201DD1A4683464F
:1032C0000131023408295DD1002402EB0B03A14631
:1032D0000293CB4502DC029B4B4558DC95F80580F8
:1032E00095F804A04FEA281708F00F080AF00F031A
:1032F0005FEA2A1AFAB201926FD05FFA8AF1BAF144
:10330000090F30460393D4BF3031573100F0C9F86C
:10331000039B0444092B3046039394BF03F130010F
:1033200003F1570100F0BDF80444BAF1000F02D1D7
:10333000039B03B94FB1092F019F3046D4BF3037EB
:103340005737F9B200F0ADF80444B8F1090F304630
:1033500094BF08F1300108F1570100F0A2F8B9F16B
:10336000070F044404D03A21304600F09AF8044490
:1033700009F101090235B9F1080FAAD1204605B0BB
:10338000BDE8F08F074685E74FF0FF3098E7CB4563
:10339000EED1BBF1000FE6D13A21304600F081F8C2
:1033A0000444E0E700F1100700F11309002417F8C6
:1033B000011B0A22304600F0B1F880462E2130462B
:1033C00000F06FF8B94540440444F0D10A22E97C8A
:1033D000304600F0A3F80444D0E7002B9AD1A9E7C7
:1033E000054B102210B5044603600175002104301E
:1033F00019F0CEFC204610BD2833060870B5074DE5
:103400008374056000259DF8103005754560856062
:10341000C56001744274C37470BD00BF28330608D0
:1034200007B501210648FFF7DBFF002305481A46D0
:1034300019460093FFF7E2FF03B05DF804FB00BFFD
:10344000843200249C3200242DE9F04106460D46CA
:1034500001EB02080C464445A4EB050707D033688E
:10346000304614F8011B1B6898470028F3D13846F2
:10347000BDE8F08170B5044608460D461AF080F9A3
:1034800023680246294620465B68BDE8704018471D
:1034900009B1FFF7EFBF0846704708B5FFF7F8FF1F
:1034A00008BD03681B6818470149FFF7E3BF00BF69
:1034B000566E060838B50546FFF7EAFF044628466B
:1034C000FFF7F2FF204438BD70B58AB00D460023E7
:1034D000012A98BF0A220AA901F8043DB5FBF2F4BB
:1034E00002FB14562546F3B2092E94BF303337330E
:1034F000DBB201F8013D002CF0D1FFF7C9FF0AB0A3
:1035000070BD10B42AB90368C9B25DF8044B1B68DA
:103510001847D2B25DF8044BFFF7D6BFFFF7F1BFF3
:1035200038B50546FFF7EDFF04462846FFF7BCFF18
:10353000204438BD10B500F081F80A4CFEF772F84F
:10354000FEF790FEFEF785FE4FF4E1310648FFF7E7
:10355000D1FDFCF701FFFCF737FF002CFBD0AFF3E8
:103560000080F8E700000000382C002470B5054604
:103570000024074EFDF794FFE3B2984206D918469F
:103580001B010134F35EAB42F4D170BDFF20FCE7B8
:103590000800002410B50446FDF782FF84423BBFBB
:1035A0002401024B4FF0FF30185F10BD08000024CB
:1035B00038B5002304460D460360042008F0CCFE15
:1035C00020600560204638BD10B50446006810B183
:1035D000042108F0F5FE204610BD0368186804F0C9
:1035E000E4BD10B5044604F0A3FD204610BD10B59F
:1035F000044604F09DFD204610BD000007B50749B4
:10360000684604F0F1FD4FF47A720023DDE9000111
:1036100016F0E0FD03B05DF804FB00BFB8320024F3
:1036200007B50449684604F0DFFD009803B05DF873
:1036300004FB00BFD032002409F02EB908B50448BD
:1036400004F080FD0348BDE8084004F07BBD00BFE6
:10365000D0320024B8320024022910B504460CBF31
:1036600002490349FFF7A4FF204610BDB8320024E9
:10367000D032002409F020B938B50A4C0A4D204652
:1036800004F0EFFD2046094C2A46094908F014FCD5
:10369000204604F0F1FD2A4620460649BDE83840A0
:1036A00008F00ABCD032002400000024B832002404
:1036B000EF350408E335040870B504460D46164698
:1036C00000211C2219F064FB20463246294606F0F0
:1036D000D6FD204670BD00002DE9F04104460E469F
:1036E000FDF7DEFE84423CD21F4D2701EA19D06867
:1036F00010B11C2108F064FE2046FFF74BFF804606
:103700001C2008F029FE044600211C2219F040FB71
:103710004146204606F0B0FDEB19012EDC6010D0CA
:1037200006D3022E12D0204603F06AFE022103E0E7
:10373000204603F065FE00212046BDE8F04103F07D
:103740006BBE2046BDE8F04103F04EBE204603F0BC
:1037500057FE0121F0E71C21204608F031FE15F04C
:103760004BFDBDE8F08100BF0800002430B589B0F2
:1037700004460D46FFF7FAFEC0B2FF2804D02946E2
:10378000FFF7AAFF09B030BD012D14D00AD3022DD6
:103790001CD00222214601A8FFF78EFF01A806F0E7
:1037A000F5FCEFE70022214601A8FFF785FF01A8FD
:1037B00006F0ECFCE6E71C22002101A819F0E8FA6B
:1037C0000022214601A806F05CFDDBE7012221462C
:1037D00001A8FFF771FF01A806F0D8FCD2E70000AE
:1037E0002DE9F34106460F46FDF75AFE86422AD2DE
:1037F0001B4D4FEA061805EB0802D468ACB93046F9
:10380000FFF7C8FE06461C2008F0A6FD04461C2251
:10381000002119F0BDFA009700230122314620460D
:1038200006F036FD05EB0803DC600E4B0E491A4628
:10383000D3F894008842FBD123683FB1A1680B60A4
:103840004FF44073536102B0BDE8F081E1681B049E
:10385000F5E71C21204608F0B3FD15F0CDFC00BFB4
:1038600008000024006402580003008030B589B0CD
:1038700005460C46FFF77AFEC0B2FF2804D0214669
:10388000FFF7AEFF09B030BD1C22002101A819F0DE
:103890007FFA294601A806F0F8FC094B09491A46A7
:1038A000D3F894008842FBD1019B2CB103990B60A3
:1038B0004FF440735361E5E71B040499F7E700BF39
:1038C00000640258000300801EF0040F0CBFEFF3E9
:1038D0000880EFF30980816911F8021C002932D1B8
:1038E00001B590E80F10E047BDE800508CE80300F8
:1038F000244B93E80600914208BF70471A6041B913
:103900001EF0100F10D1204B186820F00100186035
:103910000AE02CE9F00F1EF0100F08BF2CED108A02
:1039200081F822E0C1F838C0906B92F8221061F063
:10393000FF0E1EF0100F08BFB0EC108AB0E8F00FB9
:1039400080F309887047114A13689942FAD801B583
:1039500052F821C00FC8E047BDE80050CCF8000085
:10396000704701B501F0C6FBBDE80140EFF3098CDB
:10397000BEE701B501F082FBBDE80140EFF3098C21
:10398000B6E700003C0C002434EF00E0E03306080A
:10399000014608B530B96FF0030000F01FFA6FF070
:1039A000030008BD132001F079FF30B94FF0FF305C
:1039B00000F014FA4FF0FF30F3E70020F1E70000C9
:1039C00008B5EFF305834BB9EFF3108333B9EFF389
:1039D00011831BB9DFF814C000DF08BD6FF00500CC
:1039E00000F0FCF96FF00500F7E700BF913904081B
:1039F000EFF310832BB9EFF31180003818BF0120CB
:103A000070470120704710B520B10378F32B01D126
:103A1000002906DA6FF0030102F038FA6FF00300B4
:103A200010BD00F10C0353E8000F20EA010243E847
:103A3000002404B1F7E7F3E7034610B528B30468A0
:103A4000806860B110F0030202D1DB680F2B25D82B
:103A50006FF00801002002F019FA002014E0DB6882
:103A6000002BF5D1104BD3F8900080B100F084FC0E
:103A7000B0B10123F32283700023446002700B4A2B
:103A8000C0E90233084B5A6610BD0446EAE701223A
:103A90001021D3F8800000F0FAFBE9E71346E9E7CC
:103AA0006FF00401D7E700BF280C0024813B040815
:103AB00010B5044610B10378F32B07D020466FF001
:103AC000030102F0E3F96FF0030010BD836863B1F6
:103AD000204601F06BFC00226FF0020101F0FAFDBC
:103AE000A0680028F4D101F0E9FC00232370A3783A
:103AF000DB0701D40020E8E7064B2146D3F890000D
:103B000010B100F054FCF5E7D3F8800000F0F3FBAF
:103B1000F0E700BF280C0024930710B502F0010461
:103B200022D400F10C0384B153E8000F00EA010233
:103B30008A4203D0BFF32F8F002005E020EA010264
:103B400043E8002404B1EFE710BD53E8000F08423A
:103B500003D1BFF32F8F002005E020EA010243E8E4
:103B6000002404B1F1E7EFE7C06800EA01031CB1EB
:103B7000994218BF0020E7E7002B08BF0020E3E7C9
:103B8000F8B50546846804B9F8BD94F823202846A2
:103B9000616AA768FFF7C0FF064638B1204601F00A
:103BA0000EFC00223146204601F094FD3C46EAE737
:103BB000F8B50D4617461E46044620B10378F32B90
:103BC00001D1002907DA20466FF0030102F05EF907
:103BD0006FF00300F8BDFFF79FFF0028FAD186B110
:103BE0003146432001F05AFE40B1074B20465E6942
:103BF000314601F0C9FB756286F823706FF0010051
:103C0000E8E76FF00200E5E7280C00242DE9F04119
:103C1000064620B10378F32B01D1002909DA6FF0B1
:103C200003056FF00301304602F030F92846BDE885
:103C3000F08100F10C0353E8002F42EA010543E84C
:103C4000005000B1F7E7B4681CB9204601F036FC1B
:103C5000ECE794F823203046616AD4F80880FFF737
:103C60005BFF074678B194F823309B0756BF656A1F
:103C7000054620EA0505204601F0A1FB0022394651
:103C8000204601F027FD4446DEE70000024608B565
:103C9000EFF3058333B100206FF0050102F0F6F871
:103CA000002008BDFFF7A4FE0028F4D11046DFF87D
:103CB00008C000DFF5E700BF393A040838B502460E
:103CC0000D46EFF305834BB192B96FF003046FF02B
:103CD0000301104602F0DAF8204638BDFFF788FEEF
:103CE0000028F1D11046DFF830C000DF0446F3E7CA
:103CF0001378F32BE9D1002DE7DB02F10C0353E835
:103D0000001F41EA050443E8004000B1F7E7104610
:103D100001F038FAE0E700BF0D3C040810B5024698
:103D20000C46EFF305832BB121461046BDE8104049
:103D3000FFF769BEFFF75CFE0028F5D11046DFF8FB
:103D400008C000DF10BD00BF073A0408F8B50446FC
:103D50000E4617461D46EFF3058343B18CB9204646
:103D60006FF0030102F092F86FF00300F8BDFFF767
:103D70003FFE0028F2D120462B46DFF828C000DFA6
:103D8000F4E72378F32BEAD1002DE8D1002EE6DB0F
:103D90003A4631462046FFF7BFFE002808BF6FF0C5
:103DA0000200E3E7B13B0408024608B5EFF30583E0
:103DB0003BB110466FF0050102F068F86FF00500A6
:103DC00008BDFFF715FE0028F3D11046DFF804C048
:103DD00000DFF5E7B13A0408704770477047EFF32A
:103DE00010832BB9EFF31180003818BF0120704702
:103DF00001207047064BDA6A3AB1D0695B6C1BB19F
:103E00001B69984228BF184670474FF0FF30F5E70E
:103E1000280C0024014BD868704700BF280C0024F0
:103E200008B5094B1A7A022A08D0032A0AD04FF0A3
:103E3000FF3002F01FF84FF0FF3002E003220020B5
:103E40001A7208BD0120FCE7280C002408B50A4BB3
:103E50001A7A023A012A02D840B1012809D04FF05B
:103E6000FF3002F007F84FF0FF3001E002221A7233
:103E700008BD0322FBE700BF280C002470B5464CA8
:103E8000237A012B00F0858033B14FF0FF3001F031
:103E9000F1FF4FF0FF3070BD404DEB68E3652B8ABA
:103EA000D5E90B61A4F85430AB683046236400F0C8
:103EB000D7F908B1C4F88060D5E90561304600F053
:103EC000CFF908B9D4F880606667D5E90761304654
:103ED00000F0C6F908B9D4F88060A667D5E9096191
:103EE000304600F0BDF908B9D4F88060E6676E6B23
:103EF0003EB131683046D6E9022300F01CFAC4F81E
:103F00008460AE6B3EB131683046D6E9022300F0E2
:103F100012FAC4F88860EE6B3EB131683046D6E9DB
:103F2000022300F008FAC4F88C602E6C3EB13168B0
:103F30003046D6E9022300F0FEF9C4F890606E6CBA
:103F40003EB131683046D6E9022300F0F4F9C4F8F6
:103F50009460AE6C3EB131683046D6E9022300F081
:103F6000EAF9C4F89860EE6C3EB131683046D6E9A3
:103F7000022300F0E0F9C4F89C602D6D3DB1296882
:103F80002846D5E9022300F0D6F9C4F8A050012351
:103F9000237200207FE700BF280C0024703306083E
:103FA00070B5254D2B7A012B07D06FF006004FF02E
:103FB000FF3401F05FFF204670BD01F0E1FC10B955
:103FC0004FF0FF30F3E71D4AFF231D4E82F82230E9
:103FD00092F82230D26863F0FF031A49C2F302223A
:103FE0007068DB4314BFB3FA83F32023C3F12003CB
:103FF000934298BF531CFE2202FA03F30F4ADBB22E
:10400000D37701F093FF04460028D9D101F0E6FFF1
:10401000286101F0CFFF0C4801F0C8F901F046FA21
:104020003368DB074CBF0223032383F31488BFF3F9
:104030006F8F02232B72BEE7280C002400ED00E0F6
:104040007033060873390408440C002410B50F4C73
:10405000237A022B13D101F0B5FF01236372BFF362
:104060004F8F0B4A5168C90003D54FF00061516072
:10407000A37204232372BDE81040FFF7BBBE6FF0AC
:10408000070001F0F7FE002010BD00BF280C00243F
:1040900000ED00E038B51D4C0546237A042B34D1E1
:1040A000FFF7A8FEE26A85422CBF00F1FF332B46E2
:1040B00012B1D069C01AD061626C12B11069C01A15
:1040C0001061E26813441544E360E3689D4213D134
:1040D00002230020237201F0F1F900236372BFF381
:1040E0004F8FA27A22B1A3724FF08052084B5A60D0
:1040F000BDE8384001F05EBF0133E36001F09CF998
:10410000236D002BE1D09847DFE738BD280C002451
:1041100000ED00E0704738B504460D46FFF75CFE41
:1041200029462046BDE8384001F066BE08B5FFF7D5
:10413000F1FFEFF3058333B16FF0050001F09AFE54
:104140006FF0050008BDFFF74AFE0028F4D1DFF844
:1041500008C000DFF6E700BF7D3E040808B5EFF3B6
:10416000058333B16FF0050001F084FE6FF00500A8
:1041700008BDFFF734FE0028F4D1DFF808C000DFE7
:10418000F6E700BFA13F040808B5EFF3058333B19C
:104190006FF0050001F06EFE6FF0050008BDFFF73F
:1041A0001EFE0028F4D1DFF808C000DFF6E700BFEC
:1041B000213E0408024608B5EFF3058333B16FF0E2
:1041C000050001F057FE6FF0050008BDFFF707FE80
:1041D0000028F4D11046DFF808C000DFF5E700BF83
:1041E0004D3E040808B5EFF305832BB16FF00500D1
:1041F00001F040FE002008BDFFF7F1FD0028F5D1D9
:10420000DFF804C000DFF6E74D400408024608B5B9
:10421000EFF305832BB16FF00500BDE8084001F016
:1042200029BEFFF7DCFD0028F5D11046DFF804C0F9
:1042300000DF08BD9540040808B5EFF3058313B10E
:10424000054BD86808BDFFF7CAFD0028F8D1DFF894
:104250000CC000DFF6E700BF280C0024153E040860
:10426000034610B588B1084310F007000DD1172997
:104270000AD9196008391022CC185A609C6058502D
:1042800099684A60D860012010BD0020FCE7034611
:1042900070B570B369B3032A2BD80F3100F108044D
:1042A00021F00706214624684D68601A25F00305B1
:1042B000401B864203D920680028F3D170BD5D6899
:1042C0003243186835445D60034453F8040C083BDE
:1042D000854288BF5D604B681BB901F108004A60E8
:1042E000ECE723F00303C818CC50426008600830A4
:1042F000E4E70020E2E7034610B580B1C9B1A1F1BF
:10430000080400F108020021A24209D1506820F0FF
:1043100003045868001B586041B95160012010BD6A
:10432000106811460028FAD00246EDE713680B60CA
:10433000F4E70846F3E730B5C0B189B1C2B1CBB1FB
:1043400000240160C3604361C0E9014202FB01F443
:104350001D1905611846013904D1A41A195101210A
:10436000084630BD851805602846F4E70146F7E7A2
:104370001146F5E71946F3E710B570B100F11403E3
:1043800053E8002F12B9BFF32F8F04E0116843E800
:10439000001404B1F4E70AB9104610BD043050E827
:1043A000003F591C40E8001404B1F8E7F4E730B5C9
:1043B000F0B1C3688B421BD803698B4218D900F156
:1043C00014031A680A60BFF35F8F53E8002F0C686C
:1043D0009442F6D143E8001505B1F2E7043050E805
:1043E000003F5A1E40E8002101B1F8E7002030BD2F
:1043F0006FF00300FBE7EFF310832BB9EFF31180AD
:10440000003818BF0120704701207047D1E9013200
:1044100023B19A608A681AB153607047C262F9E7A3
:10442000036370472DE9F84F8846074638B131B12C
:10443000B0FA80F1B8FA88F30B441F2B08DC6FF058
:1044400003010024002001F037FD2046BDE8F88F6D
:1044500008F1030626F003060C3606FB00FAF2B15B
:104460009468D2F80090D2E904533CB1A10702D17C
:10447000D268332A05D86FF00801E2E7D268002A33
:10448000F9D13DB115F0030B01D19A4552D96FF026
:104490000901D6E7002BFAD11CB19B460CE09146EE
:1044A0001546264BD3F8A000D8B1FFF765FF0446A8
:1044B000A0B14FF0010B35BB204B00225146D86F05
:1044C000FFF7E5FE0546C0B9BBF1000F06D01B4B58
:1044D0002146D3F8A00058B1FFF769FF6FF004013F
:1044E000AFE701223421D3F88000FFF7D0FEDEE7EA
:1044F000D3F88000FFF7FFFEF0E74BF0020B5246C7
:10450000002118F045FCFA233246394604F10C002C
:104510002370002384F802B0A360C4F80490C4E9B7
:104520000983C4E90B332B46FFF705FF034B044A0D
:104530001A678AE7002CE6D1B3E700BF280C0024F5
:10454000D145040800F1280310B553E8002F12B933
:10455000BFF32F8F04E0511E43E8001404B1F4E7C9
:104560000AB9002010BDC06A01220028F9D0811CC0
:10457000D1E84F3FC1E8442F04B1F9E7DBB2002B8B
:10458000F0D08068F1E7036B30B5E3B1CD7800245B
:10459000DA78AA420FD31A46C1E901248AB19160A0
:1045A000A4B16160283050E8003F5A1C40E8002167
:1045B00001B1F8E730BD5A681C46002AECD013461A
:1045C000E6E7C162ECE7C1E90133C1620163E9E7F3
:1045D000F8B5877804468FB3C5680027014628469A
:1045E000FFF714FF277005F10C042046FFF7DFFEEC
:1045F000AB68002B48D02046FFF7BEFE04460028DB
:1046000042D0284600F0D2FE06463A46394601F02E
:1046100061F8304600F040FF6A6A0646816804F19E
:104620000C0018F0B7FAF923A7702370F368E37051
:1046300021462846BDE8F840FFF7A5BF8568AB686E
:10464000002BF5D05B78832BF2D1284600F0AEFE2C
:1046500006463A46394601F03DF8304600F01CFF68
:1046600006466A6A04F10C01806818F093FAF36850
:104670000BB1E2781A700023214605F10C0023707B
:10468000BDE8F840FFF793BEF8BD00002DE9F0410A
:104690000E4617469846044618B10378FA2B00D107
:1046A00041B920466FF0030101F006FC6FF00300F2
:1046B000BDE8F0818368BBB15B78832B14D100F037
:1046C00075FE05460122002101F004F8284600F09D
:1046D000E3FE0546626A3146806818F05BFAEB68D3
:1046E00003B11F700020E3E704F10C00FFF744FE64
:1046F000054670B13146626A0C3018F04BFAF92366
:10470000294620462B700023EF70AB70FFF73BFF6C
:10471000E8E7B8F1000F11D04146932001F0BEF850
:1047200010B96FF00100C3E7064B2046596900F04D
:104730002BFEEFF30983C3E90267F2E76FF0020093
:10474000B6E700BF280C00242DE9F0410F461646BD
:104750009846044618B10378FA2B00D141B9204697
:104760006FF0030101F0A8FB6FF00300BDE8F081DA
:10477000FFF7E8FE054600283AD001462046FFF73D
:1047800045FE626A05F10C01384618F003FA0EB1D5
:10479000EB783370002704F10C06294630462F7061
:1047A000FFF705FEA3680BB90020DFE73046FFF7EF
:1047B000E3FD05460028F7D0204600F0F7FD064649
:1047C0003946012200F086FF304600F065FE626A3D
:1047D0000646816805F10C0018F0DCF9F923AF708A
:1047E00029462B702046F368EB70FFF7CCFEDBE721
:1047F000B8F1000F11D04146832001F04FF810B9F5
:104800006FF00100B2E7064B2046596900F0BCFD8D
:10481000EFF30983C3E90276F2E76FF00200A5E740
:10482000280C002408B5064B08219A6ED86EFFF7B5
:10483000F9FD044BD864B0FA80F04009404208BD4D
:1048400070330608280C00242DE9F04106460F4677
:1048500090461C46EFF305834BB196B930466FF096
:10486000030101F029FB6FF00300BDE8F081FFF7C1
:10487000C2FD0028F1D130462346DFF848C000DFF2
:10488000F3E73378FA2BE9D1002FE7D0002CE5D1FC
:1048900006F10C00FFF770FD054680B1726A3946DB
:1048A0000C3018F077F9F9232846AC702B7085F896
:1048B0000380C5E9017600F065FC2046D5E76FF07E
:1048C0000200D2E78D460408F8B504460F461646A6
:1048D0001D46EFF3058343B18CB920466FF0030109
:1048E00001F0EAFA6FF00300F8BDFFF784FD00283D
:1048F000F2D120462B46DFF844C000DFF4E72378EE
:10490000FA2BEAD1002FE8D0002DE6D12046FFF7A0
:1049100019FE054670B100F10C01626A384618F0C4
:1049200039F90EB1EB7833702846EC6000F02AFCC0
:104930000020D9E76FF00200D6E700BF494704081E
:10494000EFF310832BB9EFF31180003818BF01206B
:10495000704701207047000038B5034698B3D0E98E
:104960000045806860B110F0030202D1DB681B2BA8
:1049700024D86FF00801002001F08EFA00201CE01E
:10498000DB68002BF5D1114BD3F8940030B901222C
:104990001C21D3F88000FFF77AFC01E0FFF7ECFC64
:1049A00070B10123F52283700023C570027044604A
:1049B0000376C0E90233C0E9043338BD1346F1E79A
:1049C0006FF00401D8E704460546DCE7280C002414
:1049D000294B70B55D6904460E4635B96FF0070185
:1049E00001F05AFA4FF0FF3070BD10B10378F52B8B
:1049F00007D020466FF0030101F04EFA6FF003007C
:104A0000F2E7037E53B9C0E90353EB6A436103B194
:104A100018610123EC6200202376E5E7C278D10714
:104A20000DD5C168A9420AD1FF2B06D16FF00F0145
:104A300001F032FA6FF00200D6E70133EBE7002E07
:104A4000F8D093070AD5E06895F9203090F9202036
:104A50009A4203DA80F8203000F0BAFC3146532045
:104A600000F01CFF10B96FF00100BDE72946204699
:104A700000F08AFCF7E700BF280C00242F4B5A698E
:104A800070B5044632B96FF0070101F005FA4FF036
:104A9000FF3070BD10B10378F52B07D020466FF0C2
:104AA000030101F0F9F96FF00300F2E7037E33B977
:104AB0006FF00E0101F0F0F96FF00200E9E7C16854
:104AC000914202D06FF00D01F4E7013BDBB20376B7
:104AD0000BB10020DDE743690BB101691961216960
:104AE000E9B14B6192F92130D56AD5B982F820300D
:104AF000A36883B1204600F059FC06462A462946A1
:104B000000F0E8FDF36AC4E90365636103B11C6169
:104B10000123F4622376002000F0D0FCD9E7D362B1
:104B2000E0E7E978890706D5A96821B191F9201055
:104B30008B42B8BF0B466D69D7E700BF280C002435
:104B400010B5044610B10378F52B07D020466FF05E
:104B5000030101F0A1F96FF0030010BD037EBBB1AA
:104B60006369C0680BB122691A612269BAB15361E5
:104B700090F92120C36AA3B990F92030934203D061
:104B800080F8202000F024FCA068B0B900F096FC6A
:104B900000232370A378DB0718D40020DDE7C3626D
:104BA000E6E7D978890706D5996821B191F92010EF
:104BB0008A42B8BF0A465B69DDE7204600F0F6FB93
:104BC00000226FF0020100F085FDDDE7064B214673
:104BD000D3F8940010B1FFF7EAFBDEE7D3F88000CA
:104BE000FFF789FBD9E700BF280C00242DE9F0412D
:104BF0000446002601270CB9BDE8F081E378D4F81B
:104C000014801B0712D5A36826767BB1204600F0DE
:104C1000CDFB00220546114600F05CFDEB6AC4E9BD
:104C20000356636103B11C61EC6227764446E2E7F8
:104C300010B4C3789B071DD5C06890F92120C36AC2
:104C4000DC78A40709D59C688C4208BF8C6824B125
:104C500094F92040A242B8BF22465B69002BEFD1F5
:104C600090F92030934205D080F820205DF8044B65
:104C700000F0AEBB5DF8044B70470000024608B57B
:104C8000EFF3058333B100206FF0050101F004F963
:104C9000002008BDFFF754FE0028F4D11046DFF8CD
:104CA00008C000DFF5E700BF59490408024608B50F
:104CB000EFF305833BB110466FF0050101F0ECF80E
:104CC0006FF0050008BDFFF73BFE0028F3D110464A
:104CD000DFF804C000DFF5E7D1490408024608B553
:104CE000EFF305833BB110466FF0050101F0D4F8F6
:104CF0006FF0050008BDFFF723FE0028F3D1104632
:104D0000DFF804C000DFF5E77D4A0408024608B575
:104D1000EFF305833BB110466FF0050101F0BCF8DD
:104D20006FF0050008BDFFF70BFE0028F3D1104619
:104D3000DFF804C000DFF5E7414B0408EFF3108310
:104D40002BB9EFF31180003818BF01207047012004
:104D500070470C30D0E85F3F13B9BFF32F8F04E0EA
:104D60005A1EC0E8512F01B1F4E798B2003818BFBD
:104D70000120704730B500F10C02C189D2E85F3FD5
:104D8000994202D8BFF32F8F04E05C1CC2E8554F54
:104D900005B1F3E7C0899BB2984294BF002001207F
:104DA00030BD000070B54FF6FE730D46411E04463F
:104DB000994201D8A84206D26FF00301002001F009
:104DC00071F8002070BD12B39068166840B110F001
:104DD000030302D1D2680F2A0DD86FF00801EDE766
:104DE000D368002BF9D1104BD3F8980088B1FFF7A6
:104DF000C3FAA8B10123F622837000234660027033
:104E000083600A4A084B8581C4819A66DAE71646B0
:104E1000E9E701221021D3F88000FFF738FAE8E72C
:104E20006FF00401CBE700BF280C0024E14E04081A
:104E300010B5044610B10378F62B07D020466FF06A
:104E4000030101F02FF86FF0030010BD83683BB140
:104E500000F0ACFA0122002100F03CFC0020F4E755
:104E6000FFF788FF0028F9D120466FF0100101F00C
:104E700019F86FF00200E8E710B5044610B10378A6
:104E8000F62B07D020466FF0030101F00BF86FF00E
:104E9000030010BD836863B1204600F087FA00224A
:104EA0006FF0020100F016FCA0680028F4D100F0B9
:104EB00005FB00232370A378DB0701D40020E8E77B
:104EC000064B2146D3F8980010B1FFF770FAF5E7CA
:104ED000D3F88000FFF70FFAF0E700BF280C00249A
:104EE000836810B504465BB1FFF733FF40B120463D
:104EF00000F05CFA0022BDE81040114600F0EABB69
:104F000010BD000038B50D46044610B10378F62BED
:104F100007D020466FF0030100F0C4FF6FF00300DC
:104F200038BDFFF716FF68B975B12946632000F058
:104F3000B5FC20B1064B2046596900F025FA6FF008
:104F40000100EDE70020EBE76FF00200E8E700BFAB
:104F5000280C002410B50446EFF3058333B100207C
:104F60006FF0050100F09EFF002010BDFFF7E6FE88
:104F70000028F4D12046DFF808C000DFF5E700BFC5
:104F8000A54D040810B502460C46EFF3058343B166
:104F900082B910466FF0030100F084FF6FF0030048
:104FA00010BDFFF7CBFE0028F2D11046DFF820C07D
:104FB00000DFF5E71378F62BEBD1002CE9D1104692
:104FC000FFF7C7FE00280CBF6FF002000020E7E7E4
:104FD000054F040810B50446EFF3058343B184B9C7
:104FE00020466FF0030100F05DFF6FF0030010BD7D
:104FF000FFF7A4FE0028F2D12046DFF830C000DF22
:10500000F5E72378F62BEBD12046FFF7B3FE20B16E
:10501000204600F0B7F80020E9E720466FF01001C5
:1050200000F040FF6FF00200E1E700BF314E0408DE
:10503000024608B5EFF305833BB110466FF005015A
:1050400000F030FF6FF0050008BDFFF777FE002885
:10505000F3D11046DFF804C000DFF5E7794E04080D
:1050600010B5D0E85F3F5A1C914200D80022C0E83A
:10507000542F04B1F5E798B210BD000038B51C4CB0
:1050800000F0A6FFE3680133E36000F0D5F90020EB
:1050900000F014FA236D03B19847226C32B3A36970
:1050A000E06BD969984202D0E36301B9DA61DA6949
:1050B000C2B9237A022B19D1656ABDB1E36B95F9A8
:1050C000202093F920309A4210D1284600F077F939
:1050D000E06B00F08FF9284600F0E8F9236CE563F7
:1050E000EB6103E0013ADA61002AE2D038BD00BF8B
:1050F000280C002470B5224C04F1560504F15A0620
:10510000B4F85410D5E85F3F13B9BFF32F8F04E014
:105110005A1EC5E8502F00B1F4E79BB25BB330468E
:10512000FFF79EFFE36D53F8200020B30378F13BB7
:10513000082BE5D801A252F823F000BF6151040802
:105140000151040867510408015104080151040881
:105150006B5104086F51040801510408735104088D
:10516000236E9847CCE7636EFBE7A36EF9E7E36E27
:10517000F7E7236FF5E70020BDE8704000F09EB927
:10518000280C002470B5164C0546B4F8541004F1F0
:105190005602D2E85F3F994202D8BFF32F8F04E056
:1051A000581CC2E8560F06B1F3E79BB2994205D8E6
:1051B00029460220BDE87040FEF7ADBF04F158005B
:1051C000FFF74EFFE36D43F82050637A23B9054B98
:1051D0004FF080525A6070BD0123A372FBE700BFFD
:1051E000280C002400ED00E0EFF310832BB9EFF35F
:1051F0001180003818BF01207047012070470378E4
:10520000F12B00D07047C068F9E7000010B5C46901
:10521000621CD0E904310CD103B1596142691AB161
:1052200013610023436101E0074A13630023C36154
:1052300010BD1BB1DA6959612244DA614269002A62
:10524000EED1014AD362F1E7280C002401230A4A77
:1052500090F9201043701C32936810B51BB193F97C
:1052600020408C4205DCC0E90232906003B1D86076
:1052700010BD1A469B68F1E7280C0024014B5869C1
:10528000704700BF280C0024002310B5038004469B
:1052900083789A0708D513F0100F016B0E4B0FD0CF
:1052A000D3F88400FFF783F8A378DB0712D50A4B05
:1052B0002146D3F8880038B1BDE81040FFF777B831
:1052C000586FFFF718F8EFE7D3F88000BDE81040FB
:1052D000FFF711B810BD00BF280C002408B500F07E
:1052E000F1FDDFF810C000DF4FF0FF31002000F0CB
:1052F000C7FDFEE73D570408930710B502F001040F
:1053000022D400F1280384B153E8000F00EA01021F
:105310008A4203D0BFF32F8F002005E020EA01026C
:1053200043E8002404B1EFE710BD53E8000F084242
:1053300003D1BFF32F8F002005E020EA010243E8EC
:10534000002404B1F1E7EFE7806A00EA01031CB131
:10535000994218BF0020E7E7002B08BF0020E3E7D1
:10536000C2780346D20701D4FFF78EBF0422054955
:1053700042700022C2604A6B826002B1D0604B630F
:10538000704700BF280C002491F92020836810B5D5
:105390001BB193F92040944205DAC1E902308160E3
:1053A00003B1D96010BD18469B68F1E703468068D9
:1053B00082689A6002B1D3600023C3607047C268FC
:1053C0002AB18368936003B1DA600023C360704739
:1053D00010B5044664B12378F12B07D0FFF7EFFF37
:1053E00001462046BDE81040FFF7CEBFE468F1E774
:1053F00010BD00000123014643700148FFF7C4BF00
:10540000440C002470B50B4D2E7A022E10D16C6A1C
:1054100074B1696994F9202091F920309A4207D13A
:105420002046FFF7CCFF0846FFF7E4FF6670AC614B
:10543000002070BD280C002438B5164DEC6A44B32A
:10544000E369013BE36123BB6378732B06D009D882
:10545000532B0BD003F0DF03432B0DD12046FFF776
:10546000CEFE09E003F0EF03832BF6E7204621464A
:10547000FFF7C5FEFFF7DCFB2046FFF7A0FFFFF7B5
:10548000B9FF246924B1E369002BDDD000236361F7
:10549000EC6238BD280C002490F82230826B13F0A7
:1054A000100F14BF20206020104470470223437067
:1054B000014B9861704700BF280C002470B5124D55
:1054C00004462E7A696990B9022E0FD16C6A6CB1CC
:1054D00094F9202091F920309A4207DD2046FFF709
:1054E0006EFF0846FFF7B2FE6670AC6170BD022E1B
:1054F00005D190F9202091F920309A42F1DC204624
:10550000BDE87040FFF776BF280C00242DE9F74F67
:105510008246019140B96FF00301002400F0B0FC15
:10552000204603B0BDE8F08F002A00F08680946822
:105530009769D2E90093D2E90456009344B1A007D9
:1055400002D1D368432B06D86FF008010020E4E7AE
:10555000D368002BF8D13DB1690702D1002E40F08D
:105560009E806FF00A01F1E72FB17B1E372B03D924
:105570006FF00B01EAE71827002E40F09480002C12
:1055800068D14E4BD3F8880000285CD0FEF7F4FEBB
:105590000446002873D04FF0010BDFF8208185B955
:1055A000002E5AD1464AD8F88400566D002854D0AF
:1055B000FEF7E2FE0546002858D04BF0100B4BF0EA
:1055C000020B009B40F2F1127FB284F802B0E3704C
:1055D00000232280FD22C4F8049084F8207084F80F
:1055E000217062846663C4E90233C4E90433C4E908
:1055F0000633C4E90933C4E90B35A6F140032B4453
:10560000C4E90E3A2F4B2B602D4B1B685B073ED431
:10561000A36B34220021184617F0BAFB2A4A2B4B01
:10562000C0E90D2A4FF08072C263019A02622046DF
:10563000C8F86030FFF742FF72E791461546182719
:10564000164600929DE701224421D3F88000FEF720
:105650001EFE9DE74FF0000B9FE72A463146D8F823
:105660007400FEF714FE05460028A8D1BBF1000F18
:1056700005D0D8F88800214620B1FEF798FE6FF0DB
:10568000040163E7D8F88000FEF735FEF7E726F05F
:105690000302CC21281D443A17F07AFBB8E7002F0B
:1056A0007FF463AF182772077FF45BAFA6F148025F
:1056B000074B9A427FF663AF53E700BF280C0024E4
:1056C00070330608A52E5AE2DD520408F956040884
:1056D000B7FFFF7F38B505461446FFF7DDFE0160D2
:1056E0002846FFF793FD1CB1BDE83840FFF7E6BE42
:1056F000BDE83840FFF77EBE10B543780446332B33
:105700000CD1416A90F82320FFF7F6FD014628B13D
:1057100020460022BDE81040FFF7DCBF10BD10B5E9
:105720000446806918B100221146FFF7D3FF637861
:10573000232B02BFA36800229A6110BD70B50F4CE5
:10574000267A022E18D1636AB3B16569E86AFFF759
:105750004DFA2846FFF7E3FF04F11C00FFF726FE91
:105760004670A061EFF30983AB63002328466361B1
:10577000BDE87040FFF7F4BD70BD00BF280C0024E9
:1057800010B5044610B10378F12B07D020466FF016
:10579000030100F075FB6FF0030010BD437803F0C8
:1057A0000F03022B06D0032B2DD0012B10D06FF04E
:1057B000020108E0184B1A7A022A01D15B6A4BB940
:1057C0006FF00201204600F05BFB6FF00200E4E79F
:1057D000FFF7F5FDE06AFFF709FA2046FFF79FFFA4
:1057E0006178022914D10D48FFF7E0FD0A4B4170A2
:1057F0009861EFF30982A26300225A612046FFF705
:10580000AFFD0020C9E7FFF7DAFDFFF7FFFCE1E796
:105810000020FFF753FEF1E7280C0024440C00247D
:1058200070B5044620B10378F12B01D1002908DAC4
:105830006FF003056FF003012046FEF7CEFA28460D
:1058400070BD4378042B06D16FF002016FF00205A2
:10585000FEF7C3FAF3E700F1280353E8002F42EA0A
:10586000010543E8005606B1F7E74378332BE6D14C
:10587000416A90F82320FFF73FFD01460028DED063
:1058800094F8233001229B0756BF656A054620EA3B
:1058900005052046FFF71EFFD1E7000038B51E4C76
:1058A0000246237A022B34D1606AA0B163695A7030
:1058B0004A1C16D1226B002172B94FF0FF30C3E9A8
:1058C0000421D86159B10B611448FFF76FFD022321
:1058D0004370A061012038BD11461269ECE72363D3
:1058E000F2E7E26A002012B1D569A9420BD2D96170
:1058F000C3E9042058B10361002AE5D0D06953619F
:10590000401AD061E0E71046491B1269EBE7E362F9
:10591000F2E70020DFE700BF280C0024440C00243D
:10592000F8B5164B05460F4616465C693CB920464D
:105930006FF00701FEF751FA4FF0FF30F8BD002875
:1059400007DA20466FF00301FEF747FA6FF0030015
:10595000F4E70A4601462046FFF7CEFC0028EDD1C9
:105960004EB131463320656284F82370FFF796FF0D
:105970006FF00100E2E76FF00200DFE7280C00247F
:1059800038B50D4C00210D48A26DFFF7BFFD0C4D41
:10599000636EA8625BB1984758B9E26DE96C206EFE
:1059A000FFF7B4FDA864003818BF012038BD0120FE
:1059B000FCE70020FAE700BF70330608F15D040839
:1059C000280C002410B50446EFF3058333B1002002
:1059D0006FF0050100F054FA002010BDFFF704FC41
:1059E0000028F4D12046DFF808C000DFF5E700BF4B
:1059F0000D55040808B5EFF3058313B1054B58693D
:105A000008BDFFF7F1FB0028F8D1DFF80CC000DF7C
:105A1000F6E700BF280C00247D52040808B5EFF318
:105A200005833BB100206FF0050100F029FA6FF00B
:105A3000050008BDFFF7D8FB0028F3D1DFF804C04C
:105A400000DFF6E70554040810B5044600F046FAF6
:105A5000EFF305833BB120466FF0050100F010FA2B
:105A60006FF0050010BDFFF7BFFB0028F3D1204603
:105A7000DFF804C000DFF5E78157040838B50246B7
:105A80000D46EFF305834BB192B96FF003046FF04D
:105A900003011046FEF7A1F9204638BDFFF7A4FB2D
:105AA0000028F1D11046DFF844C000DF0446F3E7D8
:105AB0001378F12BE9D1002DE7DB5378042B07D1C4
:105AC0006FF0020110466FF00204FEF786F9E3E77B
:105AD00002F1280353E8001F41EA050443E80040AF
