:020000021000EC
:1000000000FE0720F954010025530100757C010012
:10001000F5540100F5540100F5540100F5540100B8
:10002000000000000000000000000000F554010086
:10003000F554010000000000F5540100F5540100E2
:1000400000000000000000000000000000000000B0
:1000500000000000000000000000000000000000A0
:100060000000000000000000000000000000000090
:100070000000000000000000000000000000000080
:100080000000000000000000000000000000000070
:100090000000000000000000000000000000000060
:1000A0000000000000000000000000000000000050
:1000B0000000000000000000000000000000000040
:1000C0000000000000000000000000000000000030
:1000D0000000000000000000000000000000000020
:1000E0000000000000000000000000000000000010
:1000F0000000000000000000000000000000000000
:1001000000000000000000000000000000000000EF
:1001100000000000000000000000000000000000DF
:1001200000000000000000000000000000000000CF
:1001300000000000000000000000000000000000BF
:1001400000000000000000000000000000000000AF
:10015000000000000000000000000000000000009F
:10016000000000000000000000000000000000008F
:10017000000000000000000000000000000000007F
:10018000000000000000000000000000000000006F
:10019000000000000000000000000000000000005F
:1001A000000000000000000000000000000000004F
:1001B000000000000000000000000000000000003F
:1001C00010B5054C237833B9044B13B1044800E053
:1001D00000BF0123237010BD70110020000000003B
:1001E0005C83020008B5034B1BB10349034800E0E0
:1001F00000BF08BD00000000741100205C830200F5
:1002000070B56E4D86B0284600F0D6F96C4C0A22C7
:100210000146204607F0DAF86A49204607F073F8ED
:10022000284600F0D3F90A220146684607F063F930
:10023000694603A807F080F9634903A807F0C5F9E8
:100240000146204607F06EF803A807F0D8F8684684
:1002500007F0D5F85D49204607F055F8284600F02C
:10026000D5F90A220146684607F033F9694603A822
:1002700007F062F9564903A807F0A7F9014620469E
:1002800007F050F803A807F0BAF8684607F0B7F887
:100290005049204607F037F8284600F0CDF90A22E9
:1002A0000146684607F027F9694603A807F044F9B4
:1002B000494903A807F089F90146204607F032F8BA
:1002C00003A807F09CF8684607F099F843492046D0
:1002D00007F019F8284600F0D7F90A2201466846C7
:1002E00007F009F9694603A807F026F93C4903A875
:1002F00007F06BF90146204607F014F803A807F051
:100300007EF8684607F07BF83649204606F0FBFF8A
:10031000284600F06FF90A22014603A807F0D9F831
:1003200003A9204606F0FEFF03A807F068F82E494F
:10033000204606F0E8FF284600F09AF92B4E0A22E4
:100340000146684607F0D7F8694603A807F0F4F8B5
:10035000314603A807F039F90146204606F0E2FFCE
:1003600003A807F04CF8684607F049F820492046F2
:1003700006F0C9FF284600F06AF90A2201466846DD
:1003800007F0B9F8694603A807F0D6F8314603A884
:1003900007F01BF90146204606F0C4FF03A807F04A
:1003A0002EF8684607F02BF8204606F0B5FF4FF40C
:1003B0007A7007F0D7FD06B070BD00BF8C11002029
:1003C000AC5F0020606B02006C6B02006F6B020080
:1003D0007B6B02007E6B02008D6B02008F6B020054
:1003E000A66B0200AA6B0200BA6B0200877B0200B8
:1003F000CB6B020008B5044800F07EF9BDE8084068
:10040000024800F071B800BF901100208C1100204C
:1004100030B54FF4E13185B00D480CF0C4FF0C4C01
:1004200020460DF081F80028FAD06D46094C284688
:1004300000F062F995E80F0084E80F00204600F014
:100440009FF9204600F0C2F9034B186005B030BD9B
:10045000AC5F0020901100208C11002070B5044684
:100460000D4603683621DB6A9847236829461B68D6
:1004700020469847236820465B6B984723680222F2
:100480003621DB6B20469847236820465B699847F6
:10049000236805465B692046984706462368204640
:1004A0005B6B984745EA062080B270BD70B5044684
:1004B0000E46154603683621DB6A984723683146A5
:1004C0001B68204698472368290A1B6820469847DE
:1004D0002368E9B21B682046984723682046BDE898
:1004E00070405B6B1847FFFF014B0360704700BF14
:1004F0009C1E002038B5002104460068FFF7AEFFBF
:1005000083074ED52749284806F016FFBA212068F0
:10051000FFF7A4FF0546902260212068FFF7C6FF81
:100520000022BA212068FFF7C1FF00226021206865
:10053000FFF7BCFF1D491C4806F0FEFE4FF41642B3
:100540003A212068FFF7B2FF4FF4C87218212068E3
:10055000FFF7ACFF40F286221E212068FFF7A6FFBE
:100560001349114806F0E8FE4FF40042DB212068F1
:10057000FFF79CFF2A46BA212068FFF797FF2468FF
:1005800000212046FFF76AFF4FF6FD72002102406E
:100590002046FFF78BFFBDE838400649024806F0C9
:1005A000CBBE38BDDD6B0200AC5F0020EF6B0200FC
:1005B0000A6C0200286C020008B500210068FFF7F1
:1005C0004DFF80F00800C0F3C00008BD10B5044620
:1005D000FFF7F2FF58B119212068FFF73FFF0EF037
:1005E00029FC0022024B0EF08FFC0EF065FF10BDBF
:1005F0000000B43F10B50446FFF7DEFF20B116211E
:100600002068FFF72BFF001210BDFFFF10B5044656
:10061000FFF7D2FF60B10A212068FFF71FFF00B289
:100620000EF008FC0022034B0EF06EFC0EF01CFFD7
:1006300010BD00BF0000C43F10B50446FFF7BCFF6B
:1006400020B10E212068FFF709FF001210BD10B580
:100650000446FFF7B1FF50B111212068FFF7FEFEFD
:1006600041F2F95358434EF6602390FBF3F010BD6E
:1006700010B50446FFF7A0FF18B120212068FFF74E
:10068000EDFE002010BDFFFF10B50446FFF794FFFC
:1006900058B105212068FFF7E1FE0EF0CBFB0022E8
:1006A000024B0EF031FC0EF007FF10BD0000E03FE2
:1006B00038B50446016080200DF018FA054600F0B8
:1006C00023FE6560204638BD016070477047704763
:1006D00010B5044610210DF015FC204610BD10B5D4
:1006E000044607229C2100F0FFF8204605229E21A7
:1006F00000F0FAF810BDFFFF70B504461B4DD5E8B9
:100700008F3FDB0711D428460DF00EFA68B1184E62
:1007100008221849304600F089F8174B2846336004
:100720000DF01EFA154807F0C1FB0C200DF0DEF9A4
:1007300005460F4900F04DF8E56008200DF0D6F9A8
:100740000546E168FFF7B4FF656004200DF0CEF9BF
:100750000546E168FFF7B8FFA56004200DF0C6F973
:100760000546FFF7C1FE2560204670BDA0110020A0
:10077000A41100209C1E0020386C0200CF0601004E
:1007800010B5044686B00F4903A806F083FEE06862
:1007900000F028F80A220146684606F09AFE6946EB
:1007A00003A806F006FF0146074806F0BBFD6846B1
:1007B00006F025FE03A806F022FE2068FFF79AFE49
:1007C00006B010BD446C0200AC5F002003681868DE
:1007D000704710B5044600F023F800232046A360BC
:1007E00010BDFFFF10B50446806810B1034906F044
:1007F000A3FD2046BDE8104000F014B8626C020072
:1008000010B5044C08220449204600F00FF8034BB1
:10081000236010BDB41100209C1E0020386C020023
:1008200001607047006800F00BB8FFFF0272002201
:1008300010B5024CC260C0E9004110BD786C0200E6
:1008400010B5044640680368DB699847606805494D
:1008500003689B6A984723682046BDE810409B6860
:10086000184700BFA086010070B504460E464068D8
:10087000217A03681546DB6A984760683146036849
:100880001B6898476068002103681B6B9847606885
:10089000217A03689E6B01231A46B047606803689B
:1008A0001B6998470028F9DD606803685B69984711
:1008B000287070BD70B504460E4615464068217A12
:1008C0000368DB6A98476068314603681B6898478D
:1008D0006068294603681B68984760680121BDE885
:1008E000704003681B6B1847072A73B505460E4610
:1008F000144605D90B4B0C4A48210C4804F0D6FC91
:100900000DF10702FFF7B0FF01229DF80730A2406A
:100910001A43D2B2314628468DF80720FFF7CAFFA6
:1009200002B070BD846C0200F46C0200906C020096
:100930000020704703681B78092B0BD80A4A52F82D
:1009400023303BB11A7F2AB10279012A03D1032255
:1009500083F82E207047022A01D10122F8E7032AEA
:10096000F8D10222F4E700BF0C23002003681B78B3
:10097000022B0BD80A4A52F823303BB11A7F2AB116
:100980000279012A03D1032283F82E207047022A1C
:1009900001D10122F8E7032AF8D10222F4E700BFCF
:1009A000E422002010B5037F044633B1437F3BB1FE
:1009B000D0F81C310BB13C3098470023237710BD91
:1009C000D0F83031002BF8D0A430F5E703680121CE
:1009D0001B6B184710B403689C6B0123A4465DF899
:1009E000044B604707B5037F8DF8071063B1437F61
:1009F000C3B190F82C309BB1D0F83834FE2B07D916
:100A0000012380F82D304360002003B05DF804FB23
:100A10009DF80710C218013382F83312C0F8383439
:100A20000120F2E7D0F82831002BF9D001220DF196
:100A30000701A4309847F3E7C0F840147047C0F8A6
:100A40004414704790F83C34D0F83404C01A70470E
:100A5000024690F83C34D0F834148B423FBFC118A2
:100A6000013391F8320382F83C3428BF4FF0FF3055
:100A7000704790F83C34D0F8342493423ABFC01801
:100A800090F832034FF0FF30704790F82E30022B71
:100A900003D090F82E30032BF7D17047F8B5037FC1
:100AA00004460D46164693B1437F4BB18F18BD42A5
:100AB0000BD0236815F8011B1B6820469847F6E702
:100AC000D0F828310BB1A43098473046F8BD1E4607
:100AD000FBE7FFFF38B5037F04460D4633B1437F84
:100AE00023B1D0F81C310BB13C309847637FD3B1B0
:100AF0002E4B94F82410C4F880501A6A51B30F2377
:100B0000002284F833300123294984F831208D42B2
:100B100084F8343015D10E2384F83030FF2384F864
:100B20002F2084F83230237F53B1D4F800313BB109
:100B300004F17C0104F13C00984708B100232377BD
:100B400038BD022284F83020CC2284F82F3084F87B
:100B50003220E8E7174BC2F302601B68C2F302328F
:100B60008340D340144A1548B3FBF2F3854203F1A6
:100B7000FF320CD0124A95420FD00D4A9542D2D185
:100B800041F61A320133228784F83730CBE741F23D
:100B90000F0384F837202387C5E7062384F839300C
:100BA000052384F8371084F83830BCE700E00140B2
:100BB000A08601004C250020006CDC02801A060093
:100BC00040420F0017B4D0F8243101914BB10169B4
:100BD00000F59A74019A2144A43003B05DF8044BE7
:100BE0001847012003B05DF8044B70477FB5436898
:100BF000019303681A78022A46D81A783B4B53F8B7
:100C00002240002C40D0237F002B3DD0037A012BC3
:100C100003D1032384F82E3036E0022B1DD10123AB
:100C200084F82E30019E04F59A753246294604F266
:100C3000323010F041F90021C4F83464216184F8A5
:100C40003C14FF22284610F00FFAD4F84034DBB1F0
:100C5000019804B0BDE870401847032B01D102236E
:100C6000D8E7042B12D184F82E302369019A13445B
:100C7000FE2B2DD801212046FFF7A4FF0290029BF6
:100C800013B923690133236104B070BD052B09D169
:100C900084F82E30D4F84434002BF5D004B0BDE8ED
:100CA00070401847062B18D1042384F82E3023698E
:100CB000019A1344FE2B0BD801992046FFF782FFBF
:100CC0000390039B002BDFD1019A23691344DAE7D9
:100CD00000212046FFF776FFD6E7072B01D1052339
:100CE000D6E7082BD0D1062394E700BFE4220020EA
:100CF000F0B580F825309DF8143000254FF47A7651
:100D0000C0E9051280F83D340122DF231D4FC0E900
:100D10000156076005610577427780F824508662A6
:100D200080F82C5080F82D50C0F80051C0F80451C4
:100D3000C0F80851C0F80C51C0F81051C0F8145157
:100D4000C0F81851C0F81C51C0F82051C0F8245107
:100D5000C0F82851C0F82C51C0F83051C0F83454B4
:100D6000C0F8385480F88A3080F88B3080F88C30A6
:100D700080F88D3080F8E43080F8E53080F8E63097
:100D8000F0BD00BF286D02002DE9FF414369044614
:100D9000002B03DA002004B0BDE8F0818269002A4C
:100DA000F8DB8B42F6DA8A42F4DAD9B202226846DC
:100DB00002AE0CF02BFE30460322217E0CF026FE04
:100DC000002000253DF810108B1109B336F81520CE
:100DD000F2B183EA9217FF061AD181EA0207FF07F0
:100DE00016D403F01F0312F00100236217D1022B67
:100DF000D0DCA3691D4D84F8240035F833101C4A5B
:100E00001C4802F077F86369194A35F8331028E076
:100E10000135032DD9D101300328D2D1BAE7092BEE
:100E2000B8DC12F4F04F4FF001050CBF4FF08062B8
:100E30004FF0A06211F4F04F0CBF4FF080684FF0FC
:100E4000A068A3690C4F094E84F8245036F833107B
:100E50003A43084802F04EF8636948EA070236F858
:100E60003310044802F046F8012094E7A46F020012
:100E700010040107B4600020100001007FB50125B7
:100E80000577044600F06DFA01462046FFF77CFF27
:100E9000237F18402077002800F09580637F002B87
:100EA00000F08C8023686E499B6A2046984794F82E
:100EB0002430226A002B5AD06A4B43F822406A4BF6
:100EC000C4F80031694BC4F80431694BC4F80831E7
:100ED000684BC4F80C31684BC4F81031674BC4F848
:100EE0001431674BC4F81831664BC4F81C3104F157
:100EF0002F03C4F8A030644BC4F89830236A584AD2
:100F000084F87C300023C4E9202394F82520C4E928
:100F100024339A4204F17C030CBF01220222C4F85C
:100F20009C300C2384F8882084F88930637F002B60
:100F300000F08580236A04F13C058DF80C3094F8AC
:100F4000243004F17C0601950296002B72D004F047
:100F5000FBFC062101AA05F021F8237F3146184049
:100F600020772846D4F80031984750BB2BE04749FA
:100F700084F8355041F82240454A84F83630C4F8A8
:100F80000021444AC4F80421434AC4F80821434AD2
:100F9000C4F80C21424AC4F81021424AC4F8142172
:100FA000414AC4F81821414AC4F81C2104F1350211
:100FB000C4F8A0203E4AC4F898209FE794F8243053
:100FC0001BB10023237704B070BD304A216A84F836
:100FD000E33042F82140374A84F8EA30C4F820214F
:100FE000354AC4F82421354AC4F82821344AC4F8C3
:100FF0002C21344AC4F83021226A84F8D820184AB7
:10100000C4F8DC20B4F8F820A4F8E02094F82520F7
:10101000002A0CBF0122022284F8E22040F60C4292
:10102000A4F8E820284AC4F8EC2004F1D802C4E966
:101030003C237BE704F088FC01AA05218BE704F13F
:10104000D80504F081FC07212A4604F0A7FF237F7E
:10105000294618402077D4F8203104F1A40083E712
:10106000A08601000C2300205528010065270100FF
:101070007926010079250100A1250100AD25010097
:10108000BD250100D525010035090100E42200201D
:10109000E53A0100C5380100F9380100F53B0100CF
:1010A0004D3701005937010069370100413C01000B
:1010B0006D090100913101009D2F0100D52F010024
:1010C0000930010019300100ED0B01000022036816
:1010D0004277A0F8F810DB6918470022A0F8F81052
:1010E0004277FFF7F3BF2DE9F8431F46037F04461D
:1010F00091462BB3D0F8103153B300F13C0890F86F
:10110000882040469847054668B9D4F8046156B12E
:101110009DF8243084F82E0083F001033A464946B6
:101120004046B047054606F057FF089BC61806F034
:1011300053FFB04204D294F82E300BB9002DF6D0F4
:1011400094F82E30012B0CBF38460020BDE8F88300
:101150000125E8E72DE9F8439946037F04469046C8
:10116000002B39D0D0F8103123B300F13C0790F8B0
:10117000882038469847054668B9D4F8086156B1C2
:101180009DF8243084F82E0083F001034A4641463E
:101190003846B047054606F01FFF089B1E1806F0AC
:1011A0001BFF864208D994F82E302BB9002DF6D0BB
:1011B00004200FE00125EEE7002DF9D194F82D3041
:1011C00063B994F82E305BB194F82E30032B14BF22
:1011D00000200220BDE8F8830620FBE70120F9E7A4
:1011E0000520F7E737B590F8FC5090F838340191B6
:1011F000826A2946009200F233220446FFF7AAFFD2
:10120000002384F82C3003B030BD037F4BB10023A2
:10121000012280F82D30C0F8FC1080F82C20C0F896
:1012200038347047FFF7F1BF2DE9F3411646027FCE
:1012300004460F4698469DF82050002A31D0B5B19B
:101240000368DB6A9847032D28BF0325013DEDB2F3
:10125000FF2D236807D0E90028FA01F11B68C9B205
:1012600020469847F2E71B6B0021204698479DF8DF
:101270002430FF2E28BFFF26003318BF012301931F
:10128000A36A04F2323200933946F3B22046FFF7E4
:101290002AFF0023C4F8340484F83C3402B0BDE8CB
:1012A000F0811046FAE707B5019300230093FFF79A
:1012B000BBFF03B05DF804FB13B500240B222346EB
:1012C00000940C210C48FFF713FD234600942522BF
:1012D00026210A48FFF70CFD2346009427222821E7
:1012E0000748FFF705FD0094234660226121054869
:1012F000FFF7FEFC02B010BDC41100200C16002048
:10130000541A00209C1E00200022022130B580F8D3
:101310007C2080F87D2080F87E2080F87F2080F877
:1013200048104FF40044002580F8642080F86720BE
:1013300080F8652080F866204FF4004180F8342062
:1013400080F8372080F8352080F836200322C0E965
:1013500014458166027630BD08B506F0EFFD002029
:1013600008BD7A207047FFFF08B51A494FF4C060E6
:1013700006F0E8FD03200023174A9178137060F30C
:10138000020191705178137101F0F80163F30611B5
:1013900051701249537193710B700B72C1E905338F
:1013A000CB604FF6037301200B82DF23D0704860BF
:1013B0000B48CA618B7403F08DFD50B9084803F0E7
:1013C00013FD30B9064803F05BFD10B90222054B4E
:1013D000DA7008BD0000010154230020182300200A
:1013E000382300205025002008B5FFF7BDFFBDE8D9
:1013F00008400021232006F089BCFFFF84460B79BA
:10140000144ADB01DBB230B593714B7891F802E0FE
:101410001B014FEA0E3E0EF4405EDBB243EA0E03C0
:101420000D4D91F800E00D4C15F80E5091F803E0C9
:1014300005F003054FEA0E2E0EF4407E43EA0E033C
:101440002B4353804B790020DB01DBB21372CCF8C5
:10145000004030BD0034084074730200544457000B
:101460000020FF22014B18701A70704700340840AA
:1014700030B5836A85B004468C4601ADABB193E8C4
:10148000070085E8070062681846117883F804C0F1
:10149000E26A19609A60636A9847A36A1BB195E88B
:1014A000070083E8070005B030BD2B46EBE700BF1F
:1014B00010B4EFF30383103B214A5BB203F1C00188
:1014C00052F821001F4C6FF3104042F8210054F8ED
:1014D0002330D3E906218A421BD0186938B393F828
:1014E00020400F2C0BD99968496840F82210D9691F
:1014F00001328A429A610CD05DF8044B7047072C88
:1015000018D8996809798154D96901328A429A6157
:10151000F2D101225B680C4993F903305DF8044B6A
:1015200003F01F0082405B0941F823207047986850
:101530004068DDE79C68A48820F81240D8E700BF27
:1015400000600040C023002000E100E0F0B5EFF3B0
:101550000383103B30495BB203F1C00251F8220013
:101560002E4C6FF3104041F8220054F82330586895
:10157000026A002A31D092F801C0DC69BCF1010F87
:101580005A6918D0944210D0D96849B393F8200012
:101590000F280BD8072898BF895C98688ABF31F854
:1015A00012100171818001325A61F0BD986851F8C2
:1015B00022104160F7E704F1FF3E724513D0016944
:1015C0000029DFD090F90300154D00F01F010CFA3F
:1015D00001F1400945F82010D4E75A69DC69D1E7E8
:1015E00098684160DFE790F903E00EF1C0064FEA2A
:1015F0005E1051F8267080000EF01F0E00F1604062
:101600000CFA0EF500F561406FF3104741F82670B3
:10161000C0F880510560B5E700600040C02300209D
:1016200000E100E010B4EFF30383103B324A5BB2F9
:1016300003F1C00152F82100304C6FF3104042F822
:10164000210054F823008268D278920706D54268B8
:10165000527A012A02D05DF8044B70470122284CCF
:10166000590903F01F03203102FA03F344F8213033
:10167000BFF34F8FBFF36F8F436893F90230002B96
:101680002FDB590903F01F0302FA03F3203144F85A
:101690002130BFF34F8FBFF36F8FD0E90114237850
:1016A00091F902106FF386130029237014DB124C9A
:1016B00001F1C00C4B0901F01F018A409B0054F856
:1016C0002C1003F1604303F561436FF3104144F8BC
:1016D0002C10C3F880211A6001215DF8044BFFF73C
:1016E000C7BE8268012113785DF8044B6FF386133F
:1016F0001370FFF7BDBE00BF00600040C023002094
:1017000000E100E070B5EFF30384324B103C64B2AB
:1017100053F82460736893F90230002B42DB0120F8
:101720002D495A0903F01F03203200FA03F341F850
:101730002230BFF34F8FBFF36F8FD6E9012392F9A9
:1017400002101A7800296FF386121A7015DB234DE8
:1017500001F1C00C4A0901F01F0100FA01F19200E9
:1017600055F82C0002F1604202F561426FF310401F
:1017700045F82C00C2F8801111600021DA78D97088
:10178000D5B2120721D4EB0712D405F01405142D9D
:1017900016D0124BC03453F824206FF3104243F894
:1017A000242070BDB3681A786FF386121A70E4E7CC
:1017B0000421304605F01405FFF75AFE142DE8D138
:1017C00008213046FFF754FEE3E705213046FFF7D6
:1017D0004FFED8E7C023002000E100E00060004099
:1017E00030B5D0F83C5285B0DDB1D0F84032044677
:1017F0008C46C3B193E807000DF1100E0EE9070007
:101800009CE8070083E80700D4F8442218469A6051
:10181000A847D4F8403223B104AA12E9070083E8AC
:10182000070005B030BD0B46EEE700BFF0B585B050
:10183000EFF303840022454B103C64B253F824605C
:10184000CDE90122336A0392196948F27F3062F3CD
:10185000000119619A6BDD6B02F00502D14305406E
:101860009963E943D00742EA0545D96311D50821B8
:10187000ADF804101969C9054CBF996A99690291BC
:101880001968262952D0196C21F0040141F0010198
:1018900019642F4F2F4077BB530712D4736A1D432F
:1018A000B37F75621BB1BDF80430002B49D1294BC1
:1018B000C03453F824206FF3104243F8242005B0BD
:1018C000F0BD96F82830012BE8D0736886F82870B0
:1018D0005B68C6E90C779A681868F7621369B763A2
:1018E0009847BDF8043043F02003ADF80430336A64
:1018F000C3F8B071D2E7012200271A61736886F835
:1019000028705A68BDF80430C6E90C7743F04003EC
:10191000ADF80430936810681B69F762B7639847A5
:10192000336A45F40005C3F8B071B7E7D96B01F429
:10193000814180290CBF88214FF48471ADF80410D7
:10194000A7E7304601A9FFF74BFFB0E7C02300200F
:1019500000007F8000600040002230B585B0CDE9F6
:1019600001220392EFF30384154B103C64B253F849
:101970002400056AAB6B13F4847F03D082770122C5
:10198000ADF8042013F4047F05D0BDF8042042F024
:101990000202ADF8042003F44673DB43D0F844227E
:1019A00001A9AB630392FFF71BFF064BC03453F84A
:1019B00024206FF3104243F8242005B030BD00BF4F
:1019C000C023002000600040F8B504460D46036ABD
:1019D0008078997800F0030C01F07B019970E1693F
:1019E000A2EB0C020E6905EB0C012261E16076B1FD
:1019F0006AB10CF1FF3C22FA0CF293B20022B768F4
:101A00003068BE682261B04760B9236AA0789A78CE
:101A100000F0030042F0800202289A7003D00020F8
:101A20002A78DA70F8BD2A88002042F47E42DA81F2
:101A3000F8BD00BF70B586460024DEF820304D7832
:101A400093F802C00A780CF00B069E70CEF80C409A
:101A500020468C7802F05C025C7093F800E00CF099
:101A60007B0C65F3010E83F800E0C9789974D9798D
:101A700001F0A3010A43DA7183F802C070BD00BF10
:101A800010B5002204460123006A62608270E26998
:101A90002E4992F90520500902F01F0203FA02F2C2
:101AA000203041F82020BFF34F8FBFF36F8FE269E2
:101AB00092F90B20500902F01F0203FA02F22030C3
:101AC00041F82020BFF34F8FBFF36F8FE26992F987
:101AD0000720500902F01F0203FA02F2203041F8F9
:101AE0002020BFF34F8FBFF36F8FE26992F9092077
:101AF000500902F01F02934000F1200241F8223009
:101B0000BFF34F8FBFF36F8FE369DA6822B1936839
:101B100010681B6A9847E3691B691BB19A681868CB
:101B2000136A9847EFF31081012383F310884FF075
:101B30000043E069064A04785068E3400343536079
:101B4000536881F31088002010BD00BF00E100E061
:101B500000400840F0B5846A85B005460F469446BB
:101B60006E46B4B194E80F0086E80F00EB6920469A
:101B70001B7884F804C02360EB6AC4E902736B6AC3
:101B80009847AC6A1CB196E80F0084E80F0005B0D6
:101B9000F0BD3446EAE700BF00222DE9F0470126F8
:101BA0000D460B78027003F5800303F58C531B027E
:101BB00003624B69C16143628378896966F30103FB
:101BC0008262C16283706B78044623B902228378F3
:101BD00062F3010383704FF0010C95F90B105A4B1F
:101BE0004A0901F01F0620320CFA06F6A87A43F8DB
:101BF0002260BFF34F8FBFF36F8F544A01F1C006CD
:101C000052F8267000016FF3104742F82670504ECC
:101C10005F18C0B287F8000346F8214095F9051017
:101C200028794F0901F01F0E20370CFA0EFE43F8F9
:101C300027E0BFF34F8FBFF36F8F01F1C00752F85A
:101C400027E000016FF3104E42F827E0C0B25F18A2
:101C500087F8000346F8214095F90710A8794F0945
:101C600001F01F0E20370CFA0EFE43F827E0BFF3F9
:101C70004F8FBFF36F8F01F1C00752F827E00001CB
:101C80006FF3104E42F827E0C0B25F1887F80003E8
:101C900046F8214095F90910287A4F0901F01F0EE6
:101CA00020370CFA0EFE43F827E0BFF34F8FBFF347
:101CB0006F8F01F1C00752F827E000010B44C0B25A
:101CC0006FF3104E42F827E083F80003EB6846F804
:101CD0002140B3B14FF400265968206A0A68471DB5
:101CE0001660E669576076782EB910305060D0786B
:101CF0006CF30510D0709A68186812689047064611
:101D0000F8B92B6933B34FF0006059680A68106066
:101D1000D4E90760C71C9760767836B901260E3083
:101D20009060D07866F30510D0709A6818681268D1
:101D30009047064670B1EB681BB19A681868136A41
:101D400098473046BDE8F08700E100E000600040C1
:101D5000C0230020EFF31080012383F310884FF09D
:101D600000418D4B2E785A68F14022EA01025A60F8
:101D70005B6880F31088002240F2F931236A9A7080
:101D80001A715A729A72DA725A832A7821FA02F216
:101D9000D60744BF4022DA74062240F2F931EE69D8
:101DA0001A772A786878D140AF78EA78CD0748BFAB
:101DB0004FF478414FEAC20248BF9982032842EAB1
:101DC000071200F0D780002814BFF221E221D2B21E
:101DD0001A709971327B082A0EBF0A22520002F053
:101DE00002025A737278B178D201490101F02001E0
:101DF000D2B20A43002119723578A91E012940F296
:101E0000BD80D2B2DA7172689178507859701978C1
:101E100060F301011970D17812789974D97902F0C0
:101E20005C0201F0A3010A43DA7100204FF0010CBB
:101E3000C4E90300C4E90500D4F81C804FF6FF7E16
:101E400098F90570554A07F1C009790952F829A097
:101E5000890007F01F0701F160410CFA07F701F54F
:101E6000614160F3104A42F829A0C1F880710F6007
:101E700098F90B7005F0030507F1C009790952F8CC
:101E800029A0890007F01F0701F160410CFA07F74C
:101E900001F5614160F3104A42F829A0C1F8807150
:101EA0000F6098F9077045F0700507F1C0097909CE
:101EB00052F829A0890007F01F0701F160410CFAD0
:101EC00007F701F5614160F3104A42F829A0C1F813
:101ED00080710F6098F9091001F1C00752F827804E
:101EE00060F3104842F827804A097089920001F097
:101EF0001F0102F160420CFA01F102F561427045E6
:101F0000C2F8801111609D7020812DD0EFF31081F7
:101F10008CF31088224A13681BB92248C3704023EF
:101F2000C37013680133136081F3108821891E4840
:101F30000B0A1B0153FA81F150F8213023F00113F1
:101F400023F4404343F0040340F82130EFF31081C1
:101F5000012383F31088136813B11368013B1360E6
:101F60001368A3B181F310880026104B30466360DC
:101F7000BDE8F087F22142F0400228E7FF21022D60
:101F800008BF42F01002D2B25970DA714DE78020DA
:101F9000044AD370D070E5E700400840006000407C
:101FA000BC230020000D0840000808405549435359
:101FB0002DE9F04F4FF0FF0C4FF0800E1E468BB016
:101FC00083F803E083F802C0584F594D01913178EE
:101FD0003B6A00246FF3820109922A683170C3F3CF
:101FE00002618A40C3F3023322FA03F30022089409
:101FF000504C0693A3FB04BA1B0A0094079002926C
:102000000593099B009A93426EDA00279DF82030D1
:102010000393494B039ADD5DC5F34003C5F3800587
:1020200004932B43934256D1444B33F81780079BBC
:1020300003FB08F8069BB3FBF8F2541EFF2C4AD8AA
:1020400002FB08F91DE0059BB9FBF3F37F2B42D996
:1020500003FB00F00028B8BFFF300012A0F5C3302A
:10206000A0380028009AB8BF4042824240DC029B60
:10207000A9EB0809F370337843F00403337054B3C9
:10208000013C4A46584651464FEAE9730DF034FA8E
:10209000019A002AD7D1A0F5C333A03B002B009AA8
:1020A000B8BF5B429A4216DD0093234BB470DA5DF1
:1020B0003378C2F3000161F386130499C2F3C102BD
:1020C00061F3041365F3C3033370737862F30103A0
:1020D0007370019B029301370D2F9AD1089BF3B1C6
:1020E000009B099A93421DDC00200BB0BDE8F08FE5
:1020F0000293114B049AD95D33780090C1F300002C
:1021000060F386137078C1F3C10162F3041361F3C5
:10211000010065F3C303B47070703370A7E7012347
:1021200008936EE703200BB0BDE8F08F00E001409C
:102130004C250020A08601007C7302008C730200F5
:1021400030B4EFF30383103B5BB21E4A03F1C001CE
:1021500052F821001C4C6FF3104042F8210054F853
:102160002300C3691B691BB103691BB130BC7047F5
:1021700003697BB9D0E908240021937803F07F0339
:1021800043F004039370C160002CEFD030BC802278
:10219000FFF7E0BC827802F003010229C1680BD08E
:1021A000046A91F800C084F803C002F003029B1A8D
:1021B0000A44C0E90323D8E70C88056A44F47E4446
:1021C000EC81F2E700600040C023002010B582B02F
:1021D000EFF30383103B5BB24E4A03F1C00152F8A8
:1021E00021004D4C6FF3104042F8210054F8234079
:1021F000E369DB6813B1A369002B43D14FF6FF738A
:1022000022899A424BD1A27802F00303022B236A5F
:102210000CBF198A5979A3690CBFC1F30801C9B26F
:102220000191002B5DD1636A1BB104222046FFF7A8
:1022300091FC4FF6FF722389934221D01A0A374945
:10224000120152FA83F351F8232022F0011222F4F2
:10225000404242F0040241F82320EFF310820123B0
:1022600083F310882E4B196811B119680139196070
:102270001B681BB980202B49CB70C87082F3108873
:1022800002B010BD0021636AC4E90511002BF7D02C
:102290000122204602B0BDE81040FFF75BBCEFF31F
:1022A0001081012383F310881D4B1A681AB91D4849
:1022B000C2704022C2701A6801321A6081F310881D
:1022C00022891649130A1B0153FA82F251F822306F
:1022D00023F0011323F4404343F0050341F8223077
:1022E00091E702F0030201A960690EF0E5FDD4E96F
:1022F0000521A37803F003031A44C91AC4E9052190
:10230000002996D1636A002B93D001222046FFF763
:1023100021FC8EE700600040C02300200008084038
:10232000BC230020000D084010B5EFF303840C4BD4
:10233000103C64B253F82400D0E90821937803F0EC
:102340007B03937019B102220021FFF703FC054BB8
:10235000C03453F824206FF3104243F8242010BDFA
:10236000C02300200060004010B5EFF30384194B38
:10237000103C64B253F82400837803F00303022B6B
:10238000036A0CBF198A597993F804C00CBFC1F3D2
:102390000801C9B21CF0100F0CF0380206D093F8F7
:1023A0001CC01CF0010F08BF42F0400293F804C0AB
:1023B0000CF0C70C83F804C0436A0BB1FFF7CAFBEB
:1023C000054BC03453F824206FF3104243F8242007
:1023D00010BD00BFC02300200060004030B5436A3C
:1023E00085B004468C4601ADABB193E8070085E8A3
:1023F000070062681846117883F804C0A26A196061
:102400009A60236A9847636A1BB195E8070083E8DE
:10241000070005B030BD2B46EBE700BF10B4EFF36B
:102420000383103B154A5BB203F1C00152F821004F
:10243000134C6FF3104042F8210054F823305A69CE
:10244000D9698A4206D2D3E90240A8B1805CE07023
:1024500001325A618A4202D05DF8044B70471A6912
:10246000002AF9D19A685DF8044B937803F07B0356
:1024700043F0040393707047E070E9E700600040A8
:10248000C023002010B4EFF30383103B184A5BB263
:1024900003F1C00152F82100164C6FF3104042F8CE
:1024A000210054F823305A69D9698A4206D2D3E907
:1024B0000240D0B1805CE07001325A619A698A4270
:1024C00007D2986819694079541C9C618854D3E9F3
:1024D0000621914206D19A68937803F03B0343F0BA
:1024E000040393705DF8044B7047E070E4E700BFAD
:1024F00000600040C023002010B5EFF303840B4BB5
:10250000103C64B253F8240001218268C0349378EF
:1025100003F003039370FFF761FF054B53F824208A
:102520006FF3104243F8242010BD00BFC0230020E9
:102530000060004010B5EFF303844FF0840C0C4BA7
:10254000103C64B253F8240004218368C0349A78A4
:1025500002F003029A701A7983F804C0FFF73EFF75
:10256000044B53F824206FF3104243F8242010BD8D
:10257000C023002000600040034600224FF0F00C12
:10258000196910468A7081F80BC093F82AC0D9697E
:102590001A6283F8302083F82CC05962704700BF5C
:1025A0000346002059601A72704700BF844600201D
:1025B000CCE90E32CCF83410704700BF0346044A11
:1025C000DB6800209B1AB3FA83F35B090B7070473A
:1025D0004332495300234FF0F00C10B50446026912
:1025E00001689370937082F80BC090F82A00E2693A
:1025F00084F82C0062628A69236284F83030E360D8
:1026000022B1936810681B6A984721684B691BB117
:102610009A681868136A9847EFF31081012383F3CF
:1026200010884FF000432068054A04785068E34062
:1026300003435360536881F31088002010BD00BF2E
:102640000040084003685969A1B190F82D3070B579
:10265000044603F0FF0563B98A68038C966808682E
:102660002A46A169B0470123E26984F83330C4E9FE
:10267000085270BD704700BF38B590F808C00546D5
:10268000BCF1010F816180F82E30C26147D090F813
:102690002AC0002385F82D3085F82F3085F8313099
:1026A00085F833302A6295F82D2085F82BC085F8FF
:1026B0002C306B6212B1012385F83130B4212A68C5
:1026C0002B69526999706AB1002152681268997039
:1026D00095F82D40FCB94FF0006111602321B42220
:1026E00099729A7095F830201AB951220020DA7246
:1026F00038BD0022BCF1010F85F8302019D001222D
:1027000095F829100CF1FF3CD97085F82BC085F89D
:102710002C20002038BD116011495160DEE70021F6
:10272000436880F82AC05B0080F8283080F82910C0
:10273000AFE72846FFF786FF95F82A3095F82C205A
:10274000012B07D1013295F828102B6995F82BC081
:10275000D2B2D7E701322B6995F82BC0D2B2CFE7BE
:10276000A673020038B590F808C00546BCF1010F09
:10277000816180F82E30C26147D090F82AC00023D2
:10278000012185F82D1085F82F3085F8313085F836
:1027900033302A6295F82D2085F82BC085F82C302F
:1027A0006B620AB185F83110B4212A682B6952692D
:1027B00099706AB1002152681268997095F82D409D
:1027C000FCB94FF0006111602321B42299729A7014
:1027D00095F830201AB951220020DA7238BD002253
:1027E000BCF1010F85F830201BD0012295F829108B
:1027F0000CF1FF3CD97085F82BC085F82C20002007
:1028000038BD116012495160DEE70021436880F84D
:102810002AC05B0043F0010380F8283080F82910BB
:10282000ADE72846FFF70EFF95F82A3095F82C20E3
:10283000012B07D1013295F828102B6995F82BC090
:10284000D2B2D5E701322B6995F82BC0D2B2CDE7D1
:10285000A67302002DE9F0470D4600220B78896827
:1028600003F58003C0E9005103F58C531B0203619B
:10287000297B04460172E96982B04163296A826357
:10288000AA69C163C2B16E464FF4002E5168053388
:102890000F6895F90EC003C97B60C7F800E086E8B1
:1028A0000300019B314683F800C0936810681B68E1
:1028B0009847002840F0C2806B69BBB15968226913
:1028C00008682668033296F90F60002782606A461E
:1028D000076003C982E803001146019A16709A68DE
:1028E000186813689847002840F0C580EFF31086F9
:1028F000012080F310884FF00042644B297822FABF
:1029000001F15A6822EA01025A605B6886F3108876
:1029100000214FF0F00A4FF0FA094FF0230E226821
:102920002369D2F824805A4E98F800C0997083F831
:102930000BA098F802A04FEA8C0C0AF0030A83F867
:1029400000A083F8069098F801904CF0200C5FFAF4
:102950008CFC83F8019083F807C098F805C04D4FB0
:1029600083F808C098F803C04B4A83F812C098F85F
:1029700004C04FEACC0C4CEA000C5FFA8CFC83F8E4
:1029800009C083F80AE0597395F80DC095F90F3026
:102990004FEA0C1C06EB030E5FFA8CFC8EF800C3AA
:1029A00003F1C00847F823404FEA531E52F828901D
:1029B0004FEA8E0E03F01F030EF1604E00FA03F390
:1029C0000EF5614E61F3104942F82890CEF880313F
:1029D000CEF8003095F9103006EB030E8EF800C3E8
:1029E00003F1C00847F823404FEA531E52F82890DD
:1029F0004FEA8E0E03F01F030EF1604E00FA03F350
:102A00000EF5614E61F3104942F82890CEF88031FE
:102A1000CEF8003095F90E308B4212DA00231846BA
:102A20001E4AC4E9083384F82D30E26084F82E3061
:102A3000A36184F82F30E36184F8303002B0BDE840
:102A4000F0871E445D0986F800C3AD0047F82340B7
:102A500003F1C00603F01F03984005F1604352F8EC
:102A6000265003F5614361F3104542F82650C3F840
:102A700080011860D2E7AB69002BDFD09A68186834
:102A8000136A98470028D9D130E700BF00400840BA
:102A900000E100E0C02300200060004043324953C1
:102AA00070B5856B82B004460B466E463DB395E823
:102AB000030086E80300E26B2B7123682A605A69E1
:102AC00012B194F82D10A1B19B6913B194F82D2087
:102AD00052B9636B28469847A36B1BB196E8030075
:102AE00083E8030002B070BD9A68186813699847BC
:102AF000EFE7936810681B6998472368E4E7354659
:102B0000D9E700BFEFF30383103B054A5BB2C03344
:102B100052F823106FF3104142F82310704700BFA2
:102B20000060004070B5EFF30383103B634A5BB273
:102B3000C03352F823106FF3104142F82310EFF323
:102B400003835F4A103B5BB252F823402269137B38
:102B5000C3F30000DB072CD494F82C3094F82A102F
:102B6000994216D094F82D1009B1022B46D0204678
:102B7000FFF768FD236994F82820DA7094F82B2079
:102B800094F82C30013A013384F82B2084F82C304F
:102B900070BD94F8333003F0FF0563BB236ABBBB01
:102BA00094F82E308BB352210123D17284F8303047
:102BB00070BD94F82D30B3B194F831309BB9517990
:102BC000636AA269D15494F82E10D4E90823013A1B
:102BD0000133C4E90823A1B1522101232269D17232
:102BE00084F8303070BD002001215423206284F825
:102BF0002F10D37270BD84F8330070BD5223D3728E
:102C000070BD54222369DA7270BD5423D37270BD33
:102C100094F82D1041B9616AA069013B405C013113
:102C2000C4E90831D07070BD94F8311000292ED05D
:102C3000216884F831504869002838D08969002912
:102C400035D0E069022832D9831EF42090708A685A
:102C5000086896682946A2699BB2B0472268E36972
:102C60005269023B916810688E682A4629469BB2D9
:102C7000B04702200121E3692269023BC4E908034D
:102C800084F833100023FF209372D070CBE7517982
:102C9000636AA269D154D4E90832013B0132012BA5
:102CA000C4E90832226904D0FF20D070BBE7012BB1
:102CB000E8D12023FF209372D070B4E70060004079
:102CC000C023002010B582B0EFF30383374A103BD6
:102CD0005BB252F823000269D37A6FF3C303D37255
:102CE00090F82F30ABBB90F82A1003F0FF0C90F84F
:102CF0002C3099421BD1036A5BB990F82D1090F8E3
:102D00003040002914BF02210321A4B3D372FFF77E
:102D1000C7FEEFF30383103B254A5BB2C03352F882
:102D200023106FF3104142F8231002B010BDB3B965
:102D3000012929D090F829C00021D17282F803C05E
:102D400090F82B20013380F82C30531E80F82B3064
:102D5000DFE7F0230121D372FFF7A2FED9E790F855
:102D60002D4004F0FF016CB1022BE5D190F829C091
:102D70004CF0010CE0E7F023D372937803F0CF031B
:102D80009370C4E78C46D7E70190FFF75BFC01988E
:102D900090F82A30012B05D190F828C0026990F8EC
:102DA0002C30C9E7026990F82C30C3E7C02300201B
:102DB00000600040F0B583B0EFF30384154B103C86
:102DC00064B253F82450EF68BFB16A682B6992F976
:102DD0000D206E46121B18BF0122C3B193E80300F9
:102DE00086E803001A706A6918465A60B8472B696A
:102DF0001BB196E8030083E80300074BC03453F887
:102E000024206FF3104243F8242003B0F0BD334672
:102E1000E8E700BFC023002000600040EFF3038319
:102E20000120074A103B5BB252F82310054AC03319
:102E3000087252F823106FF3104142F823107047C4
:102E4000C02300200060004038B50488002C4CD01E
:102E50000021436840F20245043303EBC40040F212
:102E6000034C40F2044E0C460FE062452FD153F85C
:102E7000042C02F0B852B2F1807F14BF41F002017D
:102E800044F002040833834210D01A88AA42ECD1DD
:102E900053F8042C083302F0B852B2F1807F14BF0B
:102EA00041F0010144F001048342EED1C943CDB2A7
:102EB000012002F0D3FA0E4B012093F8BB241443F7
:102EC0002C4083F8BB44BDE8384002F097BA724505
:102ED000D8D153F8042C02F0B852B2F1807F0CBF65
:102EE00044F0040441F00401CCE7FF25E0E700BF13
:102EF00000E0014070B5012684B002AB68460C4684
:102F000015460193ADF80060ADF80C100292FFF782
:102F10009BFFEFF3108286F310881D490B681BB9E5
:102F200040261C48C370C6700B6801330B6082F3E7
:102F30001088EA034FEA1423E4B219D41B01164A9D
:102F4000234442F82350EFF31082012383F31088C7
:102F50000B6813B10B68013B0B600B681BB9802039
:102F60000C49CB70C87082F31088002004B070BD8B
:102F7000094A04EB031052F820601B016FF310465E
:102F800042F8206025F4803642F82060D7E700BF81
:102F9000BC230020000D084000080840034610B480
:102FA0004FF0010C0024C3E903125A619A6883F8B8
:102FB00021C083F8234011799C6141F01001117107
:102FC0001179204664F3C301117183F824405DF840
:102FD000044B7047034630B400249D6883F82140B9
:102FE00083F82340C3E903125A612A799C6142F0B5
:102FF00010022A712A79204664F3C3022A7183F8E9
:10300000244030BC704700BF84460020CCE90B321E
:10301000CCF82810704700BF0021012310B482684B
:103020004160D17102682C4C92F90F204FEA521C7A
:1030300002F01F0203FA02F20CF1200C44F82C20DB
:10304000BFF34F8FBFF36F8F026892F90C204FEAE6
:10305000521C02F01F0203FA02F20CF1200C44F899
:103060002C20BFF34F8FBFF36F8F026892F90D20B2
:103070004FEA521C02F01F0203FA02F20CF1200C7C
:1030800044F82C20BFF34F8FBFF36F8F026892F983
:103090000E204FEA521C02F01F0203FA02F20CF15A
:1030A000200C44F82C20BFF34F8FBFF36F8FEFF34A
:1030B000108483F310880068084A0078C0F1090082
:1030C0008340506803435360536884F31088084674
:1030D0005DF8044B704700BF00E100E0004008408D
:1030E00070B5C36A84B004468C46164601AD9BB1E8
:1030F00093E8070085E8070083F808C0226B1846AC
:10310000C3E90026A36A9847E36A1BB195E8070064
:1031100083E8070004B070BD2B46EDE7F8B5012247
:10312000B32302270446856880F82020EB7180F8DD
:1031300021706B79C2696FF300036B710E46FFF764
:10314000CFFFA368DF705A7942F001025A7194F8F8
:103150002120012A16D094F8212002B1F8BD052EB5
:10316000FCD194F82320002AF8D194F821201AB930
:103170005A7A02F0F3025A72BF210122D97184F8FF
:103180002320F8BD042EECD0082EE4D1E9E700BFDF
:103190002DE9F04F00260B784A6903F5800303F50B
:1031A0001F631B0283608B690160C0E90B6382624D
:1031B000EFF31084012383F310880A78C2F1090227
:1031C0009340814A516821EA03035360536884F3B2
:1031D0001088DF214FF01F0C5F2702688368D569D4
:1031E00080F82360AC7883F800C01F701970917A62
:1031F000012900F0E2801689F10901F0060141F091
:103200000101F6B2D9729E720226D17AC90041F04C
:103210000101C9B299716D49DE7056688E420CBFCA
:103220006FF07F010021002C00F0C18041F07D0192
:10323000C9B2013C597166B24FF0A0094FF09F0826
:103240004FF0020E4FF0010C6978614F41F0E00140
:1032500019742C78917C240146EA811104F07004E1
:1032600044F00804C9B29C70197183F8079083F880
:10327000008092F8118092F90F300021554D564E82
:103280004FEA0818554C05EB03095FFA88F889F8EE
:10329000008346F8230003F1C0094FEA531854F89D
:1032A00029A008FA0EF803F01F0308F160480CFA91
:1032B00003F308F561486FF3104A44F829A0C8F8F1
:1032C0008031C8F8003092F8108092F90D304FEA42
:1032D00008185FFA88F805EB030989F800834FEABC
:1032E000531A46F8230003F1C00954F829B00AFA2A
:1032F0000EFA03F01F030AF1604A0CFA03F30AF511
:10330000614A6FF3104B44F829B0CAF88031CAF80B
:10331000003092F90E3005EB030989F800834FEA7B
:10332000531A46F8230003F1C00954F829B00AFAE9
:103330000EFA03F01F030AF1604A0CFA03F30AF5D0
:10334000614A6FF3104B44F829B0CAF88031CAF8CB
:10335000003092F90C20154485F80083530946F893
:10336000220002F1C00554F8256003FA0EF302F0C2
:103370001F0203F160430CFA02F203F561436FF39D
:10338000104644F82560C3F880211A6080F82410A4
:1033900080F821E0C0E9051180F82210C1600161C8
:1033A000476080F82010C1610846BDE8F08F41F009
:1033B0005D01C9B2264659713EE71189DE724900A6
:1033C000C9B2997220E700BF0040084040420F0098
:1033D0005343324900E100E0C02300200060004078
:1033E00070B582B0EFF30383103B444A5BB2C03345
:1033F00052F823106FF3104142F82310EFF30383C8
:103400003F4A103B5BB252F8234094F82230B3B9E4
:103410000122A36884F82220DA7CD2B28DF805203C
:103420009DF8052012F0010F5A7A14BF02F0F7023E
:1034300002F0F3025A72AC22DA7102B070BD94F855
:1034400020304BB9A36820461B7A13F0080F14BF35
:1034500008210421FFF762FE2269A2B9A368D97C82
:10346000C9B28DF806109DF80610197941F01001C7
:103470001971197941F008011971197962F3041170
:10348000197102B070BDA3699A420AD0D4E9021240
:10349000C97C581CA061D154E3690133E36102B0D7
:1034A00070BD0225A66884F821507379E2696FF334
:1034B0000003062173712046FFF712FEA3682169FD
:1034C000DD705A7942F001025A7191B9DA7CD2B2B8
:1034D0008DF807209DF807201A7942F010021A7122
:1034E0001A7942F008021A711A7961F304121A71FA
:1034F000A3E7A269D97C501CE368CBE700600040D9
:10350000C023002038B5EFF30383103B244A5BB29D
:10351000C03352F823106FF3104142F82310EFF339
:103520000383204A103B5BB252F8234094F82030CA
:1035300093B194F8213003F0FF0263B9A3692169C4
:1035400099420ED0E168E269C85CA168013301329A
:103550008874C4E9063238BD05212046FFF7DEFD38
:10356000E7E723680E4993F90E3003F1C00051F8E4
:103570002050002B62F3104541F8205009DB012157
:103580005A09094803F01F03603201FA03F340F8B7
:103590002230A268D37943F04003D37138BD00BF15
:1035A00000600040C023002000E100E070B5EFF3B0
:1035B0000383214A103B5BB252F82350AC68237955
:1035C0005907C3F3800C17D5E279C0236FF3861235
:1035D000E27101E0013B02D0E2795206FAD4EFF346
:1035E0000383103B154A5BB2C03352F823106FF3CC
:1035F000104142F8231070BD022685F821606379DE
:10360000EA696CF30003637107212846FFF768FD40
:10361000AC68E670637943F00103637195F821307B
:10362000002BD1D1AB69E968EA69C95C0132013389
:10363000A174C5E90632C7E7C0230020006000403E
:1036400010B582B0EFF303833E4A103B5BB252F8F1
:10365000230083685A7A91074ED1D1B211F00C0F32
:103660003DD0012280F8242090F82120012A66D044
:103670000169826991424FF00301C26984BF02F17E
:10368000FF32C2614FF0000EA024DC7180F820E010
:1036900080F822E093F805C06EF3000C83F805C0B3
:1036A00090F82440002C45D14FF0DF0C9F2483F884
:1036B00000C01C7000240223C46180F82130FFF791
:1036C0000FFDEFF30383103B1F4A5BB2C03352F888
:1036D00023106FF3104142F8231002B010BDCA0648
:1036E000EFD5DA7CD2B28DF807209DF80720DA7981
:1036F00002F0EF02DA71E4E70022A02180F8242032
:10370000D97180F8202080F82220597962F30001D5
:10371000597190F8241081B9DF219F2219701A7015
:1037200000240223C2690121C46180F82130FFF71F
:10373000D7FCC6E783F809E0BCE75A72F0E702213C
:10374000C2699FE7C02300200060004003460020BC
:1037500059601A72704700BF84460020CCE90E32CF
:10376000CCF83410704700BF0346044ADB680020E1
:103770009B1AB3FA83F35B090B70704743494952B4
:1037800070B5856B82B004460B466E4655B395E81E
:10379000030086E80300E26B2B7123682A605A69F4
:1037A00012B194F82910B9B19B6913B194F829208A
:1037B0006AB9636B28469847A36B1BB196E8030070
:1037C00083E80300002384F82B3002B070BD9A68B0
:1037D000186813699847ECE7936810681B69984765
:1037E0002368E1E73546D6E730B4344B82B01B6A34
:1037F000026903F00F2301930199019D137C90F856
:103800002C409CB9C1F30321DBB2A1EB15618B40C5
:103810009B0806D10823184602B030BC7047013B14
:10382000F8D05178C909FAD1B323D371002390F8A5
:103830002640016880F8274080F82830846980F8A5
:103840002B30036280F82D3080F82E3080F82F3036
:1038500080F830304B6AC46193F800C05C78BCF1EA
:10386000010F0CBF0523042343EA4403DBB2D370EA
:10387000537943F00103537191F90F30002B08DBAA
:10388000012203F01F040E495B09A24041F82320E6
:103890000269BF23D37190F82C1001F0FF0339B1F6
:1038A0000022134680F82C20184602B030BC704726
:1038B00002211846517002B030BC704700E0014050
:1038C00000E100E090F808C0C0E90512BCF1010F6A
:1038D00080F82A300AD10022436880F826C05B00B5
:1038E00043F0010380F8243080F82520012380F87C
:1038F0002930FFF779BF00BF90F808C0C0E9051272
:10390000BCF1010F80F82A3008D10022436880F80A
:1039100026C05B0080F8243080F82520002380F842
:103920002930FFF761BF00BF2DE9F04F4FF0DF0CEA
:103930004FF01F0A4FF05F094FF0010E0369DFF8E7
:10394000A0B183F800A083F8009083F800C0D0F8FD
:1039500000C00026DCF82490DCF804A099F804C02C
:10396000B3224CF0E00C83F810C099F803C0594D15
:103970004CF0E00C83F811C099F802C04FF09F089A
:103980004FEA0C1C0CF0700C4CF0080C83F802C0D1
:1039900099F800C099F80190F4450CBF4FF0050C60
:1039A0004FF0040CDA450CBF4FF0F70A4FF0770ADE
:1039B0004CEA490C5FFA8CFC83F803C083F805A03D
:1039C0009E71DA7191F80DC091F91120424F4FEAC2
:1039D0000C1C424C5FFA8CFC05EB020989F800C311
:1039E0004FEA521A47F8220002F1C00954F829B0F0
:1039F0004FEA8A0A02F01F020AF1604A0EFA02F246
:103A00000AF5614A66F3104B44F829B0CAF88021E0
:103A1000CAF8002091F90F2005EB020989F800C3CC
:103A20004FEA521A47F8220002F1C00954F829B0AF
:103A30004FEA8A0A02F01F020AF1604A0EFA02F205
:103A40000AF5614A66F3104B44F829B0CAF88021A0
:103A5000CAF8002091F9102005EB020989F800C38B
:103A60004FEA521A47F8220002F1C00954F829B06F
:103A70004FEA8A0A02F01F020AF1604A0EFA02F2C5
:103A80000AF5614A66F3104B44F829B0CAF8802160
:103A9000CAF8002091F90E100D4485F800C347F8CC
:103AA000210001F1C00054F820504A09920001F0B1
:103AB0001F0102F1604266F3104544F820500EFAEF
:103AC00001F102F56142C2F88011116083F80080B3
:103AD000BDE8F08F00E100E0C0230020006000405E
:103AE00040420F00002270B50B78016003F580039F
:103AF00003F51F631B0203618B680D4643600B7B5C
:103B000004460372CB6982B043630B6AC0E90E239B
:103B1000EFF3108C012383F310880E78334AC6F13B
:103B20000906B340566826EA0303536053688CF3D2
:103B30001088FFF7F9FEAB69ABB14FF4002059686C
:103B4000226892F90E600A6810606A4603C982E82A
:103B500003001146019A16709A681868136898470E
:103B6000064600282FD16B69A3B14FF00060596859
:103B7000226892F90F600A6810606A4603C982E8F9
:103B800003001146019A16709A68186813689847DE
:103B9000064690B900231E463046154A84F829305F
:103BA000C4E9063384F82A30E26084F82B3063617C
:103BB000236284F82C3002B070BDAB691BB19A68E7
:103BC0001868136A9847EFF31080012383F3108875
:103BD0002978064AC1F109018B4051680B435360B3
:103BE000536880F31088304602B070BD0040084032
:103BF0004349495238B5C369044613B990F82C308B
:103C0000A3B10025236920462168DD71FFF78CFEF2
:103C100094F82620A36984F82820B322236223691C
:103C2000E56184F82C500020DA7138BD90F82B3013
:103C3000002BE6D1B32223690020DA7138BD00BF22
:103C400038B5C36904461BB990F82C30002B73D0EB
:103C50000025236921682046DD71FFF765FE94F891
:103C60002620A369E56184F82820236284F82C507B
:103C70000021B325226820699369C571C171E16093
:103C800023B19A681868136A98472268536923B168
:103C90009A681868136A98472268012392F91120DC
:103CA0002849500902F01F02203003FA02F241F8BD
:103CB0002020BFF34F8FBFF36F8F226892F90E2041
:103CC000500902F01F0203FA02F2203041F82020CE
:103CD000BFF34F8FBFF36F8F226892F91020500906
:103CE00002F01F0203FA02F2203041F82020BFF355
:103CF0004F8FBFF36F8F226892F90F20500902F0A7
:103D00001F0203FA02F2203041F82020BFF34F8F48
:103D1000BFF36F8FEFF3108083F3108821680A4A96
:103D200009785468C1F109018B40234353605368FB
:103D300080F31088002038BD90F82B30002B97D0EE
:103D400086E700BF00E100E00040084030B583B0E6
:103D5000EFF30383103B5B4A5BB2C03352F823108E
:103D60006FF3104142F82310EFF30383564A103BE0
:103D70005BB252F8234094F82D30002B2ED1A3696A
:103D80002169012B82BF0A7942F040020A71E2697F
:103D9000012A49D022689269AAB194F8290090B109
:103DA000032B10D99068033B8568133110689BB2D0
:103DB0006269A84703200122A3692169033BC4E982
:103DC000070384F82E200122CB7CDBB28DF807306C
:103DD0009DF8073084F82D2003B030BD94F82E30C4
:103DE00003F0FF0223B1002384F82E3003B030BD6E
:103DF000E369002BF0D0032B2DD0022B21D0012B17
:103E00002FD02169236AC97C6269D154D4E9073271
:103E10000132013BC4E90732002BDDD121690A7967
:103E200063F386120A71D7E70A7942F010020A7129
:103E30000A7942F008020A7122689269002AACD11C
:103E4000C1E721690B7943F010030B710B7943F043
:103E500008030B71D6E721690B7943F040030B711E
:103E6000D0E794F82A1029B32168184D91F90F1062
:103E7000480901F01F0103FA01F1203045F8201034
:103E8000BFF34F8FBFF36F8F04252169C87940F0CE
:103E90008000C871087940F010000871087962F359
:103EA000C30008714D70487962F30000487184F8CE
:103EB0002C30A7E7082221694B7A03F0F7034B72F5
:103EC0004A709FE700600040C023002000E100E04E
:103ED0002DE9F041EFF30383103B494A5BB2C03355
:103EE00052F823106FF3104142F82310EFF30383CD
:103EF000444A103B5BB252F8234094F82750002DFF
:103F00003FD194F8293003F0FF02002B37D194F809
:103F10002F30002B49D1E3694BB1D4E90410226A58
:103F2000013B805C01328874C4E907323BBB2169E4
:103F3000C023CA796FF3C712CA7101E0013B02D0F6
:103F4000CA79D209FAD123682D4A93F9103003F1C6
:103F5000C00052F82040002B6FF3104442F820407C
:103F600009DB01205A09284C03F01F03603200FAD4
:103F700003F344F82230CB7943F04003CB71BDE822
:103F8000F08194F82630032B13D0012D94F824608F
:103F9000226917D0967494F82830013D013384F8D3
:103FA000283084F82750BDE8F081E36984F82F2099
:103FB000BCE794F82830022BE7D194F83030002B7E
:103FC000DDD0E2E723685B69002BE3D094F8291089
:103FD00001F0FF070029DDD1A1690029DAD0996835
:103FE0001868D1F80880A38B12326169C047A369B1
:103FF00084F82F50C4E90773226994F82750C9E761
:1040000000600040C023002000E100E010B4EFF3A6
:1040100003832C4A103B5BB252F8233093F82920DB
:104020001AB193F82720012A47D0DA69D2B1196969
:10403000CA79C0236FF38612CA7101E0013B02D036
:10404000CA795206FAD4EFF30383103B1E4A5BB2DF
:10405000C03352F823106FF3104142F823105DF87B
:10406000044B704793F82A10F9B14FF0010C19680E
:10407000164C91F90F10480901F01F0120300CFA7D
:1040800001F144F82010BFF34F8FBFF36F8F196910
:10409000C87940F08000C87104204870487962F304
:1040A0000000487183F82CC0C2E7082219694B7AD6
:1040B00003F0F7034B724A70BAE793F83020002AF6
:1040C000B3D1B4E7C02300200060004000E100E06D
:1040D00038B5EFF30383E0214C4A103B5BB252F852
:1040E000234023695A7A5972D5065FFA82FC02F09E
:1040F00003001FD55A7851064AD40121E26984F899
:104100002B10002A60D0002521682046DD71FFF7C2
:104110000BFC94F82610A2692369E56184F8281045
:10412000226284F82C50B32201212046DA71FFF775
:1041300027FB13E00028E0D11CF0080F1BD094F8F7
:104140002B20002A49D194F82910B322002914BF4A
:1041500002210321DA712046FFF712FBEFF30383FC
:10416000103B2B4A5BB2C03352F823106FF310415F
:1041700042F8231038BD94F82C20002AEED01CF011
:10418000040FEBD094F82B200121002AE3D1DAE7C9
:104190000028B2D15A78C2F380115206CCD508203B
:1041A00084F82B105A7A216802F0F702496A5A7291
:1041B00058700A78012A0CBF03220222DA705A7959
:1041C00042F001025A71C9E794F82C20002A9AD1D2
:1041D00094F82B20002AA6D095E7E2696AB1002264
:1041E000A16994F82600C4E9072184F8280084F81E
:1041F0002C20B3220121DA71ADE794F82C20002A9B
:10420000EDD194F82B20002AF3D0E8E7C02300205A
:104210000060004010B582B0EFF30384164B103CF1
:1042200064B253F82420154950790B5C03F0030362
:10423000032B0FD0C03451F824306FF3104341F8F2
:104240002430936823B1D268CDE9002068469847AE
:1042500002B010BD936823B1D268CDE90020684652
:104260009847064BC03453F824206FF3104243F8AC
:10427000242002B010BD00BFC02300200060004019
:1042800003460020D3E9022353607047034630B44D
:10429000D3E90123D2690020D2E9011444F000459A
:1042A000D46841F0004144F000445D619C61D2E972
:1042B000044219615C629A6230BC7047002800DADF
:1042C00070474FF0010C10B400F160430901104C2D
:1042D000C9B203F5614383F800130E4B44F8202064
:1042E00000F1C00253F822106FF3104143F822107E
:1042F00043099B0000F01F0003F1604303F5614395
:104300000CFA00F0C3F880015DF8044B18607047A8
:10431000C02300200060004070B5836984B004466B
:104320008C46164601AD9BB193E8070085E807006F
:1043300083F804C0E26918469E601A606369984772
:10434000A3691BB195E8070083E8070004B070BDBE
:104350002B46EDE790F800C0486EBCF1030F98BF04
:1043600001300AB1824227D310B4019C496BE407A3
:1043700054BF01F01F01C1F30441BCF1030F09D97F
:10438000090981F0010172B9E9B902225DF8044B13
:104390005A60704701F00C01A1F10401B1FA81F1FA
:1043A0004909002AF0D0824201D30029EDD103222D
:1043B0005DF8044B5A607047BCF1030F98BF02F1DF
:1043C000FF321A6070470028DFD0F0E701222DE9A4
:1043D000F0470D46097C044602FA01F3C3601B074F
:1043E00014BF002302744FF0000218BF03748E4BF9
:1043F00084B00B4469691B0283604560D5E90636C9
:104400004161C0E90623EFF31087012383F310888D
:104410004FF00041854B287C21FA00F0196921EA10
:10442000000119611B6987F310884FF42541A368C7
:104430006F681960DA62DA639A642A78297A032A43
:104440004FEAC15107F1FF3E00F0D88084BFBE465D
:1044500041EA0241D9624FF0004CD6E906A900209A
:104460004FF0FF31D6F82C800390C3F810C00291B2
:10447000C3F814C0C3F818C058629862C3F81CA0EF
:10448000C3F82090C3F868E0C3F864E0002A40F065
:10449000A080404601224FF0030C790801390291B7
:1044A0005965996500285DD095F800E0B76A002F3E
:1044B00071D0B97897F80390090641EA097197F825
:1044C000049041EA09419963B968C3F88C10002946
:1044D00065D0012148B997F81C9097F81BA04FEAC6
:1044E000496949EA4A2948EA0908C3F8881040B9E5
:1044F00096F8211096F82000490741EA403148EA31
:1045000001084FF4AA01BEF1010F196402D1002184
:10451000D9641965E168D960C3F83480C3F830C044
:104520001A63697C224695F91200FFF7C7FE2246FE
:1045300096F8221096F92400FFF7C0FE224696F85E
:10454000231096F92500FFF7B9FE2FB122463978DE
:1045500097F90100FFF7B2FE0020354B236004B04D
:10456000BDE8F0873178F9B995F800E0B178002915
:104570009CD0F778BEF1020F4FEA071141EA87118C
:104580003FD04BD903273943B76A48EA014848F07E
:104590008078002F8DD19F63C3F88870A7E7F968F2
:1045A000003918BF012195E795F800E07178BEF158
:1045B000020F4FEA81194FEA011724D029D90321AC
:1045C00048EA010848EA090848EA070848F48078F8
:1045D000CCE7012A19D000901946EA68606802AB5E
:1045E000FFF7B8FEDDE90210020442EA006242F081
:1045F000030CA368F06A42F0010251E741F48031F4
:1046000028E70927BFE70921DAE740464FF0030C06
:1046100046E7002914BF09210621D1E7002F14BF66
:1046200009270627AFE700BF90164000004008406A
:104630005450470030B4436893F91220DB69002AD4
:1046400010DB012402F01F05AC4051092A4D203136
:1046500045F82140BFF34F8FBFF36F8F00242749E8
:1046600041F8224093F92420002A10DB012402F0B3
:104670001F05AC405109204D203145F82140BFF3C2
:104680004F8FBFF36F8F00241C4941F8224093F9EC
:104690002520002A10DB012402F01F05AC4051093F
:1046A000154D203145F82140BFF34F8FBFF36F8F79
:1046B0000024124941F822409B6AA3B193F90130CA
:1046C000002B10DB01210C4C5A0903F01F0520328E
:1046D000A94044F82210BFF34F8FBFF36F8F002122
:1046E000064A42F823100023D0E9022130BC0360BF
:1046F000184691605363704700E100E0C02300203A
:1047000070B5EFF30383103B194A5BB203F1C001AC
:1047100052F82100174C6FF3104042F8210054F872
:104720002300446894F800C0BCF1010F17D1D0E910
:1047300002560024AE60AC64EC642C6552F8215043
:104740004FEA531E0C4E03F01F030CFA03F364F3FD
:1047500010450EF1600C42F8215046F82C304369A8
:104760002BB1BDE8704000221146FFF7D5BD70BDEA
:1047700000600040C023002000E100E04FF49643B9
:1047800010B4426883B00193137803BB4AF68023C8
:10479000274AA2F88430B2F884309BB2802B08D12B
:1047A00010E0019B013B0193B2F884309BB2802B57
:1047B00008D0019B002BF4D14FF4FA7003B05DF8E0
:1047C000044B7047002003B05DF8044B704792F92A
:1047D0001130184803F1C00150F821406FF3104424
:1047E00040F82140012103F01F045B099B0003F105
:1047F000604303F5614301FA04F4C3F880411C608F
:1048000092F9132002F1C00350F823406FF31044D3
:1048100040F8234053099B0002F01F0203F160435C
:1048200001FA02F203F56143C3F880211A60ADE793
:1048300000E07F400060004030B587B0EFF30383B5
:10484000164A103B5BB252F82330D3E90441206989
:104850008A6A550204D5850744BF01259D762061EB
:104860005B688A62996A51B11D781C6B0323CDE99C
:1048700003020195059401A88DF808308847EFF3ED
:104880000383103B064A5BB2C03352F823106FF328
:10489000104142F8231007B030BD00BFC0230020F4
:1048A0000060004010B4294A0346C2600A7802F052
:1048B00001024270EFF3108C012484F31088244A23
:1048C000D06820F48010D060D2688CF31088EFF3A9
:1048D000108C84F310885878002830D1DC68227955
:1048E00060F3861222718CF310884868DC68C27805
:1048F000D201D2B26271A279BAB94A78AAB1EFF301
:10490000108C012282F31088114AD46824F40044E8
:10491000D460D2688CF310884FF0020CDA6802F58C
:10492000805484F8C0C0802494714078094A187279
:104930000978002019705DF8044B5A607047D868F8
:1049400002796FF3C7120271CDE700BF0010174064
:1049500000400840004341440346DA685B78002089
:1049600022F81310704700BFEFF31081012383F387
:104970001088427842B9C068037962F386130371E4
:1049800081F3108800207047C26813796FF3C71352
:10499000137181F310880020704700BFEFF3108C73
:1049A000012383F31088437873B9C268117963F3E4
:1049B00086111171117A63F3861111728CF31088CC
:1049C0000023436018467047C3681A796FF3C71213
:1049D0001A711A7A6FF3C7121A72EFE738B5037AB1
:1049E0000446002B3AD00021C368427833F81250B5
:1049F00023F81210ADB2EFF3108C012383F310886B
:104A0000E36840781A7900283DD061F3C7121A7123
:104A10001A7F42F080021A771A7A42F080021A72E4
:104A20001A7942F080021A718CF310880121042057
:104A300000F044FCEFF31081012383F310886278C7
:104A40008ABBE068037F62F38613037781F31088E3
:104A5000E3686278002023F8125038BDEFF310832A
:104A6000012282F310884278C1683AB10A7942F093
:104A700080020A7183F31088002038BD0A7942F061
:104A800040020A71F6E760F386121A711A7F42F04B
:104A900040021A771A7A42F040021A721A7942F0EA
:104AA00040021A71C0E7E268137F6FF3C7131377F0
:104AB000CCE700BF10B400244FEAC01C0CF1804CBE
:104AC0001F2894BF0CF5322C0CF5352CDCF8003087
:104AD000C3F380724A71DA0F0A7123F060430B60EE
:104AE000DCF80430134A1B0FD25C8C608A710CF125
:104AF0000C0342B10C320B31944413F8012B634583
:104B000001F8012FF9D11F280CD801220A4902FA15
:104B100000F0D1F8B0305DF8044B23EA0000C1F892
:104B2000B0007047FF22044B20305DF8044B43F87F
:104B300020207047A873020000000B4070B5056983
:104B400004460E4698B0A5B12946602268460CF08E
:104B5000B3F96022314628460CF0AEF92846E368E6
:104B60009847206918B1602269460CF0A5F918B081
:104B700070BD0D46F2E700BF30B599B0EFF3038486
:104B80002E4B103C64B253F824506022002168463A
:104B90000CF06AFA2B6893F91520A24220D000216C
:104BA0004FF4807C1868030103F1804303F5302340
:104BB000DA68ADF804C092B202926A69D960CDE9B0
:104BC0000312009069462846FFF7B8FF1C4BC0341B
:104BD00053F824206FF3104243F8242019B030BD5D
:104BE0004FF4805500201749D1F89020ADF80450BB
:104BF0004FEA124C120402EB0C7202929203C1F8BB
:104C0000900011D5D1F8A81291FAA1F1B1FA81F171
:104C10008A0002F1804202F530220391D2F8E010BE
:104C200021F00401C2F8E0101B69074A1B6A52F820
:104C3000235000936B690493C4E700BFC023002096
:104C40000060004000000B405C2300202DE9F0478D
:104C500098B0EFF303822B492B4C103A52B2D4F8A0
:104C6000AC3251F8229093FAA3F3BBB3B3FA83F5B5
:104C7000072D33DC01274FF48062D4F8A032AF4017
:104C800005F1200A1F42CDF80CA0ADF804201AD17E
:104C900004EBC51606F5C046DFF8748008363368A5
:104CA0005046C3F3012305A90093FFF703FF009BC0
:104CB000694658F8230043690493FFF73FFFD4F88F
:104CC000A0323B42EBD0AD0005F1804505F5302523
:104CD000D5F8E03023F00803C5F8E0300A4BD3F8EC
:104CE000AC225AB9D9F80030084993F91630C033CC
:104CF00051F8230062F3104041F8230018B0BDE8DA
:104D0000F08700BFC023002000000B40006000407F
:104D10005C2300202DE9F04399B0EFF303842D4B81
:104D2000103C64B253F82490D9F80020D9F814301C
:104D3000D2F80080049308F1804303F5312393F8FF
:104D40000033CDF80080002B36D0234F234E244D66
:104D500014E003EB88122A4492F8D0C769466FF337
:104D6000420C82F8D0C748460393FFF7E7FE08F1EC
:104D7000804303F5312393F80033EBB1DB074BBFDE
:104D80004FF400614FF4007106EBC80207EBC80254
:104D90001368ADF8041028F0004893FAA3F31BB190
:104DA000B3FA83F3072BD4DD536893FAA3F373B1FB
:104DB000B3FA83F32033CCE70A4BC03453F82420F2
:104DC0006FF3104243F8242019B0BDE8F08340236C
:104DD000BFE700BFC0230020B00E0B40100E0B40F9
:104DE00000000B40006000400246F121D2E902239E
:104DF000013B9BB213800020117270478268117AC8
:104E000001F00101137AC3F340039942FAD14FF044
:104E1000F40C0021436882F808C0117393F9123032
:104E200013F1210F03D100230360184670478B4212
:104E30001ADB012110B45A090F4C03F01F03203272
:104E400001FA03F344F82230BFF34F8FBFF36F8FA3
:104E500043680A4A93F912305DF8044B42F8230084
:104E60000023036018467047044A42F823000023D9
:104E700003601846704700BF00E100E0C023002037
:104E80008268117A01F00101137AC3F34003994259
:104E9000FAD143681978012903D0F1230020137255
:104EA00070474FF0F10CC168187C094B43F8201093
:104EB0004B1E9BB253809380138082F808C0137AF4
:104EC0009B07FCD54FF6FF730020538093807047FB
:104ED000642300202DE9F04F0B7C83B003F58003A1
:104EE00003F568631B0241608360EFF310850123C3
:104EF00083F310880A7C032A00F2A880C2F103021F
:104F00009340DB435A4C5B4AE468234013601368C8
:104F100085F31088002283681A721A7AC2F340045B
:104F20009207FAD4CA699C720F7A92F803C0167875
:104F3000456892F804E001970CF0070C002E7DD133
:104F4000002F40F08B802C785678022C06F07709E1
:104F500019D16F68D5F80C8007F1FF3AAAEB080A5F
:104F600006F0070706F07006072F14BFC346D346A6
:104F7000702E08BFD0461FFA8BFB1FFA88F8A3F8E3
:104F800002B0A3F80480927812F0070205D04EF028
:104F9000040E032A08BF4EF0010E019A83F80CE0BC
:104FA00083F80E9083F809C09A724A68C2602E7C1A
:104FB000314D45F82620551EADB2002C37D1C2F335
:104FC0004F025A809A801D8091F91230002B22DB0B
:104FD0004A7C03F160441201D2B204F5614484F8C2
:104FE00000230124254A264D42F8230003F1C00680
:104FF0005A0955F82670920003F01F0302F160422F
:1050000002F5614204FA03F36FF3104745F8267086
:10501000C2F8803113600023D1E90541194A0461C7
:10502000816102604361184603B0BDE8F08F012C36
:105030001CD0022C18BF0022C5D0C2E7502E06BFDC
:1050400001944CF0500C46EA0C0C7CE7C2F11302C0
:10505000074C9340DB430C4A246956E787F002076C
:105060004CEA071C01965FFA8CFC6CE72A46A8E71D
:10507000004008400C40084064230020C02300206A
:10508000006000405447410010400840F0B585B032
:10509000EFF30383103B1E4A5BB203F1C00152F8E9
:1050A00021001C4C6FF3104042F8210054F82340BB
:1050B000D4E901120978137A0129DBB207D1F4206F
:1050C000917B03F0F003C9B21072137291732769D8
:1050D000B7B1656901AECDB195E8070086E8070074
:1050E0009B0644BF00232B71A36928462B60B84759
:1050F00063691BB196E8070083E80700A268137A8A
:10510000DBB203F00F03137205B0F0BD3546E7E7DD
:1051100000600040C023002003461B68103133F8B4
:105120001130002013807047064B074993F8260082
:105130001A6A51F82030C2F302620449D3400B606E
:10514000704700BF00E00140541100204C250020B2
:10515000F8B54AF2035001234849494AA1F8FE0331
:10516000A2F80431B2F804319BB2002BFAD101212C
:105170004FF400454FF0090C424CDFF824E1424E59
:10518000C4F804E0DFF81CE13C48C4F80CE0A2F8E5
:105190000011B1603D4A3160A56025613C4D3D4F35
:1051A000C4E90552276090F82620056A54F82220A9
:1051B000C5F30265EA40384D2A6080F8133480F860
:1051C000A2C090F88034002B50D000232B4981F8E6
:1051D000813481F8803481F8323091F83C301A07FC
:1051E000FBD5002342F2017643F20210234AA1F8D4
:1051F000486081F84A30088581F82A3092F83C30BE
:105200009B06FBD5032005211D4B83F81C010120C3
:10521000224B82F82610136292F82630116A54F855
:105220002330C1F30261CB402B6082F8300082F85A
:10523000520092F87430114943F0400382F8743000
:1052400091F87430DB09FBD0062346200B4A81F825
:105250006C3081F8740081F8743092F87430DB0996
:10526000FBD14FF42543A2F8FE33F8BD80F880143B
:1052700040F2C44000F022F8A7E700BF00E0014080
:1052800000C001405411002000700040001C4E0E70
:1052900000C2EB0B002D31014C2500202112012012
:1052A00000127A0000366E01704700BF00BEFEE7B4
:1052B000A0F101000028FBD1704700BF10B54FF4EA
:1052C0007A72164C164B24684FF0000EB3FBF4FCB8
:1052D0004FF0FF3300FB01F1A1FB020483427EEBA0
:1052E000040407D3B0FBFCF0800880B1BDE8104097
:1052F000FFF7DEBF4FEA8C0CB1FBFCF1A1FB021201
:105300008B427EEB020203D308460028EED110BD8B
:105310001846BDE81040FFF7CBBF00BF4C2500206A
:1053200000CA9A3B70B500240A4B0B4EB3F84051AB
:10533000ADB225FA04F3DB07E0B203D556F824300A
:1053400003B198470134102CF3D1024BA3F830512C
:1053500070BD00BF006000407C23002030B56FF0BE
:10536000FF0585B0032000F079F84FF0FF311F4CA6
:105370001F482246856400230125CDE901110391D0
:1053800004F1C00E32F8020F590960B104A800EB15
:10539000810151F80C0C03F01F0C05FA0CFC20EAFB
:1053A0000C0041F80C0C724503F10103EAD101999C
:1053B000104B0F4A03201167C3F8801202995167FE
:1053C000C3F8841203999167C3F8881200F016F8A5
:1053D0000023094803F1C00234F8021F0133602B97
:1053E00040F82210F6D105B030BD00BFD07D0200DC
:1053F0000080004000E100E000600040EFF3108119
:10540000012383F31088124B33F8102092B22AB193
:1054100033F81020013A92B223F8102033F81030FC
:105420009BB293B90B4A10B4B2F8FE330A4C9BB24C
:1054300034F8100043F4254323EA0003A2F8FE33B6
:1054400081F310885DF8044B704781F31088704732
:105450004025002000E00140B873020030B4EFF3B3
:105460001081012383F310880E4A32F810309BB26A
:105470006BB90D4C0D4DB4F8FE3335F810C09BB22E
:1054800043EA0C0343F425439BB2A4F8FE3332F8FD
:10549000103001339BB222F8103081F3108830BCF9
:1054A000704700BF4025002000E00140B8730200B3
:1054B0000D4908B50A6803464AB103330B4823F087
:1054C00003031344834206D810460B6008BD084806
:1054D00002460860F1E70BF0B3F90C234FF0FF32FE
:1054E0000360104608BD00BF4825002000EE0720DD
:1054F000A862002000BE704708B500F005F8FBF771
:105500002BFFFEE7704700BF4FF47001234B244A86
:1055100070B50020C3F888109A60FFF7F3FFFFF71B
:1055200017FE0120FFF7EEFF1E4B83F30A881E488B
:105530001E4A0021121A0BF097FD1D481D4A1E49F4
:10554000121A0BF0B9FC1D4D1D4B5B1B002B07DD28
:1055500000249E1055F8043B01349847A642F9DC1C
:10556000FFF7E2FD0320FFF779FF00234FF6FF70FE
:10557000144903F108020133092B21F81200F8D174
:105580000320FFF73BFF0220FFF7BCFFFFF7E6FE1B
:10559000BDE870400020FFF787BE00BF00ED00E0CF
:1055A0000000010000EE072070110020A86200201A
:1055B0000000002054110020B485020000110020DA
:1055C00040110020000D084000220270C0E90122B5
:1055D00080F83520012280F83620DF22827770475C
:1055E0002DE9F0474FF0000804461F469DF828308B
:1055F00080F8008021730375089B8A460361099B2C
:10560000154683610B9BDFF8409103620C9BC0E958
:105610000938FF234377002A3ED184F835205020F3
:1056200008F064FA4FF6FF73A0F84230DF23064615
:1056300000F1200880F8205080F8215080F8225096
:1056400080F82350C0E90955C562C0E90E55C0E98C
:105650000C5580F8443080F8453080F8405080F890
:105660004150C0E91255C4F82880202229460BF089
:10567000FBFC092FA6605AD8314ABAF1020FD35D5C
:10568000114642D099F80000002856D1002B4ED187
:1056900002232777D35548E0012A48D184F83520E2
:1056A000242008F023FA0646837880F8008068F307
:1056B000020383704378C57003F0F80368F30613A0
:1056C000437080F8048080F8058080F80680A0622E
:1056D0001C22414608300BF0C7FC052F666026D817
:1056E000184BBAF1020FDA5D194602D099F80000A2
:1056F00028B1012A1BD802232777CB5515E0B2B970
:1057000002222777DA55257011E0012BF3D927778C
:10571000384601F087FC3022816A40460BF0CCFB12
:10572000384601F07FFC036BA36101232370002343
:10573000207889F80030BDE8F087012BDAE700BF58
:1057400056250020502500206025002038B590F80F
:10575000353004468BB9806808B9002038BD04F1A3
:105760000C01FEF733FE0546A068FEF78FFD0E2DF7
:1057700001D0002DF1D10120F0E7012BEDD14068DF
:105780000028EAD004F10C010830FFF7A3FB05461E
:1057900060680830FFF728FBE9E708B590F8353076
:1057A0003BB9806820B1FEF76BFDB0FA80F040098C
:1057B00008BD012B06D140680028F9D00830FFF75A
:1057C0005FFBF2E70020F3E708B590F835303BB90E
:1057D000806820B1FEF72EFFB0FA80F0400908BDC6
:1057E000012B06D140680028F9D00830FFF706FBEE
:1057F000F2E70020F3E7FFFF38B50446FFF7E4FFC8
:10580000606838B10025237F0B4A2421D55408F065
:1058100079FB6560A56875B10021237F074AA86CF4
:10582000D15410B1202108F06DFB5021284608F01A
:1058300069FB0023A36038BD5025002056250020B9
:1058400010B50446FFF7D8FF204610BD01F10C0348
:1058500003608B6803B1203343604B6883607047FB
:10586000836823B11868003018BF01207047406872
:105870000028FBD08068F6E7F0B5044685B00F46F7
:10588000014601A81546FFF7E1FF2046FFF7E8FFB4
:10589000064610B12046FFF797FF00F055F82A465C
:1058A00001A900F045F9054650B167772EB12046B1
:1058B000FFF74CFF2046FFF770FF284605B0F0BD0C
:1058C000DF23A377F2E7FFFF0B4B00F1C00253F891
:1058D00022106FF3104143F82210012300F01F0241
:1058E0004009800000F16040934000F56140C0F83D
:1058F00080310360704700BF00600040012243090F
:1059000000F01F0002FA00F0044A203342F823009E
:10591000BFF34F8FBFF36F8F704700BF00E100E010
:105920007047FFFF0028ABBFC023C02200F16040DA
:10593000044BABBF00F5614000F00F0080F800336E
:105940001A54704714ED00E038B50A4DD5E88F3F82
:1059500013F001040BD1284608F0E6F838B1064BE5
:1059600028461C6008F0FCF8044802F09FFA024840
:1059700038BD00BF642500206825002021590100A2
:105980002AB901222F4BC03143F821207047012A48
:1059900003D1C0312B4B0222F6E7022A03D1C031DA
:1059A000284B0322F0E7032A03D1C031254B042200
:1059B000EAE7042A03D1C031224B0522E4E7052A95
:1059C00003D1C0311F4B0622DEE7062A03D1C031C6
:1059D0001C4B0722D8E7072A03D1C031194B0822F4
:1059E000D2E7082A03D1C031164B0922CCE7092A95
:1059F00003D1C031134B0A22C6E70A2A03D1C031B2
:105A0000104B0B22C0E70B2A03D1C0310D4B0C22E7
:105A1000BAE70C2A03D1C0310A4B0D22B4E70D2A94
:105A200003D1C031074B0E22AEE70E2A03D1C0319D
:105A3000044B0F22A8E70F2AA8D1C031014B102236
:105A4000A2E700BF0060004032B9C622214BC0313E
:105A500043F8212001207047012A05D1CF201D4B9A
:105A6000C03143F82100F5E7022A03D1C031194BB8
:105A7000D822EDE7032A03D1C031164BE122E7E734
:105A8000042A03D1C031134BEA22E1E7052A03D1EE
:105A9000C031104BF322DBE7062A03D1C0310D4B96
:105AA000FC22D5E7072A04D1C0310A4B40F2051287
:105AB000CEE7082A04D1C031064B4FF48772C7E7FE
:105AC000092A04D1C031034B40F21712C0E700206D
:105AD000704700BF0060004032B94022134BC03114
